:020000041000EA
:1000000000B5324B212058609868022188439860DF
:10001000D860186158612E4B002199600221596106
:100020000121F02299502B49196001219960352056
:1000300000F044F80222904214D00621196600F024
:1000400034F8196E01211966002018661A6600F04E
:100050002CF8196E196E196E052000F02FF8012189
:100060000842F9D1002199601B49196000215960AB
:100070001A491B48016001219960EB211966A021F2
:10008000196600F012F800219960164914480160C1
:100090000121996001BC002800D000471248134993
:1000A000086003C880F30888084703B5996A0420EC
:1000B0000142FBD001200142F8D103BD02B5186610
:1000C0001866FFF7F2FF186E186E02BD00000240BE
:1000D000000000180000070000035F00212200005C
:1000E000F4000018222000A00001001008ED00E03C
:1000F00000000000000000000000000074B24E7A12
:1001000000200420F7010010C3010010C5010010F9
:10011000C1010010C1010010C1010010C101001097
:10012000C1010010C1010010C1010010C701001081
:10013000C1010010C1010010C9010010CB01001065
:10014000CD010010CD010010CD010010CD01001037
:10015000CD010010CD010010CD010010CD01001027
:10016000CD010010CD010010CD010010CD01001017
:10017000CD010010CD010010CD010010CD01001007
:10018000CD010010CD010010CD010010CD010010F7
:10019000CD010010CD010010CD010010CD010010E7
:1001A000CD010010CD010010CD010010CD010010D7
:1001B000CD010010CD010010CD010010CD010010C7
:1001C00000BE00BE00BE00BE00BE00BEEFF3058054
:1001D000103800BEF2EB8871A0370010C037001055
:1001E0003402001090A31AE700201F49086006C8D7
:1001F00081F3088810471D48006800282FD10DA4FE
:100200000ECC002902D000F012F8F9E71849194A7B
:10021000002000E001C19142FCD1174988471749ED
:1002200088471749884700BEFDE701C901C29A42C5
:10023000FBD37047C0370010C00000208C0A00209C
:100240008C41001000000420000004208C410010AC
:10025000001004200010042000000000704709482E
:1002600002F02CFA0047000008ED00E0000000D08A
:10027000900A00200C0F00200125001061050010DD
:10028000292600105756000006005250ABB36053A9
:100290004437001006005250861C030254370010E9
:1002A000060052505422A29D6037001005005250A3
:1002B000DE65F4688C410010F8B5C04610B5064CF8
:1002C0002378002B07D1054B002B02D0044800E017
:1002D00000BF0123237010BDC00D002000000000EE
:1002E00018360010044B10B5002B03D00349044806
:1002F00000E000BF10BDC04600000000C40D00209B
:10030000183600100123074A074851688B40A42182
:100310004350064B19681389054A4B401B041B0CBC
:1003200013607047E00E0020000005400C000540FF
:100330000C10054000B585B001F0A6FA01F0A8F850
:10034000064BFA22029300230193054B12010093FE
:10035000002301F099F9012005B000BD900A0020AA
:10036000CD04001070B50500074C202200212000AC
:1003700002F004FB29002022200002F005FBA0234C
:10038000DB05DC6370BDC046240E0020F0B5DE4600
:1003900057464E464546E0B5464C83B001212020E5
:1003A000266802F0CDFA01210190202002F0C8FA5F
:1003B00001210700042002F0C3FA8246122E14D055
:1003C000132E61D0A3689D4220D0019802F0CAFA92
:1003D000380002F0C7FA504602F0C4FA03B0F0BC8D
:1003E000BB46B246A946A046F0BD8022A568920150
:1003F00010352B00954254D82F4AA36011683960FC
:100400009188B9809279BA719D42DED15646D14623
:100410000A21280002F084F94C46A846631C050016
:100420000A2140469B46994602F07AF9234B9C46A6
:10043000614423310B782370002DE9D14346002B12
:1004400031DB00235A461370A24507D22378327855
:10045000013C627033700136B442F7D8390050461F
:1004600002F030FF019C0100200002F051FF14490E
:1004700022000B0031CA31C331CA31C311CA11C3C2
:10048000A023DB05D963A0E7A5680E4A103D2B0029
:10049000954202D30C4AA360B0E713000A4AA36056
:1004A000ACE71300A8E759462D22A31C0A705C464E
:1004B0009B46C6E7E00E002060360010183600109C
:1004C000240E0020660600006836001010B5FFF705
:1004D0005DFF012010BDC04600B50F4B85B0186010
:1004E000042911D008290DD1FFF750FF00F0D0FFEB
:1004F0000A4B0B4A0293002301930A4B00930023FB
:1005000001F0C2F805B000BD044801F0BDF906488D
:1005100001F0BAF9F6E7C046E00E0020A80B002073
:10052000400D030035030010900A0020F8B50A4C76
:10053000A369DB060ED41025FF26084FA3691D42D0
:10054000FCD1236833401F3B3B60FFF71FFFA369CB
:100550001D42F3D0F8BDC04600400340E00E00202D
:10056000F0B5D64646464F460221C0B5002000F001
:1005700009FA0221012000F005FA0421102000F000
:1005800001FA122000F0B0FA00220121122000F03E
:1005900011FA132000F0A8FA00220121132000F024
:1005A00009FAE121514C4902200001F09DFD802310
:1005B000226B1B025340C022120213404C4A0A20F5
:1005C00013606022E36A0D265A406E231340494AA5
:1005D00049491360494B002223630223A364484B1B
:1005E00000255D5F2023002A73D1854278D0A2695F
:1005F0001342FCD120600A7801310D3A5042424149
:100600000878D2B20028EED180223E4D3E4F3F4BBB
:1006100078602860A860E8602B613D4B52016B60F8
:10062000012390462B609A463A4B01211B682030EB
:1006300053401B04384A1B0C13604346BB6002F056
:100640007FF9A023354ADB051A60284A04005A6066
:10065000914620229A60324A1A610200314B43CB04
:1006600043C21B8820001380FFF77CFE200002F0AD
:1006700079F92D4B01220C21122000F0DDF9012225
:100680000C21132000F0AEF91420284900F0A8FA3C
:100690000121142000F08AFA4A4650239363536BD9
:1006A0003822414656461A40214B04200B431A601B
:1006B0007B6820499E40A423EE501F4B1E6000F033
:1006C0008FFA0420012100F071FAC82001F084F9AA
:1006D000FEE7A26913428DD0A2691342F9D189E7DE
:1006E000A2691342FCD1266081E7C0460040034066
:1006F000305003402C5003407036001001030000BE
:10070000040F002000000540E00E0020FFFF000065
:10071000620200000C0005400C100540240E002071
:1007200011080A0084360010D90400102D050010AD
:100730003440034005030010A8200540D0231B06C9
:100740001B68F0B59A00454690464146894ADE4608
:100750005258574693465A1E934130224E465B42AA
:100760001A401300844AE0B5944683B06344019371
:10077000824B08269A463500083DEA081300019985
:1007800008339B005C58002C23D05B46002B2AD0FA
:1007900001230F27994639002140274213D04B46A9
:1007A00052464046AB4012581A420CD1072208006C
:1007B0002A40920090400200EB0871483C339B00B5
:1007C0001A502800D84724090135002C01D0B54221
:1007D000E1D30836282ECED103B0F0BCBB46B246DA
:1007E000A946A046F0BD0F2319002140234207D09F
:1007F00047460E3BAB406148C059184200D18DE0DE
:100800002309F11F002BE4D00F22100018401A42D8
:100810000FD0012345468B40584A52591A4208D1FD
:100820000722CB08114089008840554A3C339B0081
:100830009850230AB11F002BCBD00F221000184074
:100840001A420FD0012345468B404C4A52591A4256
:1008500008D10722CB08114089008840484A3C3320
:100860009B009850230B711F002BB2D00F22100059
:1008700018401A4241D1230C311F002BA9D00F225E
:10088000100018401A4252D1230DF11E002BA0D0A7
:100890000F22100018401A425AD1230EB11E002B0D
:1008A00097D00F22100018401A420FD0012345465E
:1008B0008B40324A52591A4208D10722CB081140C4
:1008C000890088402E4A3C339B009850240F721EAA
:1008D000002C00D17DE70123514640469340095842
:1008E000194200D075E70721D3080A4092009440CE
:1008F0003C33234A9B009C506BE7012345468B40C9
:100900001E4A52591A42B6D10722CB08114089001B
:1009100088401B4A3C339B009850ACE707231D409E
:10092000AD00A940164B3C329200D15068E701233C
:1009300045468B40114A52591A42A5D10722CB088D
:100940001140890088400E4A3C339B0098509BE739
:10095000012345468B40094A52591A429DD107222C
:10096000CB08114089008840054A3C339B009850D1
:1009700093E7C046440E002000410140D80E0020FD
:1009800000400140094A830094464022634410B568
:100990001C68C0006240C0241440802252011343EE
:1009A0001C60034B9C466044416010BD04C0014084
:1009B000004001400A4B80009C460423604400290B
:1009C00001D00C230821002A00D10B0002685340FB
:1009D0000C221A4080235B01184302607047C04616
:1009E00004C00140D0231B061B6830B50500581E0B
:1009F00083410F485C42844607203023284023402F
:100A00008000EC08814020000A4D3C3063448000A7
:100A1000A40041511B19002A04D0802292011343E3
:100A2000196030BDC022920113431960F9E7C04636
:100A30000041014000400140F8B51E00D0231B06D4
:100A40001C680700631E9C41302364421C40224BFB
:100A500015009C46C30807201A00384080008140DA
:100A60003C321E48644492009B001150E418002D53
:100A700011D080239B011C43D02321601B061C68DE
:100A8000174FA4003B59002B11D0002E1ED03E5111
:100A9000002D16D1F8BDC0239B011C43D02321603B
:100AA0001B061C680E4FA4003B59002BEDD1002EF5
:100AB000EED000220D200B493E5100F0BBF8002D76
:100AC000E8D001210D2000F071F8E3E70D20054981
:100AD00000F0A4F9DBE7C0460041014000400140BE
:100AE000440E00203D0700100123D022834012064F
:100AF00093629361094A83009446402263441968D3
:100B0000C0004A40C02111408022520113431960A5
:100B1000034B9C46052360444360704704C001407A
:100B200000400140024B18688007C00F7047C04664
:100B300000C0064070B5EFF3108C72B60D4D2B68F7
:100B4000002BFCD0BFF35F8F0724CB08C618C05C16
:100B500001230C40A3401C000440034207D103437F
:100B60003370BFF35F8F2C608CF3108870BD100062
:100B700001F05EFD2C0100D00021044B044ABFF3BC
:100B80005F8F02C39342FAD17047C046000100D084
:100B9000800100D0044A1078431CDBB2172B00D927
:100BA000102313707047C046980100200123834032
:100BB000002904D0034A1360034A13607047034AB4
:100BC0001360FBE780E200E000E100E080E100E08C
:100BD000024B10309B688000C058704700ED00E069
:100BE00070B50D00EFF3108672B60F4A1368002B34
:100BF000FCD0BFF35F8F0D4B10309B6884001B59F6
:100C00000B4A934203D09D4201D001F029FD074BCE
:100C10009B681D51BFF35F8FBFF35F8F0022024BB4
:100C20001A6086F3108870BD240100D000ED00E04A
:100C3000CD010010F0B557464E46DE464546E0B5BC
:100C400085B0060002911700EFF3108B72B6674A69
:100C50001368002BFCD0BFF35F8F0025644B5D57FA
:100C60009A46002D00DAA4E06B00624C03935B19F6
:100C70009B009846A146C1444B4652469B7910368C
:100C800013705D4BB2009B68019299580B1B2F2B80
:100C900034D95A4B994200D0A4E0039B584A9C4651
:100CA000584B6544AD006353434602336519E4185D
:100CB000554B0121043B1B1B1B055B0D13436B8034
:100CC000524BEF71AB80FF23AB71029BAB604B4685
:100CD0000B431900484B019A9B689950BFF35F8FF3
:100CE000BFF35F8F0022414B1A608BF3108805B071
:100CF000F0BCBB46B246A946A046F0BD01200A00A2
:100D00008243D379BB422FD845464E461300404913
:100D10001B1B5B415943090D3A4B63533A4B023558
:100D20006519043B5B1B1B05354D5B0D2B43738025
:100D30000426B446E0444444131F1B1B4C46A171D7
:100D400002991B05A16049465B0D2B43A380314BE3
:100D5000E77101431360BDE75800C01880002018F8
:100D6000C679BE422BD902000623D356002BF3DAF4
:100D7000101D82462848804604267642B446E14447
:100D800050464E46361A3005400D824656461C489F
:100D9000957106439680039A944665441D4AAD00BA
:100DA000641922604246A371029BA280E771A3608E
:100DB00090E701F055FC002553465D5754E7101DA0
:100DC000824690884005001584464046D4446646D5
:100DD00004302018301AE0260005400D360230435A
:100DE0008046C9E701F03CFC57E7C046240100D02B
:100DF000090F00209C01002000ED00E0CD01001053
:100E000000E0FFFF00A1FFFFCC01002001BDFFFFBC
:100E1000AAAA00000148804701BD0000F0B5DE46E7
:100E200057464E464546E0B50C0083B0EFF31089B7
:100E300072B6584A1368002BFCD0BFF35F8F564B35
:100E40009A68030010339F00D559544A9046954242
:100E500032D0A54243D0524EAA1B2F2A2CD80122B1
:100E60008240924651464F4A1268114001915146C4
:100E70004D4A1160BFF35F8FEFF305829346002A5E
:100E800033D101232A009A4393689C4208D177E02A
:100E90004B005B189B00F3189968A1422AD01A00F6
:100EA000062151560029F3DA019B002B19D0524636
:100EB0003E4B1A603B4B1A60374B9B68DD51BFF3CA
:100EC0005F8FBFF35F8F0022324B1A6089F3108867
:100ED00003B0F0BCBB46B246A946A046F0BD150023
:100EE000EAE75246304B1A60E6E79342C9D001F078
:100EF000B7FBC6E706215956002921DB4A005018E6
:100F0000800034188046A0689860E079D871062087
:100F100020569871002824DBA488F01A6405241553
:100F200044440019E0240005400D24022043988029
:100F300052181F4B9200B6181A781970B271B3E7A5
:100F4000594600290FD1FF3191711A4991801849F2
:100F50000A789A71184A9B1B5B415A43120D0A701A
:100F6000A2E71648E3E7164A1649D21A083A500291
:100F7000400D01439980144952080A43DA8093E7EF
:100F80000621515613000029B8DA5A46002AEAD140
:100F90004546DCE7240100D000ED00E0CD01001063
:100FA0009C01002000E100E080E100E080E200E040
:100FB000090F002001BDFFFFAAAA000001BD00002B
:100FC000D601002000F0FFFF00F8FFFF70B5EFF33F
:100FD000058101240443EFF3108C72B6214A136893
:100FE000002BFCD0BFF35F8F1F4B05001F4AED1A8B
:100FF0006D416A43120D1E4D8900AE6852B276589B
:10100000A6421CD00621595691421CD01221595695
:10101000914222D01E215956914220D02A21595660
:101020000324914210D0134B19781A708171BFF3C9
:101030005F8F00220B4B1A608CF3108870BDAB6879
:101040000D4C5C50EFE700246100091989005B1822
:10105000FF21997109499980E5E70124F4E7022409
:10106000F2E7C046240100D09C010020AAAA00009B
:1010700000ED00E0090F0020CD01001001BDFFFFD1
:10108000054B064A1360064A136053609360D360B1
:1010900013615361936170478080808000E400E0B9
:1010A00004E400E0024B9C46614489000160704703
:1010B0004000003410B50400FFF76CFD0100200073
:1010C000FFF7F0FFFF232371BFF35F8F10BDC04612
:1010D00010B50400FFF75EFD01002000FFF7E2FFFE
:1010E000FF23A380BFF35F8F10BDC04683680B480A
:1010F00010B5844661446244090112019A185918D6
:1011000054684B6801209C4201D802D00020C0B234
:1011100010BD12680B689A42F9D8F7E7FFFFFF0F7E
:1011200010B508000B690C009847002802D0206811
:10113000616810BDE06000210020FAE70A4B1968E1
:10114000EFF3108072B60A68002AFCD0BFF35F8FFD
:101150001B68BFF35F8F00221A6080F3108840BFC6
:10116000002000217047C046F00E0020F8B5574619
:101170004E464546DE46E0B599460CAB1C780DABB5
:101180001B78060090469A460768002C11D1BC7B5C
:10119000002C42D065003B682D19033D59194B784E
:1011A000BB73002B00D1FB7300238B704B700B7053
:1011B00004E065003B682D19033D5919B2682A4BBC
:1011C00094464246E3181B0163441A604A465A603B
:1011D0000A9A9A600B9ADA6000238B704B700B703E
:1011E0007B7B9B46002B2BD022005946B8687B683E
:1011F00098473A68002816D05B4658465B005B4427
:101200005519033BA870D118D35C002B00D06B702C
:101210005B460C707B73A34513D0F0BCBB46B24653
:10122000A946A046F8BD5B465B005B44033BD31870
:101230009C705119525D002A00D05A705B460B70A9
:101240007C7342464B46307D00F0E6FC051E06D01E
:101250005346002B03D12100306800F007FF0E9B9E
:10126000002BDAD01D70D8E7FFFFFF0FF0B5DE4688
:1012700057464E4645460023E0B58BB00893664B73
:101280008200D45800239B46099000F065FC6268F8
:1012900006000F00EFF3108572B61368002BFCD028
:1012A000BFF35F8F23689C465B7B9946002B68D019
:1012B000A2685A4B90464B441B01984443461A6817
:1012C0005B6810001900801BB941002963DD099893
:1012D00000F0A2FC00230022984600230692079308
:1012E00000239A466368BFF35F8F5A461A6085F3FE
:1012F00010885346002B08D10028C6D10BB0F0BC93
:10130000BB46B246A946A046F0BD089B414618021E
:101310004B461843D047626806000F00EFF3108574
:1013200072B61368002BFCD0BFF35F8F002F4FDB2A
:1013300033003B4302D02369002B60D12368D97B63
:10134000002907D04A00521819688C464946624461
:10135000033A51709A7B002A01D14A469A734A4651
:10136000DA734B46E168013BCA5C0132CA545B4602
:1013700023616368BFF35F8F5A461A6085F3108854
:1013800083E7002300229846002306920793002358
:1013900000209A46A6E7002901D1002897D1002114
:1013A000604600F0E1FD43461A685B6806920793C9
:1013B00043469B689A464346DB689846E3684B443D
:1013C000013B1B7808931B0203432361002089E73C
:1013D0002369002BB2D0069A079B921BBB41002BBE
:1013E00015DB59460491012103914946029141467A
:1013F0000191514620000091FFF7B8FEB7E700F0D9
:10140000ABFB32003B0012184B41002BE9DA012202
:10141000034B5242E5E7C046C80E0020FFFFFF0F16
:10142000FFFFFF7F10B5144C6368002B04D00A2126
:101430001248FFF737FE10BD2300114A1021206823
:1014400000F0ACFC032000F07BFB032000F054FC18
:1014500003200C4900F09AFBFFF79CFB0A4B9C46CB
:1014600003232375D0231B061B6860446375074B59
:1014700080006060DC60DAE7E4010020F00E00200C
:10148000ED1000106D12001040000034C80E002056
:1014900000487047E4010020F0B557464E464546E7
:1014A000DE46E0B585B0019310AB1B7806000393D0
:1014B00000239A46984600927268EFF3108972B63C
:1014C0001368002BFCD0BFF35F8F3568AC7B002C1A
:1014D00049D067002B683F19033FDB195A78AA737C
:1014E000002A00D1EA73B168484A8C4600980199F5
:1014F000A21812016244106051600E9991600F9918
:10150000D16042469A705A701A706B7B9B46002BD2
:1015100045D022001900A8686B6898472A680028FF
:1015200030D05B4658465B005B44D719033BB8702C
:10153000D118D35C002B00D07B705B460C706B73B2
:101540005C452DD0F3681B19013B18787368BFF315
:101550005F8F42461A6089F310885346002B2CD1C6
:101560000002204307E07368BFF35F8F1C6089F3BC
:1015700010880120404205B0F0BCBB46B246A946E7
:10158000A046F0BD5B465B005B44033BD3189C70F8
:10159000D119D25D002A00D05A705B460B706C7373
:1015A000307D009A019B00F037FB82460028C9D0AD
:1015B0002100306800F05AFDC4E7039B002B23D0C4
:1015C0000E9B00200F999847030004000D000B4369
:1015D0001AD000290ADA009A019B121BAB41009233
:1015E0000193002B0ADB039B9A4665E700F0B4FAEF
:1015F00024184D4100940195002DF4DA0123044C88
:101600005B4200930194EEE70020B4E7FFFFFF0F79
:10161000FFFFFF7F70B542680400EFF3108572B6DC
:101620001368002BFCD0BFF35F8F2068CEB2437BE2
:10163000B3420AD0FF230B405A00D31802689446E5
:101640006344033B9B78002B13D0E268FF2394464E
:101650000B406344013B0A0A1978D2B291420ED082
:1016600000206368BFF35F8F00221A6085F3108843
:1016700070BD22698A42F3D100202361F1E7310075
:1016800000F0F4FCEDE7C046F0B54E464546DE46B8
:101690005746E0B585B010990500894611001943F9
:1016A00000D1D8E0D81704005440260004005C4064
:1016B00001002700361A8F4149460E980A600F9A9A
:1016C0008D6008614B604A6100F046FA80197941EB
:1016D00000900191002900DAC7E00023A8469B464C
:1016E0001F0043465A68EFF3108A72B61368002B46
:1016F000FCD0BFF35F8F43461E68B47B002C00D143
:1017000085E063001B19033B1A009446039333687A
:1017100063445A78B273002A00D1F2734146896853
:10172000564A8C4600980199A21812016244106032
:101730005160534991604946D1605A469A705A7037
:101740001A70757B002D00D176E022002900B06868
:10175000736898473268002863D003996B005B195F
:101760005118033B8D70D018D35C002B00D07AE069
:10177000047075733E00AC425FD043464246DB685E
:1017800052681B19013B1B78BFF35F8F59461160EC
:101790008AF31088002E0CD101261B021C434B46F5
:1017A0003000DC6005B0F0BCBB46B246A946A0469E
:1017B000F0BD4846036998470700031E01D1002485
:1017C000EDE74A461468556822002A4353D0002D9D
:1017D0000EDA009A019B121BAB4100920193002B81
:1017E00000DB7EE70123274C5B420093019478E7FE
:1017F00000F0B2F924184D4100940195002D00DB52
:101800006FE701231F4C5B420093019469E75B681B
:10181000BFF35F8F1C608AF31088012400266442A6
:10182000BDE76B005B19033B0398D3189C7011183C
:10183000125C002A14D10D7074734346187D009A0F
:10184000019B00F0E9F9061E97D043462100186875
:1018500000F00CFC91E701260027012200232BE772
:101860005A700D70E8E74B7082E70123054C5B422C
:101870000093019431E71E00002490E7FFFFFF0F63
:1018800021110010FFFFFF7FF0B5C646C3680400BA
:1018900000B50020002B02D180BCB846F0BDA56881
:1018A0006968EFF3108672B60A68002AFCD0BFF3AD
:1018B0005F8F2868D9B2427B8A4224D0FF221A4027
:1018C0005700B84607689044BC4647466744033F04
:1018D000BF78002F12D0EF681B0ABC466244013A61
:1018E0001278DBB29A4211D000206A68BFF35F8F92
:1018F0000023136086F31088E360CDE72A699342E2
:10190000F2D12F61F0E7FF221A40E4E700F0AEFBCE
:10191000EBE7C046F0B504000D0006267642F71747
:10192000C64636196F4100B584B08F4214D811D025
:1019300000F012F932003B00121A8B41002B15DC2B
:10194000002B3ED02000290000F010F904B080BC2C
:10195000B846F0BD8642EBD90026002700F0FCF81F
:1019600032003B00121A8B41002BE9DD0023029369
:101970000193154B3200009314483B00FFF78CFD98
:101980000028DFDB00239846BC46114A114F7B6AD2
:101990009C4504D8B96A8E42D4D99C45D2D11168ED
:1019A000EFF3108072B60B68002BFCD0BFF35F8F93
:1019B0001368BFF35F8F4146196080F3108820BF22
:1019C000E5E7002ABED0D1E73D110010E401002078
:1019D000F00E00200040054070B5060000F0BCF895
:1019E000FA2204000D00002330000021920000F0D4
:1019F00045FF00196941002902DBFFF78BFF70BD2D
:101A0000012001494042F8E7FFFFFF7F70B5EFF387
:101A1000058305000C0084B0002B0AD0164A002074
:101A2000536A9C4203D8926A0130AA421FD304B081
:101A300070BD124E02930193114B020000933000CF
:101A40000B00FFF729FD011EE8DD20BF3000FFF786
:101A5000E1FD094B0020596A8C42E8D89B6A0130AD
:101A6000AB42E4D2641A631E9C41E0B2DFE7E41AA1
:101A7000631E9C41E0B2DAE700400540E40100202B
:101A80003D110010F0B5EFF30582D6464F464646AD
:101A90001000C0B51038EFF3108872B6214C2368DF
:101AA000002BFCD0BFF35F8F0123190081401E4D36
:101AB0001F006963AA461D4D29601D4D2E78AC4656
:101AC0003500C5402F402B4209D1BFF35F8F2760FF
:101AD00088F31088E0BCBA46B146A846F0BD53462C
:101AE000144D5F6A83005D59AF420ED3124A8E4394
:101AF0009B5862461670BFF35F8F0022226088F306
:101B00001088002BE6D09847E4E70C4B92009C46E7
:101B1000624413681360BFF35F8F0023236088F370
:101B20001088D7E7280100D0004005403C700540F0
:101B30000A0F0020F40E0020140E0020D03F0540B4
:101B400010B50100024A0348FEF7F4FF10BDC0467D
:101B500094360010080F0020034B596A0A00986A57
:101B6000596A8A42FAD1704700400540064A536AD2
:101B70009942FCD807D1044B02E05A6A914202D143
:101B80009A6A8242F9D370470040054070B504005C
:101B90000D00EFF3108672B61A4A1368002BFCD0C2
:101BA000BFF35F8F002D1BD02000FFF711F81649FF
:101BB00081420AD02000FFF713F801212000FEF730
:101BC000F5FF0123A340114A1360114BA400E55017
:101BD000BFF35F8F00220B4B1A6086F3108870BD35
:101BE0000B4BA200D5500122A2400A4920000B78DD
:101BF00093430B700449FFF711F900212000FEF711
:101C0000D5FFE5E7280100D0851A001038600540AF
:101C1000140E00200A0F0020F0B54F46D646464667
:101C2000C0B507002F4C616A0D00A66A616AA9421F
:101C3000FAD18B4208D805D00120E0BCBA46B146A3
:101C4000A846F0BDB242F7D9EFF3108A72B6264823
:101C500001680029FCD0BFF35F8F0125BD402349F7
:101C6000204C8846097889462943C9B28C464146AA
:101C700060460870391D1E48890065630A51B90025
:101C80000B50216A0020294219D0616A0800A66A17
:101C9000616A8142FAD18B4219D801D1B24216D879
:101CA000CC451DD00F4B1F201D625D6301230740F3
:101CB000BB40104A1E38136043464A461A70BFF3B1
:101CC0005F8F0022084B1A608AF31088B5E7002066
:101CD000BFF35F8F0022044B1A608AF31088ACE7D1
:101CE0000120ECE700400540280100D00A0F002049
:101CF000F40E002080E200E0EFF3108C72B60A4987
:101D00000B68002BFCD0BFF35F8F01238340074A91
:101D10000748136202789A430270BFF35F8F002373
:101D20000B608CF310887047280100D000400540FC
:101D30000A0F002070B5050014001600002915D008
:101D40000C00002A12D080686B6898472968002828
:101D50000ED073009B196200033B1219CB18033A93
:101D60009C7088188A5C002A15D10670200070BD0E
:101D700063001B197200033B9219CB18033A9E7043
:101D800088188A5C002A02D104703400EEE75A7089
:101D900004703400EAE75A700670E7E730B58360F4
:101DA0000023CCB243730133047342608373C47362
:101DB0000D000068012C06D9421C0133DBB2137000
:101DC00003329C42F9D1FF2129404B0059180023CE
:101DD00040180338437030BDF8B5CE46474606007C
:101DE0000C0080B5002907D04D0003686D18033D35
:101DF0005A195778002F04D12000C0BCB946B0460C
:101E0000F8BD7900C9190339884643445978894691
:101E100000215970517073683A002100806898471A
:101E20003368002814D042469A18947059195B5DA3
:101E3000002B00D053700F70270049463000FFF789
:101E4000CBFF390002003000FFF774FF0400D3E736
:101E5000424641465D19AF709A185B5C002B00D07A
:101E60006B701470E9E7C046F0B557464546DE464C
:101E70004E46E0B50D006B0001685B19DF1E0400E3
:101E8000C85D83B00192CA19002850D043001B18C6
:101E9000033BCB185E78B446002E1AD1019E002E6B
:101EA00042D0E67B002E04D073009B19CB18033B75
:101EB0005D70A37B002B00D1A573E57300282FD1A3
:101EC0000023537003B0F0BCBB46B246A946A046FF
:101ED000F0BD72006244033A89184A7890460022A5
:101EE0004A7091465A70010032002000FFF722FF2D
:101EF00043468246002B07D05B0021684344033BE6
:101F0000CB185A78002A16D1424651462000FFF7D6
:101F100011FF2168019BCA19002BC2D10028CFD024
:101F200043001B18033BCB1800219970C8E7019BA5
:101F3000002BB6D1C4E75000801803380918487840
:101F4000834648464870587041462000FFF7F2FE2D
:101F5000594680462000FFF73FFF4146020020001F
:101F6000FFF7E8FE8046CFE7F0B557464546DE4628
:101F70004E46E0B583B00191457B04006B000068DC
:101F80005B19DF1EC15DC219002952D04B005B18DE
:101F9000033BC3185E78B446002E1CD1019E002E70
:101FA00044D0E67B002E04D073009B19C318033B7A
:101FB0005D70A37B002B00D1A573E573002931D19F
:101FC000002328005370617303B0F0BCBB46B246D7
:101FD000A946A046F0BD72006244033A80184278D8
:101FE00090460022427091465A7020003200FFF75E
:101FF000A1FE43468246002B07D05B002168434484
:10200000033BCB185A78002A17D14246514620008C
:10201000FFF790FE019B01002068C219002BC0D180
:102020000029CDD04B005B18033BC31800209870EB
:10203000C6E7019B002BB4D1C2E7500080180338DB
:102040000918487883464846487058704146200031
:10205000FFF770FE594680462000FFF7BDFE41465F
:1020600002002000FFF766FE8046CEE770B5040050
:1020700000292CD0437B8B422ED0056848004018A5
:10208000033828188278002A21D053009B18033B7C
:10209000EA5CEE188A4202D11BE0002A08D0530005
:1020A0009B18033BEB185A788A42F6D142785A7053
:1020B00000230122837043702000FFF7D5FE617B6F
:1020C00002002000FFF736FE6073012000E00020D0
:1020D00070BD43783370EBE701221900FFF7C4FEAF
:1020E00060730120F4E7C04670B5040006200D00BF
:1020F00000F08CF92900C00000F03AFBC30906D0BB
:10210000104A934215D900230F4D104A01E0402593
:10211000012280206262A362002380012C340443E8
:102120002360062000F072F92900800000F020FBF7
:1021300070BD7F221040013040089D011A002D180B
:102140000300E6E7FEFF0000C0FF3F00FFFF0000C6
:1021500030B50C2083B000F0B7F9FEF7E3FC00289F
:102160000ED0944B944A1A605A609A60DA601A61F1
:102170005A619A61DA611A62904A5A6203B030BDBC
:102180008F4CA06700F0A8F901228E4B1A60636C97
:10219000012BFCD103228C4B1A60894A936B012BD3
:1021A000FCD101330121894A89480093043300F0AE
:1021B00033F90523874A00930121874800F02CF961
:1021C000864B5A68FF2A02D8802252005A60802229
:1021D000784C7D4B21691201804D1A60002905D091
:1021E000606900F0C5FA01300138FDD1E0217B4B78
:1021F00002201A681140802252012A431160196896
:10220000484003210140116004219A681142FCD02A
:102210008022802192012A4309011160802252000C
:102220005A606F4B23616F4B5968FF2900D85A6081
:102230000321644A6B4B116002399A681142FCD049
:10224000E0201A681040802252011A43106018687A
:102250004840032101400220116062498A6810420F
:10226000FCD0802292011343802212011A60802246
:102270005D4B52004A6063615C4B5968FF2900D88E
:102280005A6080225A4BE1691201584D1A600029A8
:1022900005D0606900F06CFA01300138FDD1E02210
:1022A00052490B681A4080235B012B431A6080233C
:1022B00080229B012B4312011A6080223E4B520068
:1022C0004A60E3614B4B5968FF2900D85A6080226D
:1022D000494B216A1201474D1A60002905D06069F7
:1022E00000F046FA01300138FDD1E02241490B6887
:1022F0001A4080235B012B431A60802380229B01BC
:102300002B4312011A60802380225B004B602A4B12
:10231000D2022362394B5968914200D25A6080221E
:10232000374B616A1201354D1A60002905D060698A
:1023300000F01EFA01300138FDD1E0222F490B6870
:102340001A4080235B012B431A60802380229B016B
:102350002B4312011A608023DB024B60174B636230
:10236000284B5A68FF2A02D8802252005A608022E5
:10237000254BA1691201234D1A60002905D060691F
:1023800000F0F6F901300138FDD1E0221D490B685B
:102390001A4080235B012B431A60802380229B011B
:1023A0002B4312011A6080235B004B600E4BA3612C
:1023B000E4E6C0464C0E0020006CDC021BB70000B7
:1023C000008000403CB0004030B00040002F685911
:1023D00000800240008C864700C0024030800040F0
:1023E000001BB7003C8000404059730754800040F8
:1023F00054B000406080004060B000406C800040FD
:102400006CB000404880004048B00040014B800064
:10241000C05870474C0E0020F0B5C646040000B509
:102420000C2090461F000E0000F0A2F94101091A8D
:102430008D01691AC90009188901404600F098F910
:10244000069B3F041A0323681743002B22DB1A4B19
:102450001A4DE21853425A4180235B019C461203F5
:10246000174B62441A60174B1A601100AB6899430E
:10247000FBD1C022231D92011A4321232660A060B4
:1024800013602368002BFCDA0823E760136080BC2C
:10249000B846F0BD3F2322681340B342D7D1A368AA
:1024A0001B051B0D8342D2D1EE22E368D2021340FA
:1024B000BB42CCD1EBE7C0460040FDBF00C00040AE
:1024C00000E0004000F000408023024A9B000343EC
:1024D000D362704700800540AA23064A1B0113609F
:1024E0002F230549D360054B19605368002BFCDA94
:1024F0007047C0460040024000B0FA000060024051
:102500002C4B2D4A70B51A602C4A2D4B2D491A6060
:1025100014008B689C43FBD12B4D2C4EB54208D246
:10252000013E761BB60808CD984723000134B3421C
:10253000F9D1FFF70DFE264A214B1A60214A936814
:10254000DB43DB01DD09002BF9D14022214B224C7A
:10255000224E9A675A671A67DA66B44208D223682D
:102560002000002B20D00834FEF7B2FDB442F6D391
:102570001B4E1C4CC022A168300000F005FAA6607A
:10258000FEF7FAFAFEF77CFDFEF74CFF164C174EED
:10259000B44208D2013E361BB60808CC98472B003F
:1025A00001359E42F9D170BD0834FEF783FDB44277
:1025B000D5D3DDE700E00040BFCDFBFEFE7F3C0051
:1025C00000F0004000C00040780A0020880A002087
:1025D000FFFFFF0100F00140700A0020780A002090
:1025E0000000002000ED00E0880A00208C0A002096
:1025F00000BEFDE7094A03001068002805D008491D
:10260000C3188B4207D81360704706480449C318A3
:1026100010608B42F7D901204042F5E7C00E002040
:10262000000004200C0F002010B5FFF7E1FFC046AA
:102630000FB400B5084883B000F0D8FA049B002B13
:1026400007D005A91800019100F018F8034800F020
:10265000CDFA0120FFF7CCFFB8360010C8360010C5
:1026600010B50148FFF7E4FFCC36001010B5002884
:1026700000D110BD00F06EFAFBE7C04610B5094A64
:102680000300146884B0002C08D001220091064891
:10269000524203A9A047012004B010BD00F0A6FAE1
:1026A0000020F9E7C40E00206D2600100148042127
:1026B000014B184710020020DD260010142310B52E
:1026C0000100188804331B88984710BD162310B5E5
:1026D0000100188802331B88984710BDF8B547469B
:1026E000CE4680B50F1E19D014239946043304003A
:1026F0000025012698464B461888434621681B88CA
:10270000984701C4431E9841013540420640AF42FC
:10271000F1D13000C0BCB946B046F8BD0126F8E79B
:10272000124A936F9B0815D29066D166002905D096
:10273000FFE7FFE7FFE7516F106F704704B5802197
:102740000906C2175140002800D0C84300F054FFCA
:10275000002104BDF0B5146E556E576F166FFFF76C
:10276000E3FF1466556657671667F0BD000000D09A
:10277000114A936F9B0813D210665166002905D049
:10278000FFE7FFE7FFE7516F106F704704B50028C0
:1027900001D00020C04300F02FFF002104BDC0463F
:1027A000F0B5146E556E576F166FFFF7E5FF1466A0
:1027B000556657671667F0BD000000D0132370B54B
:1027C0001D78012D15D010DD1C48FFF77FFF1C4C34
:1027D00001008022200000F0D7F8022D06D0194811
:1027E000FFF76CFF184B186070BD154C174BA364B6
:1027F000F5E7164B124C23606360A360E36023612E
:102800006361A361E36123626362A362E3622363A2
:102810006363A363E36323646364A364E364236582
:102820006365A365E36523666366A366E366236762
:102830006367A367E367A364D1E7C046534400001E
:10284000C00B00204C330000EC0E0020512800107B
:1028500007B5604601880A0A0230DF2AFAD1C9B2F8
:10286000820804D3028840880004104300E0006816
:10287000014A5050039007BDC00B00205143434311
:10288000C9188C46110C83B24B4310B4040C61433D
:1028900092B280B2504362431C041B0C001910BC5E
:1028A00059411304120CC018514161447047000093
:1028B000132310B512481C78FFF708FF0100012C04
:1028C0000AD003DD80220F4800F05EF80E48FFF7C3
:1028D000F5FE0E4B186010BD0A4C5422200000F08B
:1028E00053F80B4B6365A365E36523666366A366D4
:1028F000E36623676367A367E3672362E361E5E752
:1029000053460000C00C00204C330000EC0E0020A9
:102910001529001007B5604601880A0A0230DF2A2F
:10292000FAD1C9B2820804D3028840880004104357
:1029300000E00068014A5050039007BDC00C002021
:1029400010B50C0000F070F9002804D0034B0419F6
:102950009C4200D810BD0248FFF76AFE0000042028
:10296000D836001010B500F0BFF910BD01480421A1
:10297000014B184720020020DD260010014B1B6888
:102980001847000020020020014B5B681847000038
:1029900020020020030010B5080011001B689847B2
:1029A00010BDC046F0B546464F46D646C0B5437D3D
:1029B00080460E001700002B46D0002A3FDD4B1E3C
:1029C0009946244B0125002400209A460DE04B46F1
:1029D0001B5D0D3B5A425341325DDBB20A2A0BD0DC
:1029E0002B00013401359F421ADD002CEFD1434604
:1029F000325D1B7D0A2AF3D1002BF1D1A04204DA0B
:102A00004346211A1B6830189847434650461B68B6
:102A100002219847013428002B0001359F42E4DC55
:102A2000874204DD4346391A1B6830189847F61967
:102A3000013E33780D3B5A42534142461375E0BC88
:102A4000BA46B146A846F0BD036811003000984769
:102A5000F5E7C0469C370010F0B5DE4657464E46B7
:102A60004546E0B585B017001C0006000D00FFF7D5
:102A700073F80023304A12184B41002B58DB2F49C2
:102A800008008A4600F0C0FD01906B1C03D13000A5
:102A900000F046FC0500002C25D1294B9846294B17
:102AA0001C68002C15D0002F20D1274F02E024698C
:102AB000002C0ED02368002BF9D03B68002B01D0EE
:102AC000A342F4D120002A003100C0472469002C21
:102AD000F0D1019B002B27D105B0F0BCBB46B2461C
:102AE000A946A046F0BD194B9846D8E7164B994623
:102AF00002ABDF1D0A239B4602E02469002CE8D0CC
:102B00002368002BF9D04B461B68002B01D0A34251
:102B1000F3D12A0031002000C0475B460122390072
:102B200020003B70C047E8E7504600F05DFDD3E76A
:102B30000122074B5242A2E740420F00700A0020D8
:102B4000A5290010B40E0020BC0E0020952900100D
:102B5000FFFFFF7FF0B5CE46474680B583B06B469A
:102B60000600DD1D2870FEF7F7FF00231A4A121831
:102B70004B41002B2BDB19490800884600F044FD2F
:102B8000174B81461C68002C14D0164F02E02469B4
:102B9000002C0FD02368002BF9D03B68002B01D00C
:102BA000A342F4D1200001222900FFF7FBFE246993
:102BB000002CEFD14B46002B05D1300003B0C0BC38
:102BC000B946B046F0BD404600F00EFDF5E70122E3
:102BD000054B5242CFE7C04640420F00700A00202A
:102BE000B40E0020BC0E0020FFFFFF7F70B5040074
:102BF00000F096FB00230100050001222000FFF7F2
:102C00002BFF084B1C68002C06D06368002B05D0F6
:102C100098472469002CF8D1280070BD2469002C45
:102C2000F3D1F9E7B40E0020030010B50A00034900
:102C30000868190000F004F810BDC04630020020FA
:102C400070B50B0C0024150C002B28D1002D37D1AA
:102C50008BB291B2594300F051F8051E19D0030010
:102C6000083B5A6803239A43043A242A13D80300E2
:102C7000132A0AD90460446008331B2A05D98460EA
:102C8000C460242A25D00300103300221A605A6041
:102C90009A60280070BD0021FFF770FEF9E7002D53
:102CA00011D1151C89B292B24A43ADB29BB26B43AB
:102CB000110C5B18190C06D1190492B21143CAE722
:102CC0002B1C0D1CEEE700F009F80C230025036017
:102CD000DFE70300046118334461D6E7014B18684D
:102CE0007047C0463002002010B5034B0100186841
:102CF00000F092FB10BDC04630020020F0B54E46F9
:102D00004546DE465746E0B50D000B35060083B05C
:102D1000162D22D8102900D9B2E000F0B1FA102502
:102D200018230220CC4FFB181A005C68083A944222
:102D300000D1B5E0032362689A431300E268A168FA
:102D4000CA6091600122E318596830000A435A6052
:102D500000F09EFA2000083095E007239D4300D53F
:102D60008EE0A94200D98BE000F08AFAFC235B00D8
:102D70009D4200D2A7E1680A00D18BE0042800D967
:102D80007AE138239846A80980443930C100B24F0F
:102D900079184C680839A1420ED003239C4604E000
:102DA000002ACBDAE468A14206D062466368934306
:102DB0005A1B0F2AF4DD40463A003C69083294421F
:102DC00000D178E003236168994389460B00491BD1
:102DD0000F2900DD7BE17A613A610029B2DA8022B5
:102DE0009200914500D30FE15909DA0801238B4085
:102DF000D2007968D2190B4391687B60E260A160D0
:102E00009460CC60012182109140994259D80B42C4
:102E100005D103229043490004300B42FBD0032329
:102E20009846C3009946B944CC4682466346DC685E
:102E3000A44507D12CE1002A00DB35E1E468A44574
:102E400000D125E14246636893435A1B0F2AF2DD05
:102E500001208046611905436560A068E568083770
:102E6000C560A86040461043F960B9604860CF6013
:102E700030008F60E25000F00BFA2000083002E0D2
:102E80000C230020336003B0F0BCBB46B246A94619
:102E9000A046F0BD80213F2340209846890076E778
:102EA000DC680230A34200D044E73A003C690832B3
:102EB000944200D086E701217B68821091409942BC
:102EC000A5D90323BC6862689A439146954203D80A
:102ED000531B0F2B00DD89E023004B445F4A019315
:102EE0005F4B93461B681268EB18013200D13DE13D
:102EF0005C4A944663441B0B1B030093300000990B
:102F000000F0CEF903008046013300D1FAE0019BC6
:102F1000834200D9F4E0544B00981A009A46126894
:102F200003009446514663440B6001991A004145E1
:102F300000D151E15B461B68013300D156E14346A5
:102F400001995B1A9A1853461A6007234246414674
:102F50001A400192194200D112E108239846881ABA
:102F6000424B0099804441449B1A5B1A1B051B0D80
:102F70000091300019009B4600F092F9431C00D1EB
:102F800050E14346C01A03005B4400935346524647
:102F90001B6801215B44136042464046BA60009AB8
:102FA0000A434260BC4200D124E14A460F2A00D8BD
:102FB00022E107200C3A824360680140052011435A
:102FC0006160A118486088600F2A00D935E1424647
:102FD0004446526826490868984200D20B60254949
:102FE0000868984200D38FE00B608DE00122290031
:102FF00013431143651961603000BD606B6000F0E0
:1030000047F9200008303EE75A0A042A72D9142AE8
:1030100000D9C5E011005C325B31D20008235B426D
:103020009C46BA18944463469A680323984694458C
:1030300000D19EE0434651689943494502D99268C0
:103040009445F7D1D3689C467B686146A260E160F5
:103050008C60D460D6E6C04660060020680A002076
:10306000100E00200F100000E00D002008100000DE
:10307000080E00200C0E0020142852D9542800D924
:1030800096E06E239846280B80446F30C1007EE6A0
:1030900008239B46073BDC449B46DA4443465246A2
:1030A000134200D0C2E64CE00122E3185968300018
:1030B0000A435A60E368A268D3609A6000F0E8F8B7
:1030C00020000830DFE62B00E80808332AE6012359
:1030D00060191D43656078613861C26082601A00C2
:1030E0004B460A4342603000E15000F0D1F8200026
:1030F0000830C8E69A09110039323831D2008DE71C
:10310000BC4260D0BC68626803239A43531B95425B
:1031100002D80F2B00DD69E7300000F0B9F800207D
:10312000B1E65B23984680445C30C1002FE608235B
:103130005B429C46E1444B469B6801384B4500D0BE
:1031400098E043460342F2D17B688B437B604900A1
:10315000994200D9B5E6002904D1B2E6042294468A
:103160004900E2440B42F9D050465AE6103300932E
:10317000C4E68910023B8B4079680B437B6064E7AF
:10318000009B300043445B421B051B0D19009B460E
:1031900000F086F8431C00D0F3E600239B46F5E6DA
:1031A000542A2BD81A0B11006F326E31D20035E73A
:1031B000AA235B0098422BD8DD3B9846E80B80445D
:1031C0007830C100E3E52C4B009A9A461B689C4678
:1031D000534662441A60ADE6090500D0AAE6020033
:1031E000BC684A4401310A436260F3E65B464246EA
:1031F0001A60AAE64446EDE641608DE7AA2149003F
:103200008A4224D8DA0B110078327731D20005E7F0
:103210001A4B984224D87C239846A80C80447D30D1
:10322000C100B4E5009A019B94464246083B6344C2
:103230009B1A009300239B46A8E62100300008312A
:1032400000F0EAF85346BC681B686268C2E60B49A6
:103250008A420BD89A0C11007D327C31D200DDE617
:10326000FE217E237F209846890090E5FE227E2164
:103270009200D3E67B686AE7E00D00205405000069
:1032800010B5024800F0AAF910BDC046DC0D0020C0
:1032900010B5024800F0A4F910BDC046DC0D0020B6
:1032A000002370B5064D040008002B60FFF7A2F95B
:1032B000431C00D070BD2B68002BFBD02360F9E7C6
:1032C000B80E002070B50400830716D102680E4BBB
:1032D0000E4DD31893432B420FD142680A4B043052
:1032E000D31893432B4208D14268074B0430D318BC
:1032F00093432B42F1D000E001300378002BFBD147
:1033000000F006F8200070BDFFFEFEFE8080808089
:1033100003000A7801311A700133002AF9D170478D
:1033200010B583070AD00300032102E001330B42EA
:1033300005D01A78002AF9D1181A10BD03001968AF
:103340000C4A0D4C8A188A4322420FD15968094A07
:1033500004338A188A43224208D15968054A043343
:103360008A188A432242F1D000E001331A78002AF9
:10337000FBD1E1E7FFFEFEFE80808080F8B50C0007
:103380000500FFF77DFF204FBB685E6803239E4367
:103390001E4B341B9C466444240B013C1133240314
:1033A0009C4207DB00212800FFF77AFFBB689B19CE
:1033B000984204D02800FFF76BFF0020F8BD2800DA
:1033C0006142FFF76DFF431C0DD00122BB68361B25
:1033D00016435E600E4B28001A68141B1C60FFF732
:1033E00057FF0120EAE700212800FFF759FFBA68DC
:1033F000831A0F2BDEDD07490968401A044908606B
:1034000001210B435360D5E760060020EF0F000059
:10341000E00D0020680A0020F0B5C64605000C004B
:1034200000B500294FD0FFF72BFF210008394C6869
:10343000012622000320B2438F187B688343624831
:1034400098468368BB426AD043467B6026421ED1C1
:1034500008239C460C688444091B12198C68644537
:103460004FD0CB68E3609C604346FC1864683442EC
:1034700011D1BB68554C4244A34200D17EE0FC68A8
:10348000DC60A360012313434B608A5006E0FC1804
:1034900064683442EDD016434E603A6080239B004E
:1034A0009A4213D25409D3080122A2404468DB0097
:1034B0002243426018188368C8608B608160D960BD
:1034C0002800FFF7E5FE80BCB846F0BD530A042B88
:1034D0003ED89409260039343836E40004192368AC
:1034E000083C03279C4242D05868B843904202D916
:1034F0009B689C42F8D1DC68CC608B60A160D9608D
:10350000DEE74346F8184068304257D1FB68B86898
:1035100042441643C36098604E608A50D0E713005F
:103520004344264206D10A68891A8C689B18CA68E7
:10353000E260946001221A434A60254A8160126861
:103540009A42BDD8234B28001968FFF717FFB7E749
:10355000142B07D9542B1AD8140B26006F346E364F
:10356000E400BBE71E005C335B36DC00B6E70122FB
:10357000B610B240466832434260BDE7D9609960F8
:10358000CB608B60012313434B608A5098E7AA24D9
:103590006400A34205D8D40B260078347736E400C3
:1035A0009CE70D4CA34205D8940C26007D347C3654
:1035B000E40093E7FE247E26A4008FE73300134344
:1035C0004B603A607CE7C046600600206806002039
:1035D0006C0A0020100E0020540500007047C04601
:1035E0007047C046F8B5C04601B40248844601BCE5
:1035F000604700BF5D01002001B40248844601BC61
:10360000604700BF8501002001B40248844601BC28
:08361000604700BFC10000206B
:103618007A797877767574737271706F6E6D6C6B7A
:103628006A69686766656463626139383736353454
:1036380033323130313233343536373839616263B9
:103648006465666768696A6B6C6D6E6F70717273BA
:103658007475767778797A00203C2D2D0A0D000054
:10366800202D2D3E0A0D00000A0D48656C6C6F2C4C
:103678002075617274210A0D0000000048656C6CA9
:103688006F2C20646D61210A0D000000486172648E
:103698007761726520616C61726D20256420616CB0
:1036A800726561647920636C61696D65640000000E
:1036B8000A2A2A2A2050414E4943202A2A2A0A0047
:1036C8000A000000486172642061737365727400B7
:1036D8004F7574206F66206D656D6F7279000000FC
:1036E80052656C6561736500626F6F74325F773223
:1036F800357130383000000068747470733A2F2FB9
:103708006769746875622E636F6D2F72617370627A
:103718006572727970692F7069636F2D6578616D54
:10372800706C65732F747265652F484541442F731B
:103738006572766F5F70776D00000000312E352E50
:10374800300000007069636F0000000073657276D6
:103758006F5F70776D0000004A756E20313320323C
:103768003032330006005250BBFF3CB64C370010D5
:10377800060052509A23561800370010060052507F
:10378800E182887FF036001006005250D3F075426F
:08379800E83600100D0A0000E4
:1037A000AC020010A0020010940200106C37001050
:1037B000880200107837001084370010903700100E
:1037C000F0B5C646150000B504001E000268EFF310
:1037D000108172B61368002BFCD0BFF35F8F0423F7
:1037E000E356002B2DDB2268BFF35F8F00201060B3
:1037F00081F31088D0221206127852B290469A4273
:1038000003D1002080BCB846F0BD00270BE0236840
:10381000BFF35F8F1F6081F310882800310000F034
:1038200033F80028EDD12268EFF3108172B61368E7
:10383000002BFCD0BFF35F8F23797F2BE7D9434662
:1038400002E0D0231B061B6823712368BFF35F8F40
:1038500000221A6081F310880120D3E70268EFF399
:10386000108172B61368002BFCD0BFF35F8FFF236B
:1038700003710368BFF35F8F00221A6081F3108821
:1038800040BF70477047C04601B40248844601BC3F
:10389000604700BF0D1A001010000000000000007B
:1038A0000000010000000000000000000000020015
:1038B0000000000000000000000003000000000005
:1038C000000000000000FF000000000001B5486893
:1038D00001318E460047704609380149884701BDCD
:1038E000CD0F0010FC01002000000000A80A0020FD
:1038F000740E00200000000000000000840E002074
:1039000000000000000000001000000000000000A7
:10391000503300004C330000543300005233000099
:103920004D5300004D430000533400004334000069
:1039300038020020000000000000000024050020E4
:103940008C050020F40500200000000000000000AD
:103950000000000000000000000000000000000067
:103960000000000000000000000000000000000057
:103970000000000000000000000000000000000047
:103980000000000000000000000000000000000037
:103990000000000000000000000000000000000027
:1039A0000000000000000000000000000000000017
:1039B0000000000000000000000000000000000007
:1039C00000000000000000000000000000000000F7
:1039D00000000000000000000000000000000000E7
:1039E00001000000000000000E33CDAB34126DE684
:1039F000ECDE05000B0000000000000000000000ED
:103A000000000000000000000000000000000000B6
:103A100000000000000000000000000000000000A6
:103A20000000000000000000000000000000000096
:103A30000000000000000000000000000000000086
:103D60000000000000000000600600206006002047
:103D700068060020680600207006002070060020FB
:103D800078060020780600208006002080060020AB
:103D9000880600208806002090060020900600205B
:103DA0009806002098060020A0060020A00600200B
:103DB000A8060020A8060020B0060020B0060020BB
:103DC000B8060020B8060020C0060020C00600206B
:103DD000C8060020C8060020D0060020D00600201B
:103DE000D8060020D8060020E0060020E0060020CB
:103DF000E8060020E8060020F0060020F00600207B
:103E0000F8060020F8060020000700200007002028
:103E100008070020080700201007002010070020D6
:103E20001807002018070020200700202007002086
:103E30002807002028070020300700203007002036
:103E400038070020380700204007002040070020E6
:103E50004807002048070020500700205007002096
:103E60005807002058070020600700206007002046
:103E700068070020680700207007002070070020F6
:103E800078070020780700208007002080070020A6
:103E90008807002088070020900700209007002056
:103EA0009807002098070020A0070020A007002006
:103EB000A8070020A8070020B0070020B0070020B6
:103EC000B8070020B8070020C0070020C007002066
:103ED000C8070020C8070020D0070020D007002016
:103EE000D8070020D8070020E0070020E0070020C6
:103EF000E8070020E8070020F0070020F007002076
:103F0000F8070020F8070020000800200008002023
:103F100008080020080800201008002010080020D1
:103F20001808002018080020200800202008002081
:103F30002808002028080020300800203008002031
:103F400038080020380800204008002040080020E1
:103F50004808002048080020500800205008002091
:103F60005808002058080020600800206008002041
:103F700068080020680800207008002070080020F1
:103F800078080020780800208008002080080020A1
:103F90008808002088080020900800209008002051
:103FA0009808002098080020A0080020A008002001
:103FB000A8080020A8080020B0080020B0080020B1
:103FC000B8080020B8080020C0080020C008002061
:103FD000C8080020C8080020D0080020D008002011
:103FE000D8080020D8080020E0080020E0080020C1
:103FF000E8080020E8080020F0080020F008002071
:10400000F8080020F808002000090020000900201E
:1040100008090020080900201009002010090020CC
:10402000180900201809002020090020200900207C
:10403000280900202809002030090020300900202C
:1040400038090020380900204009002040090020DC
:10405000480900204809002050090020500900208C
:10406000580900205809002060090020600900203C
:1040700068090020680900207009002070090020EC
:10408000780900207809002080090020800900209C
:10409000880900208809002090090020900900204C
:1040A0009809002098090020A0090020A0090020FC
:1040B000A8090020A8090020B0090020B0090020AC
:1040C000B8090020B8090020C0090020C00900205C
:1040D000C8090020C8090020D0090020D00900200C
:1040E000D8090020D8090020E0090020E0090020BC
:1040F000E8090020E8090020F0090020F00900206C
:10410000F8090020F8090020000A0020000A002019
:10411000080A0020080A0020100A0020100A0020C7
:10412000180A0020180A0020200A0020200A002077
:10413000280A0020280A0020300A0020300A002027
:10414000380A0020380A0020400A0020400A0020D7
:10415000480A0020480A0020500A0020500A002087
:10416000580A0020580A0020FFFFFFFF000002004D
:1041700000000000000000006D290010AD260010B6
:0C418000BD270010B1280010E50200105F
:04000005100001E9FD
:00000001FF
