:020000041000EA
:1000000000B5324B212058609868022188439860DF
:10001000D860186158612E4B002199600221596106
:100020000121F02299502B49196001219960352056
:1000300000F044F80222904214D00621196600F024
:1000400034F8196E01211966002018661A6600F04E
:100050002CF8196E196E196E052000F02FF8012189
:100060000842F9D1002199601B49196000215960AB
:100070001A491B48016001219960EB211966A021F2
:10008000196600F012F800219960164914480160C1
:100090000121996001BC002800D000471248134993
:1000A000086003C880F30888084703B5996A0420EC
:1000B0000142FBD001200142F8D103BD02B5186610
:1000C0001866FFF7F2FF186E186E02BD00000240BE
:1000D000000000180000070000035F00212200005C
:1000E000F4000018222000A00001001008ED00E03C
:1000F00000000000000000000000000074B24E7A12
:1001000000200420F7010010C3010010C5010010F9
:10011000C1010010C1010010C1010010C101001097
:10012000C1010010C1010010C1010010C701001081
:10013000C1010010C1010010C9010010CB01001065
:10014000CD010010CD010010CD010010CD01001037
:10015000CD010010CD010010CD010010CD01001027
:10016000CD010010CD010010CD010010CD01001017
:10017000CD010010CD010010CD010010CD01001007
:10018000CD010010CD010010CD010010CD010010F7
:10019000CD010010CD010010CD010010CD010010E7
:1001A000CD010010CD010010CD010010CD010010D7
:1001B000CD010010CD010010CD010010CD010010C7
:1001C00000BE00BE00BE00BE00BE00BEEFF3058054
:1001D000103800BEF2EB887124560010445600100F
:1001E0003402001090A31AE700201F49086006C8D7
:1001F00081F3088810471D48006800282FD10DA4FE
:100200000ECC002902D000F012F8F9E71849194A7B
:10021000002000E001C19142FCD1174988471749ED
:1002200088471749884700BEFDE701C901C29A42C5
:10023000FBD3704744560010C0000020EC020020A1
:1002400070580010000004200000042070580010B6
:10025000001004200010042000000000704709482E
:1002600003F034F90047000008ED00E0000000D082
:10027000F0020020E80600204921001005030010CC
:100280000D2100105756000006005250ABB36053CA
:100290009055001006005250861C0302A055001015
:1002A000060052505422A29DA45500100500525041
:1002B000DE65F46870580010F8B5C04610B5064CFD
:1002C0002378002B07D1054B002B02D0044800E017
:1002D00000BF0123237010BDF003002000000000C8
:1002E00018470010044B10B5002B03D003490448F5
:1002F00000E000BF10BDC04600000000F403002075
:1003000018470010F0B5D6464F464646C0B500F037
:10031000DBF900F0B1F800F045F900F0B7F94F4C07
:10032000A2464F4B9946984602E0012001F030FA70
:10033000637A002BF9D0052001F02AFA00F0D6F9F3
:10034000D0231B06FC2212029A61012001F020FA40
:10035000444B1B68524652689A42E9D9424E662085
:100360000021424B20223E4DAC460D2515E09969F7
:100370000A42FCD1186007E099690A42FCD11D606D
:1003800099690A42FCD1186031780D3948424141DF
:10039000C9B201363078002807D00029E7D161467C
:1003A0000027C95F8142EBD1E6E72C4B58680A224F
:1003B0002F4904F009F903000078002823D01E001B
:1003C00000212A4B20220D2515E099690A42FCD113
:1003D000186007E099690A42FCD11D6099690A42D8
:1003E000FCD1186031780D3948424141C9B201361B
:1003F0003078002807D00029E7D141460027C95F9F
:100400008142EBD1E6E71B4E0A200021174B202248
:100410000D2515E099690A42FCD1186007E0996939
:100420000A42FCD11D6099690A42FCD118603178FA
:100430000D3948424141C9B201363078002807D011
:100440000029E7D149460027C95F8142EBD1E6E7A1
:10045000024B5A68034B1A606AE7C046D406002074
:10046000D0060020A40400201847001000400340DC
:100470009804002034470010F8B50221002000F055
:10048000A5F90221012000F0A1F9E1211E4C490249
:10049000200001F057FC236BC022120213401B4ABC
:1004A0001360E36A60225A406E231340184A1360B7
:1004B000184B2363E16A10238B431360164C4820CA
:1004C0000021114B2022154E0D2515E099690A4295
:1004D000FCD1186007E099690A42FCD11D60996956
:1004E0000A42FCD1186021780D3948424141C9B215
:1004F00001342078002806D00029E7D10027F15FD9
:100500008142ECD1E7E7F8BD0040034030500340A2
:100510002C5003400103000028470010D0060020A3
:10052000D0231B06FC2212029A611A490868421C59
:100530000A60D3179B1ADB0F0B72EF214900884228
:100540001CD9144900204872D020000601699B0183
:100550004B4040210B40C3610F4B9A4206DD0D4BCF
:10056000022252421A605A6801325A600B4B1A88B2
:10057000012393400A49A4228B507047054A012168
:100580005172D02109060A699B0153404022134051
:10059000CB61EBE7D406002015020000E006002046
:1005A00000000540F8B5324D04232B80314C0C334C
:1005B00063602E3322689A4313000C221343236096
:1005C000FA231B01A3600421082000F0FFF828880B
:1005D00083001A18920028498C4662440025156051
:1005E0009560D560A16811616368536023681360EA
:1005F000224C53200021224B2022224E0D3515E0A3
:1006000099690A42FCD1186007E099690A42FCD155
:100610001D6099690A42FCD1186021780D39484261
:100620004141C9B201342078002806D00029E7D121
:100630000027F15F8142ECD1E7E70D4B1A88930068
:100640009B189B000C4A9A1811680130884380213E
:1006500049010A4310600C4A944663441868F0222A
:10066000520042401204120C0B431A60F8BDC046FF
:10067000E00600208C0400200000054038470010F0
:1006800000400340D00600200C00054070B50A4D24
:100690002B88012421009940084AA423D1500849FD
:1006A000042000F07DF92B889C40064B1C60012142
:1006B000042000F065F970BDE00600200000054050
:1006C00021050010A820054070B5FC252D0228004A
:1006D00000F09FF8D02424066562062000F08EF812
:1006E00040236362A361A56170BD0000F0B5C646FA
:1006F00000B5314B1C68E405A30E984602222F4931
:10070000180003F061FF05000078002822D00021C6
:100710002B4B20222B4F0D2615E099690A42FCD164
:10072000186007E099690A42FCD11E6099690A4283
:10073000FCD1186029780D3948424141C9B20135D0
:100740002878002806D00029E7D10024395F8142AB
:10075000ECD1E7E71C4D0A200021194B2022194F4C
:100760000D2615E099690A42FCD1186007E09969E5
:100770000A42FCD11E6099690A42FCD118602978AE
:100780000D3948424141C9B201352878002806D0C8
:100790000029E7D10024395F8142ECD1E7E7D0227C
:1007A0001206116943469B024B40FC2109020B4093
:1007B000D36180BCB846F0BDD40600209804002068
:1007C00000400340D00600203447001010B58300DD
:1007D000084A944663441C6840226240C024144086
:1007E0008022520113431C60C000034B9C466044AE
:1007F000416010BD04C001400040014010B501231C
:100800008340D0221206936293610521FFF7DEFF39
:1008100010BD70B505000024012603E06D08013409
:100820001E2C05D02E42F9D02000FFF7E7FFF5E798
:1008300070BD0000024B18688007C00F7047C046AB
:1008400000C00640EFF3108072B6034A1368002B15
:10085000FCD0BFF35F8F70472C0100D0BFF35F8FD8
:10086000024B00221A6080F3108870472C0100D0E0
:10087000F8B505000C001600FFF7E4FFE308EF18D9
:10088000EA5C0721214001238B40134204D113432A
:100890003B70FFF7E3FFF8BD2100300001F0E6FCFC
:1008A000044B0021044ABFF35F8F02C39342FAD185
:1008B0007047C046000100D0800100D0064B187878
:1008C000431CDBB2172B02D8034A137002E0024B21
:1008D00010221A707047C04638020020074B9B68F0
:1008E00010308000C150BFF35F8FBFF35F8F044BA8
:1008F0000021196082F310887047C04600ED00E0C7
:10090000240100D010B5091A081F0A4B9C46614407
:10091000094A914207D8C30705D40005400DE023DA
:100920001B02184310BD054B054AA321054801F0E1
:10093000F1FBC046FC070000FE0F00004847001016
:100940009849001078470010044B1B680122824030
:1009500013405A1E9341D8B27047C04600E100E0F0
:10096000002904D0034B1860034B18607047034BF9
:100970001860FBE780E200E000E100E080E100E0D9
:1009800010B5012383401800FFF7EAFF10BD0000F7
:10099000024B9B6810308000C058704700ED00E0AB
:1009A00070B504000D00EFF3108672B60C4A1368A0
:1009B000002BFCD0BFF35F8F2000FFF7E9FF094B4E
:1009C000984201D0A84205D1320029002000FFF74B
:1009D00085FF70BD044B054A8621054801F09AFB4E
:1009E000240100D0CD010010B4470010B44900101C
:1009F00078470010F0B5CE46474680B583B0050075
:100A00000C00EFF3108872B6634A1368002BFCD019
:100A1000BFF35F8F614B9B682F001037BA00D65829
:100A20005F4B9E4207D0A64200D19FE001965D4BEE
:100A3000F31A2F2B09D9424631002800FFF74EFF49
:100A400003B0C0BCB946B046F0BD2800FFF77CFF3C
:100A5000814600212800FFF793FFBFF35F8FEFF37C
:100A600005839C46002B01D09F4208D10123019AA7
:100A70009A4393689C4200D17AE04A4807E03621C5
:100A8000494B4A4AFF314A4801F044FB3A000621EB
:100A9000515600296FDB4B005F18BF003F18BB6841
:100AA000A342F3D106243C57002C39DB63001B1909
:100AB0009A003C4B9B189A68BA60DA79FA71062260
:100AC0009A56BA719B797F2B0FD93A48B880630048
:100AD0001B199B00334AD318374A11789971147047
:100AE00049462800FFF74CFFA5E7381D61000919AA
:100AF00089000A1D0B002B49CB189B88D90A1C2999
:100B000008D15B051B15191D8918264BC918FFF75D
:100B1000F9FEDBE7294B2A4AB121254801F0FAFA10
:100B20006346002B13D1002A02D11D4E04E01700AA
:100B3000FF239371234B93801F4A1378BB71224B81
:100B400018497F1A7F417B431B0D1370C8E73A0099
:100B500016E01E4B1E4AAB21154801F0DBFA6A2154
:100B60001C4B124AFF31124801F0D4FA0C4E62E7D6
:100B70001700002296E79C42F1D16346002BD6D0A5
:100B8000154B9B1A083B59081B0BE2D1134B938062
:100B9000134B0B43D380A3E7240100D000ED00E00A
:100BA000CD0100103C020020C8480010844900100C
:100BB0007847001001BD0000E3060020B048001097
:100BC000A449001001BDFFFFAAAA0000FC480010C4
:100BD0006C4900100C4900107602002000F0FFFF65
:100BE00000F8FFFF70B5012505432B4C2B1B2F2B65
:100BF0002AD8EFF30583002B2DD0EFF3108C72B6BB
:100C000026490A68002AFCD0BFF35F8F244A0100FE
:100C1000214E891B49414A43120D51B2214A96681F
:100C20009A00B6580023AE421CD00622A2568A4231
:100C300028D001330C34042BF7D1D1211A4B1B4A95
:100C400049001B4801F066FAC7211A4B174A4900B0
:100C5000174801F05FFA9221174B144AFF311448EC
:100C600001F058FA0F4B9B68144C9C50144B1A78A7
:100C700082711970BFF35F8F084B00221A608CF3EA
:100C8000108870BD044D5A00D418A4002C19FF26FA
:100C9000A6710C4BA380E9E73C020020240100D0A0
:100CA000AAAA000000ED00E04849001050490010D9
:100CB00078470010144900103C490010CD01001085
:100CC000E306002001BDFFFF084B094A1360094AF3
:100CD0001360094A1360094A1360094A1360094AFC
:100CE0001360094A1360094A13607047808080804E
:100CF00000E400E004E400E008E400E00CE400E0CC
:100D000010E400E014E400E018E400E01CE400E07B
:100D1000024B9C46614489000160704740000034EA
:100D200010B50400FFF7CAFD01002000FFF7F0FF37
:100D3000FF232371BFF35F8F10BD10B50400FFF7D1
:100D4000BDFD01002000FFF7E3FFFF232371002317
:100D50006371BFF35F8F10BD70B505000C00080014
:100D600000F0E6FD0949200000F024FDFFF7A6FD94
:100D7000074B9C466044800068602C75D0231B069E
:100D80001B686B75A400034BE55070BD2D1000105F
:100D900040000034A80400200A4B1A68EFF31081C9
:100DA00072B61368002BFCD0BFF35F8F054B1B6836
:100DB000BFF35F8F00221A6081F3108840BF0020CC
:100DC00000217047BC06002070B500291CD00368C4
:100DD0001C7BA14218D883681348844661440901EA
:100DE00059180D684968002A14D0A24212D80E483A
:100DF0008446624412019A18012053688B4201D83C
:100E00000ED00020C0B270BD084B094A3C210948F1
:100E100001F080F9054B064A3C21064801F07AF9B9
:100E20001368AB42EED8ECE7FFFFFF0F2C4B00102E
:100E3000344D0010F44A001070B5002917D0057B1E
:100E4000A94214D804684B005B18033BE318002A3E
:100E500013D0914217D0AA421BD8500080180338F3
:100E6000201881701978002919D11A7070BD0D4BA6
:100E70000D4A68210D4801F04DF90D4B0D4A7021C6
:100E80000A4801F047F90C4B0A4A7121074801F062
:100E900041F9044B044A6821044801F03BF94170D0
:100EA0001A70E3E7504B0010904D00106C4B00108F
:100EB000B84B00107C4D0010C44B0010F0B5D64666
:100EC00000B582B00500009201930AAB1C780BAB11
:100ED0001F78002C4FD003685A7BA24205D14A4BA1
:100EE0004A4A67214A4801F015F91A7BA2423CD3CD
:100EF0001B68620012199B18033B9B78002BEED1F4
:100F0000444BE3181B01AA6894466344009A1A6094
:100F1000019A5A60089A9A60099ADA602E68337BBF
:100F2000A34250D363001B19033B326894466344C9
:100F300000229A705A701A70737B9A46002B4DD01B
:100F400022001900B06873689847002841D0220039
:100F500051463000FFF770FF53467373A2453ED0F1
:100F6000200002B080BCBA46F0BD2B4B2B4A682152
:100F70002B4801F0CFF80368987B0028F1D01A7B4A
:100F8000824218D342001218033A19688C46624410
:100F900051789973002900D1D9730023937053704D
:100FA00013702B681B7B83420BD21E4B1E4A3C21C5
:100FB000174801F0AFF8184B184A6821184801F09B
:100FC000A9F804009CE7144B144A6821144801F066
:100FD000A1F8524621003000FFF72EFF7473287DE0
:100FE000009A019B00F02EFC061E01D0002F05D0B8
:100FF00020000C9B002BB4D01E70B2E728682100A3
:1010000000F02EFEF4E7C046DC4B00109C4D0010B3
:10101000F44A0010FFFFFF0F504B0010904D0010DE
:101020006C4B00102C4B0010344D0010F0B5DE4618
:1010300057464E464546E0B58BB0824600239B4658
:101040008200A74BD55852E0A64BA74A3F21A7489C
:1010500001F060F8A64BA74A3C21A74801F05AF8D6
:10106000002901D1002864D10021300000F0EEFDFC
:10107000A04218D143461A685B680692079343461C
:101080009E68DB689846002E13D02B681B7BA3421A
:1010900015D3EB681B19013B1B789B461B022343AE
:1010A0002B61002017E0954B954A8E21924801F064
:1010B00031F8944B924A92218F4801F02BF88C4BD7
:1010C000914A41218C4801F025F8002306930793AB
:1010D0009846002600206B68BFF35F8F00221A60DD
:1010E00087F31088002E30D1002800D1F0E000F006
:1010F0000FFB02000B1EA7DB6868EFF3108772B6C8
:1011000001680029FCD0BFF35F8F2E68747B002C30
:10111000DBD0317BA1429DD37C4961180901A868CD
:1011200080468844414608684968801A99410029E8
:1011300096DD43461A685B68504600F083FB002347
:101140000693079398460026C5E75B461F02274390
:1011500041463800B047089009916A68EFF310895A
:1011600072B61368002BFCD0BFF35F8F099B002B76
:101170001FDB099B002B3FDD2B69002B42D0BB42BC
:101180004CD100F0C5FA02000B1E4DDB08980999FE
:101190008018594102000B1E4CDB002104910131E3
:1011A000039102944146019100962800FFF786FEC4
:1011B00060E02B69002B25D0BB4213D1069A079B18
:1011C00008980999121A8B41002B11DB0021049118
:1011D0000131039102944146019100962800FFF7E6
:1011E0006DFE47E04A4B464AA121434800F092FF7A
:1011F00001225242474BE9E7089A099B002B01D193
:10120000002AB9D12A68002C02D0537BA34215D101
:10121000414B424AF621424800F07CFF3C4B384AA1
:10122000A421354800F076FF2E4B2F4A3F212F484E
:1012300000F070FF01225242364BAEE7107B844231
:1012400021D8116863001B19CB18033B9B78002B36
:10125000DED1D37B002B1CD1937B002B00D1947368
:10126000D4732B681B7BA3422CD3013CEA68135D2B
:101270000133135500222A616B68BFF35F8F1A6038
:1012800089F3108833E7274B274A6821244800F068
:1012900041FF834210D85800C318C91803394C7055
:1012A000937B002BDCD1D37B002BD8D01F4B1B4A68
:1012B000FB211B4800F02EFF1A4B1B4A68211848DF
:1012C00000F028FF0A4B104A41210B4800F022FF92
:1012D0000BB0F0BCBB46B246A946A046F0BDC04626
:1012E000A8040020244A0010004D0010404A0010BD
:1012F0002C4B0010344D0010F44A0010044C001028
:10130000184D00101C4C0010584D0010FFFFFF0F2F
:10131000284C0010FFFFFF7F644C00106C4D001044
:101320006C4B0010504B0010904D0010884C00107A
:1013300010B50C4B5B68002B04D00A210A48FFF75C
:10134000E7FC10BD074C2300084A1021206800F07C
:10135000A3FB032000F0D0F903212000FFF7FCFCE1
:10136000EBE7C04684020020BC060020C90D001037
:1013700010B5064B5B68002B01D0044810BD044B30
:10138000044A5E21044800F0C5FEC04684020020E5
:101390009C4C0010404D0010F44A0010F0B5DE46A1
:1013A00057464E464546E0B58BB0814614998B466C
:1013B00015998A4616A90978079114001D001F2364
:1013C00002AA9446634400221A70002398463DE026
:1013D0004B461B681B7B834205D34B46DB681B18BF
:1013E000013B1B7850E0354B354A4121354800F030
:1013F00091FEA41BBD41002D28DA01246442324D28
:1014000024E0324B324A3F21324800F083FE01246F
:1014100064422D4D1AE00120404245E0002043E0A7
:10142000079B002B47D051464046D84706000F0087
:1014300003000B43F2D00029DBDB00F069F9040064
:101440000D1EDEDBA4197D41002DE0DB4B465A6802
:10145000EFF3108672B61368002BFCD0BFF35F8FDA
:101460001F2302AA944663440493434603930293C2
:10147000534601935B46009322002B004846FFF73A
:101480001DFD0200031EA3D149464968BFF35F8FCB
:1014900047460F6086F31088002ABCD002AAD27F8C
:1014A000002ABDD11B0218430BB0F0BCBB46B246AC
:1014B000A946A046F0BD0020F6E7C0462C4B001020
:1014C000584D0010F44A0010FFFFFF7F244A00101F
:1014D000004D0010404A0010F8B504004268EFF3D8
:1014E000108572B61368002BFCD0BFF35F8FCEB2AD
:1014F0002268537BB3421BD123698B424DD00F0A24
:10150000FFB2002E31D0137BB3422ED3FF230B400A
:10151000E1688C466344013B1B780020BB422AD023
:101520006368BFF35F8F00221A6085F31088F8BDEF
:10153000002E14D0137BB34211D3FF230B4058006D
:10154000C318106884466344033B9B78002B1FD16B
:10155000002023698B42E3D100232361E0E7124B93
:10156000124A6821124800F0D5FD124B124A41215F
:10157000124800F0CFFD3100100000F071FB002890
:10158000CED132210E4B0F4AFF310C4800F0C2FD84
:1015900023690F0AFFB29942B5D195210A4B094A36
:1015A0004900064800F0B6FD504B0010904D001069
:1015B0006C4B00102C4B0010584D0010F44A0010DA
:1015C000E44C0010E84C0010C04C001070B584B022
:1015D00006000D000400EFF30583002B0DD01D4B1A
:1015E000596A0020A94206D39B6A0130B34202D255
:1015F000681A431E984104B070BDFFF7B9FE00237E
:1016000002930193144B009332002B00FFF7C6FEA8
:10161000061E0CDC0F4B596A0020A942EBD39B6AD3
:101620000130A342E7D2681A431E9841E3E720BF86
:10163000FFF79EFE3100FFF74FFF064B596A00206F
:10164000A942D8D39B6A0130A342D4D2681A431E60
:101650009841D0E700400540990D0010F0B5C6460E
:1016600000B5EFF3058318001038EFF3108C72B655
:101670001A490A68002AFCD0BFF35F8F01242200B8
:10168000824017494A6317490A6017490D782E00AE
:10169000C640002134420CD011494C6A8100134EDF
:1016A00089598C4212D383001149595895430E4BE6
:1016B0001D70BFF35F8F094B00221A608CF31088F6
:1016C000002900D0884780BCB846F0BD9B00094A7D
:1016D000904643441A681A600021EAE7280100D0C6
:1016E000004005403C700540E4060020C006002094
:1016F0000C040020D03F054010B50100024A034809
:10170000FFF7B6F810BDC046B44D0010E206002049
:10171000034B596A986A0A00596A8A42FAD170479B
:1017200000400540084B5B6A994203D9064A536A58
:101730009942FCD8994206D1034B9A6A824202D25E
:101740005A6A9142F9D070470040054070B50400D4
:101750000D00FFF7DDFF02000B00200029008018BC
:1017600059418B4207D801D1824204D8002902DBBB
:10177000FFF7D8FF70BD034B034A3F21034800F039
:10178000C9FCC046244A0010584E0010404A0010C0
:1017900010B5002807DB064B996A1A00936A5B1A9A
:1017A0008342FBD310BD0021FFF7D0FFFAE7C0460C
:1017B0000040054070B504000D00EFF3108672B6CE
:1017C0001B4A1368002BFCD0BFF35F8F002D1CD089
:1017D0002000FFF7DDF8174B83420BD019002000E3
:1017E000FFF7DEF801212000FFF7CAF80123A3402C
:1017F000114A1360A400114BE550BFF35F8F0C4BEF
:1018000000221A6086F3108870BDA2000B4B0021E5
:10181000D1500B490122A2400B7893430B7005492C
:101820002000FFF7E7F800212000FFF7A9F8E4E720
:10183000280100D05D160010386005400C0400201F
:10184000E4060020F0B5DE4657464E46C0B582B0ED
:10185000040016001D000093FFF75AFF01968D4209
:1018600002D84ED186424CD9EFF3108B72B6284A7B
:101870001368002BFCD0BFF35F8F264B1A7892467B
:101880000127A7403A43D2B291461A70224B5F63B8
:10189000221D9200D650A2002049009850501B6A89
:1018A0003B4212D11C4B1B6C00203B4207D0BFF3C4
:1018B0005F8F174B00221A608BF3108822E0184BC1
:1018C000184AC521184800F025FCFFF721FF8D427A
:1018D00013D802D1019B83420FD8D1450FD00E4BB4
:1018E0001F625F631F2004400123A3400F4A13605F
:1018F000084B52461A701E38D9E70020D7E701205E
:10190000D5E7012002B0E0BCBB46B246A946F0BD17
:10191000280100D0E406002000400540C006002059
:10192000D84D00103C4E0010FC4D001080E200E04D
:10193000EFF3108C72B60B4A1368002BFCD0BFF388
:101940005F8F01238340084A136208490A789A434B
:101950000A70BFF35F8F034B00221A608CF310886C
:101960007047C046280100D000400540E406002032
:1019700070B5002917D0057BA94214D804684B0024
:101980005B18033BE318002A13D0914217D0AA42F8
:101990001BD850008018033820188170197800294E
:1019A00019D11A7070BD0D4B0D4A68210D4800F019
:1019B000B1FB0D4B0D4A70210A4800F0ABFB0C4BFC
:1019C0000A4A7121074800F0A5FB044B044A68212C
:1019D000044800F09FFB41701A70E3E7504B001081
:1019E0005C4F00106C4B0010B84B0010484F0010BB
:1019F000C44B001070B506000D0014001000002943
:101A00000DD00800002A0AD0B068736898470028F3
:101A100006D0220029003000FFF7AAFF280070BD81
:101A20002A0021003000FFF7A3FF2000F7E70000A5
:101A300010B50023437301338373027BC273012A01
:101A400013D95A00D218033A01688C466244013314
:101A5000DBB25370027B934207D2002BF1D10B4BC8
:101A60000B4A68210B4800F055FB002A07D0036899
:101A700051008A189A18033A0023537010BD034B83
:101A8000034A6821034800F045FBC046504B001054
:101A90005C4F00106C4B001010B501734260836006
:101AA000FFF7C6FF10BD000070B50400081E00D18E
:101AB00070BD257BA94227D8216843001B18033B32
:101AC000CA185278002AF3D0AA4223D85500AD187C
:101AD000033D49194E7800254D70217B81421FD36B
:101AE00021688C4663440021597001002000FFF7F3
:101AF00081FF050031002000FFF7D6FF020029001A
:101B00002000FFF777FFD3E7084B094A682109480F
:101B100000F000FB054B064A6821064800F0FAFA7F
:101B2000024B034A6821034800F0F4FA504B0010BE
:101B30005C4F00106C4B0010F8B504000D0017004E
:101B4000002925D0037B8B4228D34E007618033E14
:101B500003689B195A78002A26D19A78002A29D13D
:101B60001978FFF7A1FF0300002F07D0E27B002ABE
:101B700026D1A27B002A00D1A573E573002B3BD1AF
:101B8000237BAB424AD323689E1900237370F8BDB0
:101B9000254B264A3821264800F0BCFA254B264A18
:101BA0006821264800F0B6FA254B204A3A21204801
:101BB00000F0B0FA234B1D4A3B211D4800F0AAFA61
:101BC000217B914212D351008A1821688C466244CD
:101BD000033A5570A27B002ACFD1E27B002ACBD0FA
:101BE000194B124A4221124800F094FA114B124A42
:101BF0006821124800F08EFA227B9A4208D34300F3
:101C00001B18226894466344033B00229A70B7E78E
:101C1000084B094A6821094800F07CFA054B064A3E
:101C20006821064800F076FA704E0010344F00101C
:101C3000784E0010504B00105C4F00106C4B0010A1
:101C4000B04E0010D84E0010884C001070B5040043
:101C50000A00457B2900FFF76FFF6073280070BD05
:101C6000F8B5040000295DD0437B8B4227D0077B69
:101C7000B94229D806684D006D18033D7519AB7837
:101C80000020002B4FD0BB4224D85A00D318033B6E
:101C9000F018F25C8A4223D0002A24D0BA4222D81B
:101CA00053009B18033BF3185A788A4221D0002A2C
:101CB000F2D11D4B1D4A6B211D4800F02BFA01216A
:101CC000FFF7C4FF01202EE01A4B1B4A68211B4876
:101CD00000F020FA174B184A6821184800F01AFA49
:101CE0006B78037007E0134B134A6821134800F028
:101CF00011FA6A785A700023AB706B7001222000D1
:101D0000FFF71AFF0200617B814205D02000FFF738
:101D100071FE6073012006E0094B044A71210448FA
:101D200000F0F8F90020F8BD484900101C4F0010E1
:101D3000784E0010504B00105C4F00106C4B0010A0
:101D4000FC4E001070B504000D00062000F034F9C0
:101D5000C000290001F008FCC6090125002E0AD0A8
:101D60000D4B9E4205D87F231840013035004608B0
:101D700001E00026094D6562A6622C3480208001B6
:101D8000044300232360062000F016F98000A90117
:101D9000891901F0E9FB70BDFEFF0000FFFF0000A4
:101DA000F8B5DE4657464E464546E0B505008A463C
:101DB00017000A9A93424ED31A0E91461E020A9AAF
:101DC00000233000494601F00DFC80466C00641988
:101DD000A400354B9C4664446368834200D2606033
:101DE0002B1FDBB29B46012B3BD9C0239B01234316
:101DF000802212011A60AB002C4A9958002905D0A4
:101E0000506901F0B1FB01300138FDD122687F013A
:101E10007A40E0271740210080235B0123431F60A5
:101E20005A46012A33D980239B010B438022120199
:101E30001A6043466360AD004246002330004946C5
:101E400001F0D0FB194B58510120F0BCBB46B24603
:101E5000A946A046F8BD164B164A2D21164800F09B
:101E600059F95346012BC0D1C0239B0123430322C0
:101E70001A60023AA3681A42FCD022687F015740D8
:101E8000E0231F40210080235B0123431F60206863
:101E900052465040032202401A60012253469A40A3
:101EA000A3681A42FCD0BEE7008000401C0400205A
:101EB000684F0010C04F00107C4F001030B583B049
:101EC0000C2000F005F9FEF7B5FC00280BD02E4BD6
:101ED000190028312D4A04C38B42FCD12A4B2C4ACD
:101EE0005A6203B030BD2B4B00229A6700F0F8F81D
:101EF000294B01221A60274A536C012BFCD1274B36
:101F000003221A60234A936B012BFCD10133009307
:101F10000433234A0121234800F054F80523009399
:101F2000214A0121214800F04DF8214B0093002265
:101F300002210420FFF734FF1E4D00952B000022E4
:101F400001210520FFF72CFF104C009423000022F4
:101F500000210720FFF724FF009423000022002126
:101F60000820FFF71DFF0A4B0093230000220021E9
:101F70000920FFF715FF00952B0000220021062005
:101F8000FFF70EFFADE7C0461C040020006CDC022A
:101F90001BB70000008000403CB0004030B0004063
:101FA000002F685900800240008C864700C0024024
:101FB000001BB700405973078000014BC0587047A1
:101FC0001C040020F8B504000E0015001F000C20B2
:101FD00001F0CAFA334BEA18334B9A423ED841011A
:101FE000091A8B01591AC90009188901280001F042
:101FF000BBFA0200103A98235B009A4234D87B1E49
:10200000062B37D8069B013B062B33D83F04069B93
:102010001D032F432368002B32DB244BE21853426D
:102020005A41120380235B019C466244204B1A6094
:10203000204B1A60204DAB6811009943FBD12660FC
:10204000A060231DC02292011A432123136023683C
:10205000002BFCDAE76008231360F8BD174B184A21
:102060001121184800F056F8174B154A1921154848
:1020700000F050F8154B124A1C21124800F04AF8A3
:1020800022683F231340B342C7D1A3681B051B0D31
:102090008342C2D1E368EE22D2021340BB42BCD1DC
:1020A000DBE7C04680E84BD380F8A9320040FDBF93
:1020B00000E0004000F0004000C00040D04F0010A1
:1020C000D4500010305000106C5000108850001098
:1020D00080239B000343014AD36270470080054080
:1020E000064BAA2212011A602F22DA60044B054A1D
:1020F0001A60024A5368002BFCDA70470040024025
:102100000060024000B0FA0000BEFDE710B5FFF726
:10211000FBFF000010B582B00C001900002A0AD0A5
:10212000064B0192009323000200054802F040FA9A
:102130000120FFF7E9FF034B1A00F2E7E05000101F
:10214000F0500010EC50001070B5364B364A1A6053
:10215000364B374A1A6037498B6814009C43FBD1D1
:10216000354A364B9A420AD215001E00013EB61A75
:10217000B60808CD984723000134B342F9D1FFF7E0
:102180009DFE2A4B2E4A1A602A4A9368DB43DB01E4
:10219000DD09002BF9D12B4B40229A675A671A6749
:1021A000DA66294A294B9A4218D214001E000BE025
:1021B000274B284A86212848FFF7ACFF2000FEF76E
:1021C000AFFD0834B44209D22368002BF6D0012BAE
:1021D000EED12000FEF7B1FD0834F3E71F4CA168F3
:1021E0001F4EC022300002F095F8A660EFF3058381
:1021F000002B00D000BEFEF753FBFEF765FDFFF796
:1022000097F8184A184B9A420AD214001E00013E51
:10221000B61AB60808CC98472B0001359E42F9D172
:1022200070BDC04600E00040BFCDFBFE00F00040A6
:10223000FE7F3C0000C00040D8020020E8020020E1
:10224000FFFFFF0100F00140D0020020D802002073
:1022500020510010945100104051001000ED00E09A
:1022600000000020E8020020EC0200200FB400B5BE
:1022700083B0084802F06CF9049B002B07D005A935
:102280000191180002F074F9034802F061F901208D
:10229000FFF73AFF8051001090510010704710B5C1
:1022A0000B00002802D049681B68984710BDF0B5A4
:1022B000DE4657464E464546E0B583B006000F0061
:1022C000019298460C9B9B460D9B9A4691460F9B0C
:1022D0009B0712D10E9B9A450FD20E9B52469B1A1A
:1022E000019CA14699444D462200013443463900E1
:1022F0002020B047A542F7D1A94654464D46002CB0
:1023000010D03B0037004E46994653469D192A1B74
:10231000013C5B46185D43464946B847002CF4D162
:102320003E004F460F9B9B070ED5019BEC1A0E9B60
:10233000A34209D999462A00434601353900202095
:10234000B04701344C45F6D3280003B0F0BCBB467F
:10235000B246A946A046F0BDF0B5CE46474680B588
:1023600085B0944698460D9C0EAB1B789946109FFD
:10237000119D129EB30730D4002D0ED0F30700D468
:1023800081E04B46002B02D10C33334200D0013D9B
:10239000BC4211D21F2C04D90EE0BC420AD21F2C21
:1023A00008D80C9B5A1E302301341355A74201D97B
:1023B000202CF9D1F30710D5A5420ED90C9B5A1E3B
:1023C00030231F2C05D801341355AC4204D0202CE7
:1023D000F9D1F30603D41FE02C00F30613D57305DF
:1023E00005D4002C03D0A74224D0AC4222D00F9BAE
:1023F000102B2AD00F9B022B30D01F2C0CD830234F
:102400000C9A135501341F2C06D84B46002B2CD0A8
:102410002D230C9A135501340396029501940C9BBD
:10242000009343466246FFF742FF05B0C0BCB94681
:10243000B046F0BD631E012C05D00F9A023C102A55
:1024400003D01C00D6E71C00D1E7B30621D41F2C13
:10245000D3D878230C9A13550134CEE71F2CDBD840
:1024600060330C9A13550134C7E7730704D52B2347
:102470000C9A13550134CFE73307CDD520230C9A9E
:1024800013550134C8E7BC42A7D21F2C00D888E7F7
:10249000A3E71F2CC0D858230C9A13550134ACE77E
:1024A000F0B5DE4657464E464546E0B593B0089037
:1024B000099191469A461CAB20CB1B789B461E9EE9
:1024C000002D0AD11023219A9A438023DB00219901
:1024D0000B4021922C00002B26D16123219A9206D9
:1024E00000D54123DBB200240A2252429046984490
:1024F0001F2702AB9C4667440CE03031C9B201345F
:1025000039553100280001F02FF8B5420CD3202CAA
:102510000AD005003100280001F026F8C9B20929C7
:10252000EBD94144C9B2EAE7219B0693209B05936E
:102530001F9B049303965B46029301940AAB00939E
:1025400053464A4609990898FFF706FF13B0F0BCB6
:10255000BB46B246A946A046F0BDF0B5DE4657469A
:102560004E464546E0B595B0804609910A920B93D8
:102570001E9F1F9C20AB1B789B46229B9946239E47
:102580003B00234307D11033269A9A431300269A1F
:1025900052052FD426936123269A920600D5412313
:1025A000DBB200250A22524292469A4413E03032AE
:1025B000D2B2013504AB1F215B185A554A4633008D
:1025C0003800210001F00EF8A64215D80FD0202DBA
:1025D00012D007000C004A4633003800210001F0F9
:1025E00001F8D2B2092AE2D95244D2B2E1E7B945A0
:1025F000EDD901E026930025269B0693259B0593A4
:10260000249B04934B4603935B46029301950CABCA
:1026100000930B9B0A9A09994046FFF79DFE15B05F
:10262000F0BCBB46B246A946A046F0BDF0B5DE46BA
:1026300057464E464546E0B591B080468B460992D6
:1026400099461A9C07941B9D089522002B00200098
:10265000290001F052FA002800D0FAE0012252428B
:10266000D94B2000290001F043FA002800D0F0E007
:1026700001225242D54B2000290001F023FA002804
:1026800000D0E6E000220023079F3800089E3100BA
:1026900001F018FA002800D0F4E0079C089D802380
:1026A000DB001E9A1A400D921E9A1A4201D106238F
:1026B0001C930A940B9523002B4300D17CE1680006
:1026C000400DC34B9C46604401F02AFAC14AC24BFC
:1026D00001F0B5F9C14AC24B01F08AF906000F00BA
:1026E0002B031B0B0A98BF4A1A4311000022BE4B52
:1026F00001F075F9BD4ABE4B01F0A1F902000B00D3
:102700003000390001F074F901F022FA824601F03C
:1027100007FA06000F00B74AB74B01F090F9002204
:10272000B64B01F065F901F013FA0C90B44AB54BC1
:102730003000390001F083F906000F000C9801F019
:10274000EFF9B14AB14B01F07AF902000B00300009
:10275000390001F044F906000F0002000B0001F0FF
:102760006EF90A900B9132003B003000390001F005
:102770003FF90E900F910022A54B0A980B9901F09A
:1027800040F90022A34B01F033F902000B000A9834
:102790000B9901F036F900229F4B01F029F9020054
:1027A0000B000A980B9901F02CF90A900B9132005A
:1027B0003B0000208021C90501F011F902000B0047
:1027C0000A980B9901F014F902000B000E980F996A
:1027D00001F017F90022834B01F00AF90C9E8F4B90
:1027E0009C4666440022330501F029F906000F00DB
:1027F00022002B0001F07CF900284AD10A960B97A1
:10280000C627534663339F42BF417F4204371E9B16
:102810001B055FD50A9A0B9B1100194348D0804ACB
:10282000804B2000290001F05BF9002807D000222E
:102830007D4B2000290001F045F9002838D11C9B70
:10284000002B47D00D9B5A1E93411C9AD31A1C9300
:1028500040E01E9B04931D9B03931C9B0293079ACD
:10286000089B009201934B46099A5946404600F056
:10287000DFF80600300011B0F0BCBB46B246A946F6
:10288000A046F0BD3C0080231B069C4666443500F4
:1028900005E701235B429C46E24400225D4B300089
:1028A000390001F0AEF80A900B91A9E700239A468F
:1028B0001C9B534504DD5246981A431E1C9301E0AD
:1028C00000231C938023DB001E9A1A431E920027CC
:1028D00000239A4600261D9B9F4200D2DE1B022346
:1028E0001E9A1A400C921E9A134203D07B427B41DF
:1028F0005B421E405346002B07D00A9A0B9B2000D8
:10290000290001F07EF804000D0000220023079842
:10291000089901F0D7F8002849D1444B1E9A13407A
:10292000049303961C9B0293009401954B46099DCA
:102930002A005946404600F07BF80600002F99D047
:102940001E9B9806C0171F2398436530741C4B4686
:1029500032005946C04705230593013F04970023E1
:1029600003930A3302935346DB0F01935346D9175F
:102970005818484000904B46220059464046FFF701
:102980008FFD06000C9B002B00D173E7471B1D9B9E
:10299000BB4200D86EE745461C0032004B4601366C
:1029A00059462020A8470137A742F6D362E7802185
:1029B00009066B181D00B0E71E9B1B0500D575E7C7
:1029C000042700239A4685E7FFFFEF7FFFFFEFFF15
:1029D00001FCFFFFFB799F501344D33FB3C8608BCA
:1029E000288AC63F0000F03F0000F83F61436F6354
:1029F000A787D23F71A379094F930A400000E03FB7
:102A00001655B5BBB16B0240EF39FAFE422EE63FD8
:102A100000002C400000244000001840FF0300008C
:102A20002D431CEBE2361A3F80842E41FFF7FFFF57
:102A3000F0B5DE4657464E464546E0B597B082466D
:102A4000079108920993209C219D22002B002000D1
:102A5000290001F052F8002800D0ADE001225242D6
:102A6000CA4B2000290001F02DF8002800D0B2E068
:102A700001225242C64B2000290001F039F80028FB
:102A800000D0B7E00022C34B2000290001F030F84D
:102A9000002800D0C3E00022BF4B2000290001F035
:102AA00011F8002800D0BAE00022002320002900FD
:102AB00001F008F8002800D0C0E0002398468023E9
:102AC000DB00249E1E400627249A1A4217D0229B20
:102AD0001F000026092B12D90EAB30221A70229B40
:102AE0005F1E093B0126172108AA94466144302243
:102AF000B34204D001368A55013F202EF8D1200080
:102B0000290001F025F88146FA00A44B9B181A68A9
:102B10005B680A920B9301F003F802000B0020009F
:102B2000290000F05CFF0A9A0B9B00F088FF0C90D4
:102B30000D9101F031F8834600F0EEFF02000B002A
:102B40000C980D9900F04BFF0C900D910022944BC6
:102B500000F0CEFF00287CD001239C46E344584679
:102B600000F0DAFF02000B000A980B9900F0B0FFAA
:102B7000002804D001239C46E14400239B46002FFB
:102B800078D05D461F2E00D9AAE07B1E9B460136F9
:102B9000172308AA94466344F4180A21280000F079
:102BA000E3FC303121700A21280000F0DDFC092D02
:102BB0007ED95F460500E5E7249B0393239B0293A0
:102BC00003230193774B0093099B089A079950467A
:102BD000FFF76DFBD0E0249B0393239B0293042318
:102BE0000193714B0093099B089A07995046FFF790
:102BF0005EFBC1E0249B5B070ED46C4B032224993F
:102C000003912399029101920093099B089A0799D5
:102C10005046FFF74CFBAFE0654B0422EFE7249BE7
:102C20000493239B0393229B029300940195099B99
:102C3000089A07995046FFF7F9FC9DE022002B0007
:102C40000020002100F0CBFE04000D000123984677
:102C500035E70022524B0C980D9900F033FF002805
:102C60008DD15B46002B01D0DB0788D501239C4624
:102C7000E34484E7484600F053FF02000B002000C5
:102C8000290000F0ACFE04000D000022444B00F0CF
:102C900019FF002824D10022414B2000290000F018
:102CA00027FF00281CD101234A461340994417E00E
:102CB0005C461F2E14D83200172108AB9C46614495
:102CC0003020002C08D001328854202A5BD0D34316
:102CD0009B19DB19002BF6D1561C0EAB2E219954F3
:102CE0004C461F2E36D80136172308AA9446634453
:102CF000F5180A21200000F00FFC303129700A215C
:102D0000200000F009FC041EEBD10323249A134099
:102D1000012B09D01F2E22D84346002B0AD00EAB20
:102D20002D229A5501361AE0239B002BF2D044E065
:102D3000239EEFE7249B5B0704D50EAB2B229A550D
:102D400001360CE0249B1B0709D50EAB20229A55B7
:102D5000013604E00323249A1340012B2AD0249B3C
:102D60000393239B029301960EAB0093099B089A51
:102D700007995046FFF79BFA17B0F0BCBB46B24626
:102D8000A946A046F0BD1600AAE7C046FFFFEFFF28
:102D9000FFFFEF7F65CDCD4165CDCDC1A0530010C4
:102DA0000000E03FB0510010B4510010AC510010D1
:102DB000A4510010239B002BD1D04346002B03D1FC
:102DC0000C33249A134202D0239B013B2393239B71
:102DD0009E429FD2172208AB9C46624430231F2E8E
:102DE000BDD82399013693558E42A1D0202EF9D11A
:102DF000B5E7C046F0B5DE4657464E464546E0B517
:102E000095B00B90884691461C001E9B9A4600295F
:102E100007D020780023002800D1E1E21F00C3463C
:102E2000E6E0CF4B0B93F4E70134002604239846E9
:102E3000023B9C46012016E00B00303B092B29D9B0
:102E400000242A2935D02B78002290462E2B3BD007
:102E50002B78683BDAB2122A7DD89300C14AD35846
:102E60009F4606430134250021780B00203BDAB24F
:102E7000102AE1D89300BC4AD3589F4663461E43AC
:102E8000F0E743461E43EDE708231E43EAE710231D
:102E90001E43E7E700240B000135A1000919490092
:102EA000C91830390C002B781A00303A092AF3D9A6
:102EB000C9E7534604CB141E02DB01359A46C2E72C
:102EC00028390E435442F8E78023DB001E43691C77
:102ED0006B781A00303A092A05D92A2B14D00D0034
:102EE00000239846B4E700221800013193009B1894
:102EF0005B001B18303B1A0008780300303B092B9D
:102F0000F3D990460D00A3E7534604CB9046D24335
:102F1000D21741461140884602359A4698E76B78A9
:102F20006C2B04D080235B001E43013513E0C023CB
:102F30009B001E4302350EE06B78682B03D0802384
:102F40001E43013507E0C0231E43023503E0802302
:102F50005B001E43013528780300253BDAB2532A73
:102F600000D934E29300814AD3589F4680239B00C6
:102F70001E430135EFE780235B001E430135EAE77E
:102F8000782800D183E2582800D140E26F2800D190
:102F90007FE2622800D17EE2102332009A431300C0
:102FA000692831D1720500D56CE20A22990535D421
:102FB000D90560D4590674D5504640C8FF21314028
:102FC000824605930494434603930292CB0F0193E8
:102FD000CB17C918594000914B463A0059460B98F7
:102FE000FFF75EFA07006C1C2078002800D1FAE198
:102FF000252800D118E77D1C4B463A0059460B9E08
:10300000B04701342F00EFE7642804D1720500D5E2
:1030100033E20A22CAE716000A22FBE151460731D1
:1030200007208143013082468A4408684968089332
:10303000079443460693049200230593CB0F029313
:10304000CB1710931193109B119C1A0042401292BF
:1030500022004A4013921299139AC91AA2411300EE
:103060000A00009201934B463A0059460B98FFF72D
:1030700074FA0700B7E7564602CE05930494434618
:1030800003930292CB0F0193CB17C91859400091BB
:103090004B463A0059460B98FFF702FA0700B24632
:1030A000A1E7190604D5504602C809B2824688E74E
:1030B000504602C8824684E75146073107208143C3
:1030C00008930794434606930492002305930293C2
:1030D0000CC98A46009201934B463A0059460B9818
:1030E000FFF73BFA07007EE75646059304944346F4
:1030F000039302920023019308CE00934B463A00BB
:1031000059460B98FFF7CCF90700B2466BE7190652
:1031100005D5504602C80904090C824697E150467D
:1031200002C8824693E1462816D053460733072249
:1031300093439A46049603944346029351460CC91E
:103140008A46009201934B463A0059460B98FFF786
:103150006FFC07006C1C47E720231E43E5E7C046D1
:103160009D220010BC510010085200104C5200105B
:10317000202302009A43472A02D0452809D106E0BD
:1031800080231B011E4302239843452801D120239D
:103190001E4353460733072293439A4604960394EB
:1031A0004346029351460CC98A46009201934B460E
:1031B0003A0059460B98FFF739FA07006C1C13E7E1
:1031C000B30728D57B1C0C93534601CB9A46C0B25B
:1031D0004B463A0059460B9EB047E3199846012CDE
:1031E00000D844E153460D930C9EA2464446B8468F
:1031F0005F46AB460B9D320001364B46390020201E
:10320000A847B442F7D154460D9B9A465D46BB464B
:1032100047463F191BE0012C00D82AE17B1E1C19F0
:10322000A8460B9E5D463A0001374B4629002020F8
:10323000B047BC42F7D1AB4645465646671C01CE67
:10324000C0B24B46220059460B9CA047B2466C1CAC
:10325000CAE6534604CB0C920E934146002901D195
:10326000012149420C9B187800280DD084460800A3
:103270000C9901331A78002A05D0CA1A1218002AAC
:10328000F7D1604600E060460C9A991A0D918023B0
:10329000DB0032001A4092461E4203D0414501D95C
:1032A00043460D9302231A0032400F9233420ED050
:1032B000002855D03A000C9BDF1B53460C935B460D
:1032C000AB463900474688461D00A2462FE00D9ABE
:1032D000531C944200D8CEE0E619B61A53460D931B
:1032E000A2460B9C5B46AB461D003A0001374B469D
:1032F00029002020A047BE42F7D154460D9B9A4694
:103300002B005D469B46631C0D9337000C9B187881
:103310003E000028CED11DE01F00561C4B46290060
:103320000B9CA0474346985D00280CD032000C9BB4
:10333000002BF2D07B1E002FEED154462B005D46B1
:103340009B46160003E054462B005D469B460F9BB0
:10335000002B04D16C1C0E9B9A46370044E63700C4
:103360000D9B9C420FD9E419E61AA8460B9C5D46BA
:103370003A0001374B4629002020A047BE42F7D132
:10338000AB464546E6E73E00E4E721231E430596AB
:10339000193B0493434603931023029300230193A4
:1033A000524608CA924600934B463A0059460B983B
:1033B000FFF776F807006C1C16E67E1C4B463A00B9
:1033C000594625200B9CA0476C1C37000CE67E1C40
:1033D0004B463A0059460B9CA0476C1C370003E64D
:1033E00000239B4601E0D846BB465A46D94501D842
:1033F0004B465A1E4B46414600200B9CA047584660
:1034000015B0F0BCBB46B246A946A046F0BD20238D
:103410001E4310220C23310099430B00710508D57F
:103420000D239E433300692800D1BFE5642800D1F5
:10343000BCE5990500D53FE6D90500D554E6590607
:1034400000D464E6504640C8FF21314082460593CF
:1034500004944346039302920023019300914B4648
:103460003A0059460B98FFF71BF80700BBE50C9F85
:10347000EDE63C00E1E60D9348E711239E4333005F
:103480000A2293E511239E4333000A228EE510227F
:10349000C0E70822BEE70222BCE7C04600B585B0FF
:1034A000029003910121009313004A4202A90248AD
:1034B000FFF7A0FC05B000BD9F22001001480421C9
:1034C000014B1847B0020020ED34001010B5010088
:1034D0001423188804331B88984710BD10B50100C9
:1034E0001623188802331B88984710BDF8B50F1EA5
:1034F0000FD00400002501262068FFF7E7FF01C474
:10350000431E9841404206400135AF42F4D130009D
:10351000F8BD0126FBE70000124A936F9B0815D205
:103520009066D166002905D0FFE7FFE7FFE7516FFE
:10353000106F704704B580210906C217514000285A
:1035400000D0C84301F0D8F8002104BDF0B5146ED6
:10355000556E576F166FFFF7E3FF14665566576792
:103560001667F0BD000000D0114A936F9B0813D27C
:1035700010665166002905D0FFE7FFE7FFE7516FAE
:10358000106F704704B5002801D00020C04301F03F
:10359000B3F8002104BDC046F0B5146E556E576FE8
:1035A000166FFFF7E5FF1466556657671667F0BD9F
:1035B000000000D094464A4A926F9208624601D2B7
:1035C00028E0C046F0B5464E346E756E776F366FA4
:1035D00000F020F89446424A14665566576716670D
:1035E0006246F0BD94463E4A926F9208624601D20E
:1035F00054E0C046F0B53A4E346E756E776F366F54
:1036000000F04CF89446364A1466556657671667BC
:103610006246F0BD002B24DB11D000293EDA00B554
:10362000C943404200D1013100F038F8C94340425B
:1036300000D10131DB43524200D1013300BD002AE9
:10364000EBD1002801D1002905D00020C90FC907FE
:1036500001D1C043410800B501F046F80022002323
:1036600000BD00B500290ADBDB43524200D1013323
:1036700000F014F8C943404200D1013100BDC943F4
:10368000404200D10131DB43524200D1013300F00E
:1036900005F8DB43524200D1013300BD002923D19C
:1036A000002B18D1002A0CD0BC460D4F38667A6624
:1036B00000210023FFE7FFE7FFE77A6F386F6746D7
:1036C0007047002801D00748010000B501F00CF850
:1036D0000022002300BD02000B00002000217047E3
:1036E000000000D0FFFFFFFF002B00D0BFE0130C55
:1036F00028D1002AE7D080B4114F39667A66FFE7F7
:10370000FFE730B4040C7B6F396F1B0423433B6627
:103710007A66FFE7FFE7FFE7C04684B27B6F3D6F45
:103720001B0423433B667A66FFE7FFE7C04600239E
:103730002C042D0C7A6F386F00196941B0BC7047AA
:10374000000000D0F0B594460025140E01D11202FD
:103750000835140F01D112010435940F01D19200E4
:103760000235D40F01D152000135D40B0134254F5D
:103770007C66254C3C660E0C93B2FFE7FFE7FFE743
:103780003C6F6643360C7703BE467343DF0B5B0426
:10379000C01AB941130C7343DB18C91ACE0866432B
:1037A000360CB64493B273431F0F1B01C01AB941C4
:1037B000130C73431F0B1B05C01AB941860D8F02F2
:1037C0003E436643360C092D24DB520A7243801AAD
:1037D0007703460A6643360C16235B1BDE40DF4048
:1037E000BF1964466643821B7046043506330100E8
:1037F000D940A840C01900D30131A24206D200230B
:10380000F0BD0000000000D0FFFFFFFF121B0130E1
:10381000F3D3F1E709277F1BFE406446A2B272434F
:10382000801A00D20139220C7243130C1204821A3E
:1038300099410B007046043513370100F940A84048
:10384000801900D30131002B02D1A2420AD2F0BD6F
:10385000013000D30131121BFAD2013BF8D1A24250
:1038600000D2F0BD013000D30131121BF7E7F0B5F3
:103870001C0C00D080E00CB400251C0A04D11B02F3
:10388000160E3343120208351C0B04D11B01160F10
:103890003343120104359C0B04D19B00960F334334
:1038A00092000235DC0B02D192185B4101351C00FD
:1038B000971864410134464F7C66464C3C660E0CBA
:1038C000FFE7FFE7FFE7C0463C6F6643360C770330
:1038D000BE4697B27743C01B00D20139C01B00D24D
:1038E00001399FB27743C91BC91B170C77437E046C
:1038F000FF0B801BB941CE086643360C0C2D33DB21
:10390000B644120B1F053A431B0B97B27743C01BFB
:1039100000D201399FB27743C91B170C77433E048D
:103920003F0C801BB941860D8F023E436643292719
:103930007F1BFE400C3D7746AF40BF1930BCA2B2A2
:10394000ABB272437343801A9941220C7243130C39
:103950001204801A994102000B000137001BA94193
:10396000F9D2781E0021F0BD0C277F1BFE40774660
:103970007F0BAF40FF19E0E700245D1C07D0144F18
:103980007D663966FFE7FFE7FFE7FFE73C6F95B22B
:103990009EB265436643401BB141150C1E0C654346
:1039A000664336042F0C3E432D04401BB14199421F
:1039B00004D202000B0020000021F0BD01D1904292
:1039C000F7D3801A994101349942F2D3F6E7000007
:1039D000000000D0FFFFFFFF48404140484018B4BE
:1039E0001B4B5B68FC46019308BD04DFAF3C001035
:1039F00018B4174B1B68FC46019308BD00DFB93CA7
:103A000000109446134A926F920809D2624618B485
:103A10000F4BDB68FC46019308BD0CDF713F0010C3
:103A20000C4AF0B5146E556E576F166F6246FFF76D
:103A3000EEFF084A1466556657671667F0BD18B45E
:103A4000034B9B68FC46019308BD08DF153E001040
:103A5000B8040020000000D0FFB550404240504064
:103A600059404B40594000E0FFB5154F4C00640DE4
:103A700003D0BC4204D10C0314D80020090D090561
:103A80005C00640D03D0BC4204D11C030AD80022A0
:103A90001B0D1B0501264B4009D44B4003D58B421F
:103AA00000D18242FFBD9942FCD19042FFBD0B4341
:103AB000DB1803431343F5D0C9434918FFBD000089
:103AC000FF07000000B5FFF7CFFF804100BDC046F3
:103AD00000B5FFF7C9FF01D9002000BD012000BDDE
:103AE00000B5FFF7B9FF01D9002000BD012000BDDE
:103AF00000B5FFF7B1FF804100BD012040054A003D
:103B0000121804D85A00121801D80020704701205A
:103B100070470020704700000021002805D1704741
:103B2000C1174840401AFAD0C90713B5064B1B68A5
:103B300098470CBC441CA2401005120B0349091BFA
:103B400009051943114310BDB80500201F040000EA
:103B500010B54C00620D8023D218DB00D21A5B0531
:103B60007E2A10DD9E3A13DACC170903490819435F
:103B70005242D140640001341532202A05DAD04087
:103B80000843604310BD002010BD0846604310BDCF
:103B9000C80FC018013810BD18B4044B5B6AFC464E
:103BA000019308BD24DF214100100000B80400206B
:103BB00070B513231C78012C1BD012DD1F48FFF7B2
:103BC0008DFC05001E48FFF789FC023803789B0036
:103BD0007F2B19DD802229001A4800F09BFB022C64
:103BE00018D0022C0CDD1848FFF770FC174B18603A
:103BF00070BD144B19008031154A04C38B42FCD1AF
:103C0000104B134A9A64EEE7124B134A32211348C1
:103C1000FEF780FA124B1A88B5231B029A4209D18B
:103C2000104B114A12889A4204D1104B104A128844
:103C30009A42E5D00020FEF719FBC046534400002D
:103C400053460000B80400204C330000B8050020A3
:103C5000753C0010F05300109854001050540010A0
:103C60005438000049460000D8380000594600008A
:103C70009C38000007B56046002800D100BE0188CE
:103C80000A0A0230DF2AFAD1C9B2820804D30288B4
:103C900040880004104300E00068024A505003903E
:103CA00007BD0000B80400200FB403BC0CBCF0B585
:103CB0000124E407634000E0F0B50C0DCF0F661E51
:103CC0003605891B640503D3C943404200D3013143
:103CD000640D03D0661CF60A07D0E41B00207F00A9
:103CE000791C89078912803C24031D0DDF0F6E1E8D
:103CF00036059B1B6D0503D3DB43524200D30133D2
:103D00006D0D03D06E1CF60A07D0ED1B00227F005C
:103D10007B1C9B079B12803D2D032F1B661B58D4D9
:103D2000A446202E46DA20371400BC401D00BD40BA
:103D3000F24033412A4380185941CB0F05D0C94383
:103D4000C043002264425041514162464D0D28D18A
:103D50000D0D07D100281FD0241940414941013AD7
:103D60000D0DF9D0640006D3013000D30131002CD1
:103D700001D140084000013A0BD4941CE40A04D15C
:103D800012051144DB071944F0BDD907204B194334
:103D900000E0D9070020F0BD0029DDD1002CDBD1E7
:103DA000F0BD0132C6074008CD0728434908002E60
:103DB000E1D0D9E73C2E29DA203E40371400BC4040
:103DC00000D00124F24014431A00BB401C43D31717
:103DD000ACE7AC46202F08DA20360400B4400D00D2
:103DE000B540F84039412843A5E73C2F0CDA203F85
:103DF00040360400B44000D00124F84004430800D9
:103E0000B1400C43C117EAE710001900002494E701
:103E10000000F07FF0B50C0D661E3605891BE60A22
:103E20006405640D02D0651CED0A04D00020012158
:103E30000905803C2403A4461C0D671E3F05DB1BBF
:103E4000E70A6405640D02D0651CED0A04D0002267
:103E500001231B05803C24037740644497B484B25B
:103E600096B27443070C7E43150C6F4380B26843CF
:103E7000361802D3012000043F183004350C001915
:103E80007D41844688B29AB250430C0C62431F0CA9
:103E90007C438EB27E43921902D301263604A419C4
:103EA0001604170C3618674101BC81B29AB251430F
:103EB000040C62431B0C5C4380B25843121802D3BB
:103EC0000120000424181004130C401863412D181D
:103ED0005E410020474106BC88B293B258430C0CA7
:103EE0006343120C544389B251435B1802D301213E
:103EF0000904641819041A0C091862416D18564116
:103F00000020474118BCF902720D1143F0026A0DFE
:103F10001043ED020A0D03D16D1940414941013BA7
:103F2000124E9B1B7600B3420ED26D0007D30130B8
:103F3000002671416646354301D1400840001B050B
:103F4000C918E4072144F0BD0BDA013306D1013072
:103F500004D101314F0D01D04908F2E7E1070020FB
:103F6000F0BD013631050020EBE70000FF03000043
:103F7000F0B51C0D671E3F05DB1BE70A6405640DE9
:103F800002D0661CF60A04D0002201231B05803CE7
:103F90002403D0252D060026F6432E661E096E66E4
:103FA000CE0FF619B44649004F0D02D07E1CF60A1A
:103FB00003D000200021403F3F033E1BB600B44425
:103FC000013F7F05C91B49082E6F013676089C0208
:103FD000950D25437543ED137543AD1301356D10F4
:103FE000F603761B0CB4CC02450D2C43A2B2B3B23F
:103FF0005A43270C7B43350C6F43A4B26C431B1907
:1040000002D3012424043F191C041D0CA4187D4173
:1040100024196D41009A91B2ACB26143170C7C43F4
:104020002B0C5F4392B25A43A41802D3012212040C
:10403000BF182204230C52187B41019C6C431B19AE
:10404000520ED9010A434401A01A81B2B2B25143BF
:1040500003145A43360C734387B27743D617D219E9
:1040600000277E4136049B191704160C7F185E4109
:104070007316ED18F301002680337541A90F06D1A0
:104080006400690AE8055B0A184309D22FE004229C
:10409000944480337541A90AA8059B0A184326D386
:1040A000404149412404009A019B0D005543641B83
:1040B0004343E41A95B286B27543170C7E43030C52
:1040C0005F4392B25A43B61802D301221204BF18BA
:1040D0003204330C52197B4152429C41002C02D4D1
:1040E0000022013051414008CA071043490802B07C
:1040F0006246D7079210084BD218084B9A4203D257
:1041000012058918C919F0BD0020002A01DC390008
:10411000F0BD01331905F5E7FD030000FE070000BF
:10412000002200B5203200F004F8080000BD0000B5
:1041300000220B150AD410B5944600F031F814147F
:10414000013400DA0021CB17144C20470020002155
:1041500070476244343A0CD40C2A07DA04009140C8
:10416000904052422032D440214310BDD843D9431D
:1041700010BD203207D40C469440524220321141E7
:10418000D040204310BD0800C917203203D452424A
:104190002032104110BD1800190010BD534100100D
:1041A0000A0DCC0F531E1B05C91A520503D3C94370
:1041B000404200D30131520D03D0531CDB0A07D01B
:1041C000121B00206400611C89078912803A1203C7
:1041D000014BD21A70470000FF03000010B51323F3
:1041E0001C782748FFF77AF90100012C0FD008DD71
:1041F000831E1B789B007F2B3BDD8022214800F033
:1042000089F82148FFF762F9204B186010BD54224D
:104210001C4800F07FF81E4B1E4A12889A4225D196
:104220001D4BA722920112889A421FD11B4B1A885C
:104230001B4B9A421AD194239B011A4A12889A4224
:1042400014D1194B1A88194B9A420FD1184B194A9D
:1042500012689A420AD1184B19002C31174A04C32C
:104260008B42FCD1074B1A62DA61CAE71448FDF7AA
:10427000FDFF144B144A42211448FDF74BFFC04682
:1042800053460000BC0500204C330000B805002058
:10429000C40F0000EE290000C20D0000962B0000A4
:1042A000C0B50000182B0000CC2A000010B500009B
:1042B00051ED8764FC2C000010060020D142001054
:1042C000EC500010AC54001028550010E0540010C1
:1042D00007B56046002800D100BE01880A0A0230F6
:1042E000DF2AFAD1C9B2820804D3028840880004C8
:1042F000104300E00068024A5050039007BD0000E0
:10430000BC05002001480421014B1847C0020020D1
:10431000ED340010014B5B6818470000C00200201C
:1043200010B50300080011001B68984710BD00007D
:10433000F0B5CE4600B582B007000D001600437DF3
:10434000002B06D000240020002A34DD4B1E9946A5
:104350000FE003681100280098472CE03B7D10E037
:10436000022117483B689847019801300134A64262
:1043700014D0002CF2DD4B461B5D0D3B5A425341DD
:10438000DBB201942A5D0A2AF0D1002BEED1A042C3
:10439000E6DA211A28183B689847E1E7A04203DAD9
:1043A000211A28183B689847AD19013D2B780D3B21
:1043B0005A4253413B7502B080BCB946F0BDC0467D
:1043C000F8550010F8B505000368002B19D00D4B07
:1043D0001C68002C13D00C4E071D07E02A6839001A
:1043E0002000FFF7A5FF2469002C08D02368002BCC
:1043F000F9D03368002BF1D0A342F4D1EEE70023CB
:104400002B60F8BD840400208804002070B50500EE
:104410000C000B68802B05D021684B1C23606418AE
:10442000257170BD0800FFF7CDFFF5E710B5FDF76A
:104430006FF902000B1E09DB0948002112184B41DD
:10444000002B09DB074800F05FF910BD064B074A57
:104450003F210748FDF75EFE01225242054BF1E77E
:1044600040420F00D0020020244A0010E055001006
:10447000404A0010FFFFFF7F10B5024800F02CF902
:1044800010BDC046D0020020F0B5DE4657464E466D
:104490004546E0B583B080460D0091461C00FFF70D
:1044A000C5FF82466B1C0AD0002C0DD11C4F1D4B42
:1044B0001C68002C24D01C4E0A239B4609E0404671
:1044C00000F09AF80500EFE7184FF0E72469002C98
:1044D00016D02368002BF9D03368002B01D0A342FB
:1044E000F4D12A0041462000B8474B46002BEDD0BE
:1044F0006B465A46DA710122D91D2000B847E5E71C
:104500005346002B09D16B1E9D41E8B203B0F0BCAD
:10451000BB46B246A946A046F0BDFFF7ADFFF2E7A5
:10452000314300108404002088040020214300103F
:1045300010B5064B1C68002C04D110BD98472469A7
:10454000002CFAD06368002BF8D1F8E7840400202F
:1045500070B5050000F050F80400002301220100AE
:104560002800FFF791FFFFF7E3FF200070BD000078
:1045700070B5A2B004000E00FFF758FF050000233D
:1045800001933300220001A90848FEF787FF0400C9
:1045900001A8FFF717FFFFF7CBFF002D02D1200086
:1045A00022B070BDFFF768FFF9E7C0460D44001068
:1045B0000FB400B583B004A901C90191FFF7D8FF7A
:1045C00003B008BC04B01847931E10B50C00222B92
:1045D0000DD80A2A04D0210000F03CF8200010BDBC
:1045E0000028F8DA2D2340420B700131F4E7002354
:1045F00000200B70F3E7C04610B583070AD0030014
:10460000032102E001330B4205D01A78002AF9D1C8
:10461000181A10BD030019680C4A0D4C8A188A43F9
:1046200022420FD15968094A04338A188A43224228
:1046300008D15968054A04338A188A432242F1D0C6
:1046400000E001331A78002AFBD1E1E7FFFEFEFE0D
:1046500080808080F0B54746CE4680B58BB0E84676
:10466000170042461A4B05000C0043CB43C243CB14
:1046700043C243CB43C21B781370BB1E222B22D8EC
:10468000631E0026994628003900FEF76DFF42465A
:10469000525C4946330001368A552A00050097428C
:1046A000F1D90022A255002B07D0A15CE05CA054F8
:1046B000E1540132013B9A42F7DB20000BB0C0BC51
:1046C000B946B046F0BD002300202370F6E7C0468F
:1046D000FC550010F8B5C04601B40248844601BC40
:1046E000604700BFC901002001B40248844601BCF4
:1046F000604700BF1102002001B40248844601BC9B
:10470000604700BF1102002001B40248844601BC8A
:08471000604700BF9501002085
:104718006672616D6520636F756E743A20000000E3
:1047280048656C6C6F205541525421200A0D0000D9
:104738005374617274204853594E43210A0D000086
:1047480064656C7461203E3D202D3230343820265B
:10475800262064656C7461203C3D2032303436205C
:10476800262620212864656C7461202620312900C2
:10477800443A5C5653524D5C73646B5C7069636F6A
:104788005C7069636F2D73646B5C7372635C7270C9
:10479800325F636F6D6D6F6E5C68617264776172B2
:1047A800655F6972715C6972712E630063757272FC
:1047B800656E74203D3D205F5F756E68616E646C48
:1047C80065645F757365725F697271207C7C2063B4
:1047D800757272656E74203D3D2068616E646C650B
:1047E800720000006972715F68616E6465725F6370
:1047F8006861696E5F667265655F736C6F745F6828
:10480800656164203E3D20300000000076746162DE
:104818006C655F68616E646C6572203D3D205F5F0A
:10482800756E68616E646C65645F757365725F69E7
:1048380072710000212828282875696E74707472B6
:104848005F7429767461626C655F68616E646C651B
:104858007229202D20282875696E747074725F740F
:10486800296972715F68616E646C65725F63686103
:10487800696E5F736C6F747329202D20312925733D
:10488800697A656F662873747275637420697271CA
:104898005F68616E646C65725F636861696E5F739F
:1048A8006C6F74292900000030783163203D3D2069
:1048B800282A696E7374293E3E3131750000000064
:1048C80021657863657074696F6E207C7C206578DB
:1048D80063657074696F6E203D3D206E756D202B89
:1048E80020565441424C455F46495253545F495201
:1048F80051000000212864656C7461203E3E20311F
:104908003175290066616C736500000069735F7317
:1049180068617265645F6972715F7261775F68610F
:104928006E646C657228736C6F745F68616E646C1A
:1049380065722900657863657074696F6E000000A0
:10494800666F756E640000006972715F6164645F10
:104958007461696C5F746F5F667265655F6C6973BB
:1049680074000000696E736572745F6272616E63D1
:10497800685F616E645F6C696E6B00006972715F7D
:1049880072656D6F76655F68616E646C6572000054
:104998006D616B655F6272616E6368007265736FEB
:1049A8006C76655F6272616E636800006972715F40
:1049B8007365745F6578636C75736976655F686144
:1049C8006E646C6572000000746F74616C000000A6
:1049D800443A5C5653524D5C73646B5C7069636F08
:1049E8005C7069636F2D73646B5C7372635C636F77
:1049F8006D6D6F6E5C7069636F5F73796E635C6D0C
:104A0800757465782E6300006D74782D3E636F723F
:104A1800652E7370696E5F6C6F636B0075735F737F
:104A2800696E63655F626F6F74203C3D20494E5428
:104A380036345F4D41580000443A5C5653524D5C41
:104A480073646B5C7069636F5C7069636F2D73640A
:104A58006B5C7372635C636F6D6D6F6E5C706963C2
:104A68006F5F626173655C696E636C7564652F70F6
:104A780069636F2F74797065732E68006C6F636B50
:104A88005F69735F6F776E65725F69645F76616C8B
:104A98006964286D74782D3E6F776E657229000001
:104AA8006D74782D3E656E7465725F636F756E7494
:104AB800000000006D757465785F657869740000A2
:104AC8006D757465785F656E7465725F626C6F632F
:104AD8006B5F756E74696C0072742D3E616C6172E7
:104AE8006D5F6964203D3D2069640000443A5C566E
:104AF80053524D5C73646B5C7069636F5C7069637F
:104B08006F2D73646B5C7372635C636F6D6D6F6E36
:104B18005C7069636F5F74696D655C74696D652E3F
:104B2800630000006964202626206964203C3D203B
:104B3800706F6F6C2D3E686561702D3E6D61785F9A
:104B48006E6F64657300000069642026262069641E
:104B5800203C3D20686561702D3E6D61785F6E6F09
:104B680064657300443A5C5653524D5C73646B5CE5
:104B78007069636F5C7069636F2D73646B5C7372CB
:104B8800635C636F6D6D6F6E5C7069636F5F757486
:104B9800696C5C696E636C7564652F7069636F2FEF
:104BA8007574696C2F70686561702E68000000006C
:104BB8006368696C645F6964000000007061726515
:104BC8006E745F696420213D206368696C645F6965
:104BD800640000002170685F636F6E7461696E73B2
:104BE8005F6E6F646528706F6F6C2D3E68656170CD
:104BF8002C2072657573655F6964290072656D6F35
:104C08007665645F6964203D3D206E6578745F69F0
:104C18006400000063616C6C6261636B00000000FB
:104C2800706F6F6C2D3E616C61726D5F696E5F7045
:104C3800726F6772657373203D3D206D616B655FB0
:104C48007075626C69635F69642869645F68696725
:104C5800682C206E6578745F696429006964202671
:104C680026202170685F636F6E7461696E735F6E72
:104C78006F646528686561702C20696429000000EC
:104C880021686561702D3E667265655F7461696C47
:104C98005F69640064656661756C745F616C6172FC
:104CA8006D5F706F6F6C5F696E697469616C697A4A
:104CB8006564282900000000616C61726D5F696499
:104CC80020213D20706F6F6C2D3E616C61726D5FAD
:104CD800696E5F70726F677265737300726300004C
:104CE800616C61726D5F706F6F6C5F63616E63653D
:104CF8006C5F616C61726D007570646174655F757D
:104D0800735F73696E63655F626F6F7400000000A4
:104D1800616C61726D5F706F6F6C5F616C61726DF9
:104D28005F63616C6C6261636B0000006765745F50
:104D3800656E747279000000616C61726D5F706FEE
:104D48006F6C5F6765745F64656661756C7400009D
:104D58006765745F656E7472795F69645F686967B7
:104D68006800000070685F667265655F6E6F6465F5
:104D78000000000070685F6164645F6368696C6468
:104D88005F6E6F646500000070685F6765745F6ED2
:104D98006F6465006164645F616C61726D5F756EFC
:104DA8006465725F6C6F636B000000004861726439
:104DB8007761726520616C61726D20256420616C79
:104DC800726561647920636C61696D6564000000D7
:104DD80074696D65725F68772D3E696E74732026FD
:104DE800203175203C3C20616C61726D5F6E756D81
:104DF80000000000443A5C5653524D5C73646B5C8F
:104E08007069636F5C7069636F2D73646B5C737238
:104E1800635C7270325F636F6D6D6F6E5C68617238
:104E280064776172655F74696D65725C74696D65DC
:104E3800722E630068617264776172655F616C618C
:104E4800726D5F7365745F746172676574000000EA
:104E58007570646174655F75735F73696E63655FB0
:104E6800626F6F7400000000726F6F745F69640096
:104E7800443A5C5653524D5C73646B5C7069636F63
:104E88005C7069636F2D73646B5C7372635C636FD2
:104E98006D6D6F6E5C7069636F5F7574696C5C7063
:104EA800686561702E6300002170685F6765745FD4
:104EB8006E6F646528686561702C20726F6F745F0F
:104EC8006964292D3E7369626C696E670000000091
:104ED8002170685F6765745F6E6F646528686561D7
:104EE800702C20726F6F745F6964292D3E70617237
:104EF800656E74006E65775F7375625F7472656561
:104F080020213D20686561702D3E726F6F745F6966
:104F18006400000070685F72656D6F76655F616E32
:104F2800645F667265655F6E6F64650070685F7266
:104F3800656D6F76655F616E795F686561640000B5
:104F480070685F6164645F6368696C645F6E6F64F6
:104F58006500000070685F6765745F6E6F64650068
:104F68007372635F66726571203E3D20667265717B
:104F780000000000443A5C5653524D5C73646B5C0D
:104F88007069636F5C7069636F2D73646B5C7372B7
:104F9800635C7270325F636F6D6D6F6E5C686172B7
:104FA80064776172655F636C6F636B735C636C6F6E
:104FB800636B732E63000000636C6F636B5F636FDA
:104FC8006E6669677572650076636F5F6672657194
:104FD800203E3D20285049434F5F504C4C5F56437C
:104FE8004F5F4D494E5F465245515F4D485A202A02
:104FF800204D485A292026262076636F5F66726501
:1050080071203C3D20285049434F5F504C4C5F561F
:10501800434F5F4D41585F465245515F4D485A20B6
:105028002A204D485A290000443A5C5653524D5C98
:1050380073646B5C7069636F5C7069636F2D736414
:105048006B5C7372635C7270325F636F6D6D6F6EF1
:105058005C68617264776172655F706C6C5C706CBF
:105068006C2E63006662646976203E3D20313620EE
:105078002626206662646976203C3D203332300063
:1050880028706F73745F64697631203E3D2031204B
:10509800262620706F73745F64697631203C3D204A
:1050A80037292026262028706F73745F646976324A
:1050B800203E3D203120262620706F73745F64697E
:1050C8007632203C3D20372900000000706C6C5F70
:1050D800696E6974000000002C2066756E6374693F
:1050E8006F6E3A2000000000617373657274696F17
:1050F8006E2022257322206661696C65643A2066F9
:10510800696C6520222573222C206C696E65202528
:1051180064257325730A000031203D3D20287569F8
:105128006E747074725F74296C2D3E7370696E5F53
:105138006C6F636B00000000443A5C5653524D5C40
:1051480073646B5C7069636F5C7069636F2D736403
:105158006B5C7372635C7270325F636F6D6D6F6EE0
:105168005C7069636F5F72756E74696D655C72758A
:105178006E74696D652E63000A2A2A2A2050414EF2
:105188004943202A2A2A0A000A00000072756E7410
:10519800696D655F696E697400000000666E692B51
:1051A80000000000666E69006E616E00666E692D13
:1051B80000000000382F0010562F00106C2F001030
:1051C800562F00101E2F0010562F0010562F0010BB
:1051D800562F0010562F0010562F0010562F001073
:1051E800562F00104E2F0010562F0010562F00106B
:1051F800562F0010562F0010562F0010762F001033
:10520800882E0010382E0010382E00108E2E001018
:10521800382E0010382E0010382E0010382E0010AE
:10522800382E0010382E0010382E0010822E001054
:10523800382E00107C2E0010382E0010382E00104A
:10524800622E0010BA330010CE330010CE33001097
:10525800CE330010CE330010CE330010CE33001002
:10526800CE330010CE330010CE330010CE330010F2
:10527800CE330010CE330010CE330010CE330010E2
:10528800CE330010CE330010CE330010CE330010D2
:10529800CE330010CE330010CE330010CE330010C2
:1052A800CE330010CE330010CE330010CE330010B2
:1052B800CE330010CE330010CE330010CE330010A2
:1052C800CE330010703100102631001070310010FC
:1052D800CE330010CE330010CE330010CE33001082
:1052E800CE330010CE330010CE330010CE33001072
:1052F800CE330010CE330010CE330010CE33001062
:10530800CE330010CE330010CE330010CE33001051
:10531800802F0010CE330010CE330010CE33001093
:10532800CE330010CE330010CE330010CE33001031
:10533800CE330010CE330010802F0010C031001083
:10534800802F0010703100102631001070310010CD
:10535800CE330010802F0010CE330010CE33001053
:10536800CE330010CE330010CE330010802F001043
:105378008A330010CE330010CE33001052320010A2
:10538800CE330010802F0010CE330010CE33001023
:10539800802F001000000000000000000000F03F17
:1053A80000000000000024400000000000005940F8
:1053B8000000000000408F40000000000088C3404B
:1053C80000000000006AF8400000000080842E41C0
:1053D80000000000D01263410000000084D797410C
:1053E8000000000065CDCD412A282875696E743803
:1053F8005F74202A29282828766F6964202A297250
:105408006F6D5F646174615F6C6F6F6B757028722C
:105418006F6D5F7461626C655F636F6465282753A5
:10542800272C202746272929292D322929202A20D7
:1054380034203E3D2053465F5441424C455F56322E
:105448005F53495A45000000443A5C5653524D5C3C
:1054580073646B5C7069636F5C7069636F2D7364F0
:105468006B5C7372635C7270325F636F6D6D6F6ECD
:105478005C7069636F5F646F75626C655C646F759F
:10548800626C655F696E69745F726F6D2E63000090
:105498005F5F61656162695F646F75626C655F69B2
:1054A8006E6974002A282875696E74385F74202A1A
:1054B8002928726F6D5F7461626C652D322929200D
:1054C8002A2034203E3D2053465F5441424C455FDC
:1054D80056325F53495A4500443A5C5653524D5C24
:1054E80073646B5C7069636F5C7069636F2D736460
:1054F8006B5C7372635C7270325F636F6D6D6F6E3D
:105508005C7069636F5F666C6F61745C666C6F6119
:10551800745F696E69745F726F6D2E6300000000BE
:105528005F5F61656162695F666C6F61745F696E18
:10553800697400004465627567000000626F6F74EB
:10554800325F77323571303830000000687474701B
:10555800733A2F2F6769746875622E636F6D2F72A7
:10556800617370626572727970692F7069636F2DEB
:105578006578616D706C65732F747265652F484529
:1055880041442F7667610000312E352E300000002F
:105598007069636F00000000766761004A756C20CF
:1055A800203520323032330006005250BBFF3CB663
:1055B80098550010060052509A235618545500105A
:1055C80006005250E182887F445500100600525070
:1055D800D3F075423C5500107570646174655F7551
:1055E800735F73696E63655F626F6F7400000000BC
:1055F8000D0A0000303132333435363738396162BC
:10560800636465666768696A6B6C6D6E6F707172EA
:0C561800737475767778797A00000000D2
:10562400AC020010A002001094020010B05500104B
:1056340088020010BC550010C8550010D455001045
:1056440003000068EFF3108C72B60268002AFCD0E5
:10565400BFF35F8F04229A56002A0BDB00290FD078
:105664000A6000201B68BFF35F8F00221A608CF36E
:1056740010887047D022120612681A710120F1E7CF
:105684000020EFE7F0B5D6464F464646C0B50400C5
:10569400170098460368002B20D0D0231B061B68F4
:1056A4009A46002399462668EFF3108372B635684C
:1056B400002DFCD0BFF35F8F25797F2D14D822688D
:1056C400BFF35F8F4946116083F310883800414669
:1056D40000F06AF80028E6D000200FE00A4B0B4ADD
:1056E40085210B4800F058F8524622712268BFF316
:1056F4005F8F0021116083F310880120E0BCBA465B
:10570400B146A846F0BDC046104A0010C84A001071
:10571400D849001070B582B0060015001C0001A91C
:10572400FFF78EFF002807D1019B5BB2D02212063F
:10573400127852B2934201D102B070BD2A00230004
:105744003000FFF79FFFF7E710B50268EFF3108111
:1057540072B61368002BFCD0BFF35F8F03797F2BE5
:105764000AD8FF2303710368BFF35F8F00221A6016
:1057740081F3108840BF10BD024B034AB421034893
:1057840000F00AF8844A0010BC4A0010D8490010FE
:105794007047C0460000000001B40248844601BCC2
:1057A400604700BF1521001001B40248844601BCC3
:1057B400604700BFCD15001010000000000000007D
:1057C40000000100000000000000000000000200D2
:1057D40000000000000000000000030000000000C2
:1057E400000000000000FF000000000001B5486850
:1057F40001318E460047704609380149884701BD8A
:10580400E50B00109C02002000000000F0020020C4
:1058140044040020000000000000000054040020A4
:105824000000000000000000100000000000000064
:10583400503300004C330000543300005233000056
:105844004D5300004D430000533400004334000026
:10585400000000000000000005430010BD340010EB
:0C586400B13B0010DD410010E502001017
:04000005100001E9FD
:00000001FF
