:020000041000EA
:1000000000B5324B212058609868022188439860DF
:10001000D860186158612E4B002199600221596106
:100020000121F02299502B49196001219960352056
:1000300000F044F80222904214D00621196600F024
:1000400034F8196E01211966002018661A6600F04E
:100050002CF8196E196E196E052000F02FF8012189
:100060000842F9D1002199601B49196000215960AB
:100070001A491B48016001219960EB211966A021F2
:10008000196600F012F800219960164914480160C1
:100090000121996001BC002800D000471248134993
:1000A000086003C880F30888084703B5996A0420EC
:1000B0000142FBD001200142F8D103BD02B5186610
:1000C0001866FFF7F2FF186E186E02BD00000240BE
:1000D000000000180000070000035F00212200005C
:1000E000F4000018222000A00001001008ED00E03C
:1000F00000000000000000000000000074B24E7A12
:1001000000200420F7010010C3010010C5010010F9
:10011000C1010010C1010010C1010010C101001097
:10012000C1010010C1010010C1010010C701001081
:10013000C1010010C1010010C9010010CB01001065
:10014000CD010010CD010010CD010010CD01001037
:10015000CD010010CD010010CD010010CD01001027
:10016000CD010010CD010010CD010010CD01001017
:10017000CD010010CD010010CD010010CD01001007
:10018000CD010010CD010010CD010010CD010010F7
:10019000CD010010CD010010CD010010CD010010E7
:1001A000CD010010CD010010CD010010CD010010D7
:1001B000CD010010CD010010CD010010CD010010C7
:1001C00000BE00BE00BE00BE00BE00BEEFF3058054
:1001D000103800BEF2EB8871A0320010C03200105F
:1001E0003402001090A31AE700201F49086006C8D7
:1001F00081F3088810471D48006800282FD10DA4FE
:100200000ECC002902D000F012F8F9E71849194A7B
:10021000002000E001C19142FCD1174988471749ED
:1002200088471749884700BEFDE701C901C29A42C5
:10023000FBD37047C0320010C0000020BC02002079
:10024000BC3400100000042000000420BC34001066
:10025000001004200010042000000000704709482E
:1002600002F0ECF80047000008ED00E0000000D0CC
:10027000C002002080360120A9220010B50700101E
:10028000A92300105756000006005250ABB360532C
:100290000C32001006005250861C03021C32001063
:1002A000060052505422A29D2432001005005250E4
:1002B000DE65F468BC340010F8B5C04610B5064CD5
:1002C0002378002B07D1054B002B02D0044800E017
:1002D00000BF0123237010BDC003002000000000F8
:1002E00050300010044B10B5002B03D003490448D4
:1002F00000E000BF10BDC04600000000C4030020A5
:1003000050300010F0B5DE4657464E464546E0B543
:100310008DB0814C8149206802F01CFD82468049E5
:10032000206802F017FD039020687E4902F012FD5C
:1003300083467D4F0A2000217C4B20227C4D0D24DA
:1003400015E099690A42FCD1186007E099690A42F0
:10035000FCD11C6099690A42FCD1186039780D39CA
:1003600048424141C9B201373878002806D00029F7
:10037000E7D10026A95F8142ECD1E7E70A226D4967
:10038000504602F0BBFD07000078002822D0002173
:10039000664B2022664D0D2415E099690A42FCD176
:1003A000186007E099690A42FCD11C6099690A4209
:1003B000FCD1186039780D3948424141C9B2013742
:1003C0003878002806D00029E7D10026A95F8142AD
:1003D000ECD1E7E7584F20200021544B2022544D08
:1003E0000D2415E099690A42FCD1186007E099696B
:1003F0000A42FCD11C6099690A42FCD11860397824
:100400000D3948424141C9B201373878002806D039
:100410000029E7D10026A95F8142ECD1E7E70A2253
:100420004449039802F06AFD07000078002822D0B2
:1004300000213E4B20223E4D0D2415E099690A42D1
:10044000FCD1186007E099690A42FCD11C609969E7
:100450000A42FCD1186039780D3948424141C9B28D
:1004600001373878002806D00029E7D10026A95F97
:100470008142ECD1E7E7314F202000212B4B202295
:100480002B4D0D2415E099690A42FCD1186007E054
:1004900099690A42FCD11C6099690A42FCD1186032
:1004A00039780D3948424141C9B2013738780028BE
:1004B00006D00029E7D10026A95F8142ECD1E7E709
:1004C0000A221C49584602F019FD0700007800284E
:1004D00036D00021154B2022154D0D2415E09969C9
:1004E0000A42FCD1186007E099690A42FCD11C60FD
:1004F00099690A42FCD1186039780D394842414166
:10050000C9B20137387800281AD00029E7D100266F
:10051000A95F8142ECD1E7E7F8010020BC30001070
:10052000F4300010D830001050300010004003406C
:10053000B8060020780400206430001078300010E5
:10054000764B1F6800230B9380235B029946089328
:10055000F8235B020993C0231B0398460A931022D9
:1005600008A904A802F07EFA4B46049353460133CF
:10057000DB015246083212031343059343460693A8
:10058000102204A908A802F06DFA654B0B93A02372
:10059000DB020893634D79194B1E99410631042003
:1005A00000F0C8FB0123009304220021380002F070
:1005B000EDFB08AB52460021380002F04BFC574BD4
:1005C0001E68039C631CDB0122000C3212031343E0
:1005D000554A13408022D2051343099343460A9398
:1005E000524B0B93A023DB02089371194B1E9941C8
:1005F0000631022000F09EFB01230093022201211C
:10060000300002F0C3FB08AB22000121300002F0F1
:1006100021FC424B1F6800230B934E460896F8239B
:100620005B02099345460A95102208A904A802F026
:1006300019FA04965A46931CDB010832120313433D
:1006400005930695102204A908A802F00BFA384B6E
:100650000B93344D7E19731E9E41063606253100DC
:10066000280000F067FB01350E2DF8D1012300931F
:10067000073306220221380002F088FB08AB5A46F5
:100680000221380002F0E6FB244B1B68802149025E
:100690005A680A42FCD1274A1A61802189025A68A5
:1006A0000A42FCD1E022FF325A618021C9025A6815
:1006B0000A42FCD14022FF329A6180229201134308
:1006C0001D4A1A601D4C0A2000211D4B20221D4E80
:1006D0000D2515E099690A42FCD1186007E0996977
:1006E0000A42FCD11D6099690A42FCD11860217848
:1006F0000D3948424141C9B201342078002806D062
:100700000029E7D10027F15F8142ECD1E7E70DB086
:10071000F0BCBB46B246A946A046F0BDF801002099
:10072000800000040000E0AFFFFFFF9F400800448E
:10073000060080008F0200000707000088300010CC
:1007400000400340B8060020F8B5DE4657464E4646
:100750004546E0B58046154B1B689A46144F9623D4
:100760005B029B46BB440026A0235B009946002504
:100770003100280001F088FE04002900300001F05B
:1007800083FE444043465C40E44353461C417C5551
:1007900001354D45ECD101364137FF375F45E6D194
:1007A000F0BCBB46B246A946A046F8BD04040020F2
:1007B000BC060020F8B5DE4657464E464546E0B535
:1007C00000F0DAF800F040FAFFF79CFD00F090FA34
:1007D000624B9A46624B984600239B46614EACE0C2
:1007E00099690A42FCD1186007E099690A42FCD174
:1007F0001C6099690A42FCD1186039780D39484269
:100800004141C9B201373878002806D00029E7D124
:100810000025715F8142ECD1E7E70A225249584630
:1008200002F06CFB03000078002823D01F00002199
:100830004E4B20220D2415E099690A42FCD1186024
:1008400007E099690A42FCD11C6099690A42FCD10F
:10085000186039780D3948424141C9B201373878BA
:10086000002807D00029E7D13E490025495F814291
:10087000EBD1E6E73E4C3A2000213C4B20220D27ED
:1008800015E099690A42FCD1186007E099690A42AB
:10089000FCD11F6099690A42FCD1186021780D399A
:1008A00048424141C9B201342078002807D00029CC
:1008B000E7D12C490025495F8142EBD1E6E74B4661
:1008C00018681022284902F019FB0300007800285C
:1008D00025D01C000021254B2022224DA9460D27A2
:1008E00015E099690A42FCD1186007E099690A424B
:1008F000FCD11F6099690A42FCD1186021780D393A
:1009000048424141C9B201342078002807D000296B
:10091000E7D149460025495F8142EBD1E6E7012353
:100920009C46E3444033FF339C46E2443D3BFF3B5F
:100930009C46E0445B46F02B0AD0C14643465246F3
:100940001A600C4F0A200021084B20220D245DE77D
:1009500000242000FFF7F8FE0134FAE7BC0600206F
:10096000BC320120B806002078040020004003407B
:10097000B830001098300010F8B50221002000F0C7
:10098000D9F90221012000F0D5F9E1211E4C4902DC
:10099000200001F0DDFA236BC022120213401B4A33
:1009A0001360E36A60225A406E231340184A1360B2
:1009B000184B2363E16A10238B431360164C0A2003
:1009C0000021114B2022154E0D2515E099690A4290
:1009D000FCD1186007E099690A42FCD11D60996951
:1009E0000A42FCD1186021780D3948424141C9B210
:1009F00001342078002806D00029E7D10027F15FD4
:100A00008142ECD1E7E7F8BD00400340305003409D
:100A10002C5003400103000018310010B8060020DC
:100A2000F8B5102809D011282ED0794C0A200021C1
:100A3000784B2022784E0D2563E0D0231B065B689F
:100A40009B0319D5754C2368581C032101F01CFD2C
:100A5000216000290AD1D0231B06802292045A610A
:100A600089006F4BCA586F4B1A60DEE7D0231B0614
:100A7000802292049A61F3E76B4C2368581C28216A
:100A800001F002FD2160D0E7D0231B065B68DB0389
:100A900019D5624C2368581C032101F0F5FC216034
:100AA00000290AD1D0231B06802292045A618900B2
:100AB0005B4BCA585B4B1A60B7E7D0231B068022FA
:100AC00092049A61F3E7594C2368581C062101F0FF
:100AD000DBFC2160A9E799690A42FCD1186007E0B4
:100AE00099690A42FCD11D6099690A42FCD11860DB
:100AF00021780D3948424141C9B20134207800289B
:100B000006D00029E7D10027F15F8142ECD1E7E769
:100B1000464B18680A22464902F0F0F904000078B2
:100B2000002822D000213B4B20223B4E0D2515E012
:100B300099690A42FCD1186007E099690A42FCD120
:100B40001D6099690A42FCD1186021780D3948422C
:100B50004141C9B201342078002806D00029E7D1EC
:100B60000027F15F8142ECD1E7E7324C20200021E1
:100B7000284B2022284E0D2515E099690A42FCD108
:100B8000186007E099690A42FCD11D6099690A4220
:100B9000FCD1186021780D3948424141C9B2013475
:100BA0002078002806D00029E7D10027F15F814294
:100BB000ECD1E7E71C4B18680A221D4902F09EF9A8
:100BC00004000078002822D00021124B2022124E6F
:100BD0000D2515E099690A42FCD1186007E0996972
:100BE0000A42FCD11D6099690A42FCD11860217843
:100BF0000D3948424141C9B201342078002806D05D
:100C00000029E7D10027F15F8142ECD1E7E7F8BD89
:100C10002831001000400340B806002000040020E6
:100C2000E8010020F401002004040020FC0300205F
:100C3000780400203C31001010B5042900D010BD0C
:100C4000FFF7EEFEFBE70000F8B5192000F062F9AF
:100C5000D02424068025AD046562102000F05AF9E6
:100C600000220121102000F07DF8112000F052F93F
:100C700000220121112000F075F8194B01220C21EE
:100C8000102000F0DDF801220C21112000F0B2F854
:100C90006561144C0A200021134B2022134E0D25B0
:100CA00015E099690A42FCD1186007E099690A4287
:100CB000FCD11D6099690A42FCD1186021780D3978
:100CC00048424141C9B201342078002806D00029A9
:100CD000E7D10027F15F8142ECD1E7E7F8BDC046DC
:100CE000390C00106031001000400340B8060020AD
:100CF0000B4B1A6818320B49A023DB0519605A60A8
:100D0000962252029A60084A1A61084A116053609A
:100D100001219160064810618622D20099507047E7
:100D2000F8010020FC0100201108010040000050E3
:100D300009801F0010B58300084A944663441C686C
:100D400040226240C02414408022520113431C60A0
:100D5000C000034B9C466044416010BD04C001408C
:100D6000004001408000094B9C4660444B1E994165
:100D7000C900531E9A4192000368114359400C2246
:100D8000114080235B0118430160704704C001409B
:100D900070B50400D0231B061D68AA000C4BD35865
:100DA000002B0AD0002803D0AD00094BEC5070BDD9
:100DB00008490D2000F05EFAF6E70028F7D0AD00F4
:100DC000034BE850002203490D2000F065F9EEE7DF
:100DD000F4030020610E00100200C3080720104039
:100DE000800081403C339B00014A99507047C046C7
:100DF00000400140F8B507000D001600D0231B0687
:100E00001C68631E9C41634230241C400B4B9C4673
:100E10006444FFF7E1FFFB089B00E418072038401B
:100E200080008540002E04D080239B011C43256058
:100E3000F8BDC0239B011C432560F9E70041014038
:100E400070B514001D00FFF7D5FF2800FFF7A0FFC5
:100E5000002C00D170BD01210D2000F0EBF8F9E766
:100E6000F0B5DE4657464E464546E0B583B0D02342
:100E70001B06196801918A00234BD35800930B007D
:100E80005A1E93415B4230221A4093461F4B9C46A8
:100E9000E34408270F261E4B9A461FE0240901351C
:100EA000002C18D0AF4216D9330023409846264272
:100EB000F4D00123AB40524649468A581A42EDD13C
:100EC00041462800FFF788FF009B002BE6D04146F3
:100ED00028009847E2E70837282F0ED03D00083D4C
:100EE000EB0808339B005A469C58002CF3D0AF42C5
:100EF000F1D9019B9B009946D6E703B0F0BCBB46F5
:100F0000B246A946A046F0BDF403002000410140CE
:100F10009804002010B501238340D022120693626A
:100F200093610521FFF706FF10BD0000024B186812
:100F30008007C00F7047C04600C00640EFF3108026
:100F400072B6034A1368002BFCD0BFF35F8F704763
:100F50002C0100D0BFF35F8F024B00221A6080F398
:100F6000108870472C0100D0F8B505000C00160061
:100F7000FFF7E4FFE308EF18EA5C072121400123B3
:100F80008B40134204D113433B70FFF7E3FFF8BDDE
:100F90002100300001F00CFA044B0021044ABFF399
:100FA0005F8F02C39342FAD17047C046000100D060
:100FB000800100D0064B1878431CDBB2172B02D8F7
:100FC000034A137002E0024B10221A707047C046A9
:100FD00000020020074B9B6810308000C150BFF317
:100FE0005F8FBFF35F8F044B0021196082F310887D
:100FF0007047C04600ED00E0240100D0044B1B68A0
:101000000122824013405A1E9341D8B27047C04615
:1010100000E100E0002904D0034B1860034B186086
:101020007047034B1860FBE780E200E000E100E05E
:1010300080E100E010B5012383401800FFF7EAFFCC
:1010400010BD0000024B9B6810308000C0587047F4
:1010500000ED00E070B504000D00EFF3108672B6ED
:101060000B4A1368002BFCD0BFF35F8F2000FFF703
:10107000E9FF084B984201D0A84205D1320029006F
:101080002000FFF7A7FF70BD01F0AAF9F6E7C04600
:10109000240100D0CD010010F0B5DE4657464E4683
:1010A0004546E0B583B0804601911500EFF3108A04
:1010B00072B6644A1368002BFCD0BFF35F8F624B9B
:1010C0001B787F2B3DD8604A002696577400A419E0
:1010D000A4005E4B19190091897911705C4A9168DE
:1010E0004246103292005158CB1A2F2B2FD9594B10
:1010F000994229D1554871008B199B00564A1A52C2
:10110000C21802342418554B043B1B1B1B055B0DF6
:10111000534C23435380534B9380FF239371D571DA
:10112000019B93600121009B0B43190052464046EE
:10113000FFF750FF03B0F0BCBB46B246A946A0463D
:10114000F0BD01F04DF9BEE701F04AF9D2E7012305
:101150000A009A4313001000D279AA423CD93B4BB3
:101160009C4600E0180006228256002A17DB530036
:101170009B189B006344DF79AF42F3D883885B05FB
:101180001B15C3180434314FBC4664441B1B043385
:101190001B055B0DE02424022343994601E0324BFA
:1011A0009946009C241A083C2405640D2C4F3C43AE
:1011B00084808671254C7700B81980002B4B03532F
:1011C000B81980002018813B43804B468380827190
:1011D000C571019B8360A9E71C49254A91461A0005
:1011E0004846521A52415043000D814672009446BF
:1011F00092199200184850526246901980000818BF
:10120000A21C93468B44154A043A5F46D21B120532
:10121000520D134F3A434280221D52189A1A043A33
:101220001205520D3A4382804A468271C571019A75
:1012300082600E4A1A80813A5A800121009B0B433A
:10124000190073E7240100D07D360120040200203C
:1012500000ED00E0CD01001000A1FFFF34020020EE
:1012600000E0FFFF01BDFFFF01BD000001480000DD
:10127000AAAA0000F0B5D6464F464646C0B582B091
:1012800004000D00EFF3108872B6584A1368002B63
:10129000FCD0BFF35F8F564B9B6827001037BA0016
:1012A000D658544B9E4207D0AE4200D181E0019601
:1012B000514BF31A2F2B0AD9424631002000FFF779
:1012C00089FE02B0E0BCBA46B146A846F0BD200097
:1012D000FFF794FE814600212000FFF7ABFEBFF32D
:1012E0005F8FEFF305839A46002B03D09F4201D016
:1012F00001F076F80123019F9F43BB689D425AD0BD
:101300003D4900E0170006203856002856DB430010
:101310001A18920052189368AB42F3D10621515625
:10132000002930DB4B005B189800334B1B18986882
:101330009060D879D0710620185690719B797F2BD8
:101340001FD82D4D4800401880002818808840057F
:1013500003154800401880001B1808335B199B1ABE
:10136000083B1B055B0DE0200002034393804B000C
:101370005B189B00204AD318204A1078987111708E
:101380001EE01F4BF2E75346002B22D1002F0ED058
:10139000FF23BB711B4BBB8018490B7893711A4B11
:1013A0001548121A524153431B0D0B7008E0114EA1
:1013B000F2E7104E80E73A000027AFE79D4204D0E5
:1013C00049462000FFF736FE76E73A005346002BE9
:1013D000DED00E4B9B1A083B58085B025B0D0C4994
:1013E0000B4393800B4B0343D380E9E7240100D0E8
:1013F00000ED00E0CD010010040200207D36012048
:1014000001BD000001BDFFFFAAAA00003E020020AE
:1014100000F0FFFF00F8FFFF70B501240443EFF375
:101420000582EFF3108C72B61C490B68002BFCD0C0
:10143000BFF35F8F1A4B01001A4D491B49414B43C3
:101440001B0D59B2184B9D689300EA58A24215D063
:10145000144A0023062414578C4214D001330C3252
:10146000042BF7D1114B1A7882711970BFF35F8F7B
:101470000A4B00221A608CF3108870BD0A4A9268E9
:101480000B4CD450EEE7074D5A00D418A4002C1989
:10149000FF26A671074BA380E4E7C046240100D0D5
:1014A000AAAA00000402002000ED00E07D36012021
:1014B000CD01001001BDFFFF084B094A1360094A26
:1014C0001360094A1360094A1360094A1360094A04
:1014D0001360094A1360094A136070478080808056
:1014E00000E400E004E400E008E400E00CE400E0D4
:1014F00010E400E014E400E018E400E01CE400E084
:10150000024B9C46614489000160704740000034F2
:1015100010B50400FFF74EFD01002000FFF7F0FFBB
:10152000FF232371BFF35F8F10BD10B50400FFF7D9
:1015300041FD01002000FFF7E3FFFF23237100239B
:101540006371BFF35F8F10BD30B504684800401869
:101550000338251853009B18033BE3189970215C4E
:10156000002901D12A7030BD59702A70FBE70000B4
:1015700010B583680A4884466144090159186244D9
:1015800012019A18012053684C68A34201D802D076
:101590000020C0B210BD12680B689A42F9D8F7E774
:1015A000FFFFFF0F70B505000C00080000F0C2FB44
:1015B0000949200000F016FBFFF7FCFC074B9C4696
:1015C0006044800068602C75D0231B061B686B7517
:1015D000A400034BE55070BDF51600104000003428
:1015E000880400200A4B1A68EFF3108172B6136862
:1015F000002BFCD0BFF35F8F054B1B68BFF35F8FE1
:1016000000221A6081F3108840BF0020002170473B
:10161000A4060020F0B5D64600B582B005000092C1
:1016200001930AAB1C780BAB1F78002C31D0304BE8
:10163000E3181B01AA6894466344009A1A60019A51
:101640005A60089A9A60099ADA602E6863001B193A
:10165000033B32689446634400229A705A701A70B1
:10166000737B9A46002B2ED022005146B0687368D7
:101670009847002822D0220051463000FFF764FF2F
:1016800053467373A2451FD0200002B080BCBA46F7
:10169000F0BD0268907B0028F7D043001B18033B85
:1016A00011688C46634459789173002900D1D17335
:1016B00000229A705A701A700400B8E7524621004E
:1016C0003000FFF741FF7473287D009A019B00F002
:1016D000D1FA061E01D0002F05D020000C9B002B54
:1016E000D3D01E70D1E72868210000F0F3FBF4E7A7
:1016F000FFFFFF0FF0B5DE4657464E464546E0B5C4
:101700008DB00B9000239B468200704BD3589A46B5
:101710000023994654462BE0002901D1002848D1E6
:101720004946069800F0CCFB2A686B68069207933E
:10173000AB680A93ED68E3685344013B1B789B4612
:101740001B0203432361484605E04D4600230693F0
:1017500007930A9548466368BFF35F8F4A461A604D
:1017600088F310880A9E002E2CD1002800D1A5E015
:1017700000F02EFA06000F006268EFF3108872B6D0
:101780001368002BFCD0BFF35F8F236806935B7B4D
:101790009A46002BD9D04E4D55442D01A3689C4646
:1017A00065442A686B6810001900801BB941002944
:1017B000B2DD0B9800F05EFA4D46002306930793C6
:1017C0000A95C8E75B461802534618432900B047FC
:1017D000089009916268EFF3108872B64746136863
:1017E000002BFCD00A96B846BFF35F8F0899099A80
:1017F000002A28DB099B002B40DD2369002B44D104
:101800002368D97B002907D04A00521819688C46F2
:101810006244033A514651709A7B002A01D15246E4
:101820009A735246DA735346013BE168CA5C01324F
:10183000CA544B4623616368BFF35F8F4A461A6000
:1018400088F3108894E72369002BD9D0069E079F60
:10185000761A974132003B1E0CDB49460491012168
:1018600003915146029101950A9900912000FFF7DA
:10187000D1FEDEE701225242164BEEE7089A099BA1
:10188000002BBDD1002AB8D1BAE700F0A1F9089A1F
:10189000099B12184B41002B0CDB49460491012196
:1018A00003915146029101950A9900912000FFF79A
:1018B000B1FEBEE701225242064BEEE70DB0F0BC8E
:1018C000BB46B246A946A046F0BDC04688040020EB
:1018D000FFFFFF0FFFFFFF7F10B50C4B5B68002B76
:1018E00004D00A210A48FFF70BFE10BD074C230065
:1018F000084A1021206800F089FA032000F05CF902
:1019000003212000FFF74EFEEBE7C0464C0200200B
:10191000A406002071150010F0B5DE4657464E466D
:101920004546E0B58BB0814614001D00149B9B46D4
:10193000159B9A4616AB1B7807931F2302AA944661
:10194000634400221A700023984625E00124644273
:101950002F4D21E000F03CF934003D0024184D41AA
:10196000002D19DA01246442294D15E0012040427E
:1019700045E0002043E0079B002B47D051464046FE
:10198000D84706000F0003000B43F2D00029E1DA2C
:10199000A41BBD41002DD9DB4B465A68EFF31086DE
:1019A00072B61368002BFCD0BFF35F8F1F2302AA0F
:1019B000944663440493434603930293534601932E
:1019C0005B46009322002B004846FFF723FE0200EF
:1019D000031E04D04B46DB681B18013B1B784946AD
:1019E0004968BFF35F8F47460F6086F31088002A6F
:1019F000BCD002AAD27F002ABDD11B0218430BB073
:101A0000F0BCBB46B246A946A046F0BD0020F6E7B2
:101A1000FFFFFF7F70B504004268EFF3108572B6D8
:101A20001368002BFCD0BFF35F8FCEB22268537BCC
:101A3000B34211D0FF230B405800C31810688446EE
:101A40006344033B9B78002B06D1002023698B4223
:101A50000ED1002323610BE0FF230B40E068844696
:101A60006344013B090A1B78C9B200208B4207D0AE
:101A70006368BFF35F8F00221A6085F3108870BD22
:101A80003100100000F026FAF2E7000070B584B0D3
:101A900006000D00EFF30583002B0CD01C4B596A98
:101AA00000208D4220D89B6A0130B3421CD2681AB4
:101AB000431E984118E0002302930193154B0093B5
:101AC00002000B001448FFF727FF011E0EDC104B2D
:101AD000586A0024854206D89B6A0134B34202D278
:101AE0002C1A631E9C41200004B070BD20BF0A4820
:101AF000FFF790FF064B586A0024854206D89B6A80
:101B00000134B34202D22C1A631E9C412000EBE741
:101B100000400540E51500104C020020F0B5C64617
:101B200000B5EFF3058318001038EFF3108C72B690
:101B30001A490A68002AFCD0BFF35F8F01242200F3
:101B4000824017494A6317490A6017490D782E00E9
:101B5000C640002134420CD011494C6A8100134E1A
:101B600089598C4212D383001149595895430E4B21
:101B70001D70BFF35F8F094B00221A608CF3108831
:101B8000002900D0884780BCB846F0BD9B00094AB8
:101B9000904643441A681A600021EAE7280100D001
:101BA000004005403C7005407E360120A80600201C
:101BB000E4030020D03F054010B50100024A03486D
:101BC000FFF7D2F910BDC046703100107C360120FD
:101BD000034B596A986A0A00596A8A42FAD17047D7
:101BE0000040054070B504000D00EFF3108672B69A
:101BF0001B4A1368002BFCD0BFF35F8F002D1CD055
:101C00002000FFF71FFA174B83420BD0190020006A
:101C1000FFF720FA01212000FFF70CFA0123A3406F
:101C2000114A1360A400114BE550BFF35F8F0C4BBA
:101C300000221A6086F3108870BDA2000B4B0021B1
:101C4000D1500B490122A2400B7893430B700549F8
:101C50002000FFF70FFB00212000FFF7EBF9E4E77E
:101C6000280100D01D1B001038600540E40300204F
:101C70007E360120F0B5D6464F464646C0B5050033
:101C800016001C00FFF7A4FF8C4202D846D1864202
:101C900044D9EFF3108A72B6214A1368002BFCD0A6
:101CA000BFF35F8F1F4B1A7891460127AF403A432D
:101CB000D2B290461A701C4B5F632A1D9200D65018
:101CC000AA001A4954501B6A00203B420BD1BFF3B3
:101CD0005F8F134B00221A608AF31088E0BCBA466B
:101CE000B146A846F0BDFFF773FF8C4212D801D170
:101CF00086420FD8C8450FD00B4B1F625F631F2071
:101D000005400123AB400A4A1360064B4A461A704D
:101D10001E38DCE70020DAE70120D8E70120DDE704
:101D2000280100D07E36012000400540A806002092
:101D300080E200E0EFF3108C72B60B4A1368002BC0
:101D4000FCD0BFF35F8F01238340084A1362084928
:101D50000A789A430A70BFF35F8F034B00221A6020
:101D60008CF310887047C046280100D00040054021
:101D70007E36012030B50468480040180338251825
:101D800053009B18033BE3189970215C002901D193
:101D90002A7030BD59702A70FBE770B506000D003F
:101DA0001400100000290DD00800002A0AD0B068E5
:101DB00073689847002806D0220029003000FFF7FA
:101DC000D9FF280070BD2A0021003000FFF7D2FFA4
:101DD0002000F7E70023437301338373027BC27350
:101DE000012A0BD95A00D218033A01688C46624482
:101DF0000133DBB25370027B9342F3D3036851008B
:101E00008A189A18033A00235370704710B501736B
:101E100042608360FFF7DEFF10BD70B50400081E4E
:101E200007D0216843001B18033BCA185278002AC8
:101E300000D170BD5500AD18033D49194E780025FD
:101E40004D7021688C4663445D7001002000FFF7EF
:101E5000A4FF050031002000FFF7DFFF020029008A
:101E60002000FFF79AFFE4E7F8B504000E00170022
:101E70004D006D18033D0368595DFFF7CEFF030069
:101E8000002F0ED0E17B002906D04A0052182168AD
:101E90008C466244033A5670A27B002A00D1A67396
:101EA000E673002B07D043001B1822689446634456
:101EB000033B00229A7023685D1900236B70F8BD04
:101EC00070B504000A00457B2900FFF7CDFF607361
:101ED000280070BD70B50400002934D0437B8B42CC
:101EE00018D0056848004018033828188278002A5E
:101EF0002BD053009B18033BEE18EA5C8A420ED0AD
:101F000053009B18033BEB185A788A4218D0002ADA
:101F1000F6D106E00121FFF7D3FF01200FE043785F
:101F2000337000238370437001222000FFF79CFF71
:101F30000200617B2000FFF730FF6073012070BD5D
:101F400042785A70EDE70020F9E70020F7E700003B
:101F500070B504000D00062000F02CF9C000290027
:101F600000F0BAFAC6090125002E0AD00D4B9E4298
:101F700005D87F23184001303500460801E00026CF
:101F8000094D6562A6622C34802080010443002341
:101F90002360062000F00EF98000A901891900F0E5
:101FA0009BFA70BDFEFF0000FFFF0000F8B5DE46A3
:101FB00057464E464546E0B50500884616000A9A43
:101FC0009A4200D971E01A0E91461F020A9A002324
:101FD0003800494600F0BEFA82466C006419A4003D
:101FE000334B9C4664446368834200D260602B1F7D
:101FF000DBB29B46012B35D9C0239B0123438022B2
:1020000012011A60AB002B4A9958002905D050697B
:1020100000F062FA01300138FDD122687601724089
:10202000E0261640210080235B0123431E605A46B0
:10203000012A2DD980239B010B43802212011A60B3
:1020400053466360AD00524600233800494600F015
:1020500081FA184B58510120F0BCBB46B246A94644
:10206000A046F8BD4346012BC6D1C0239B012343A4
:1020700003221A60023AA3681A42FCD02268760151
:102080005640E0231E40210080235B0123431E6055
:10209000206842465040032202401A600122434613
:1020A0009A40A3681A42FCD0C4E70020D4E7C04697
:1020B000008000400804002030B583B00C2000F000
:1020C000D7F8FEF733FF00280BD02E4B190028312C
:1020D0002D4A04C38B42FCD12A4B2C4A5A6203B0CE
:1020E00030BD2B4B00229A6700F0CAF8294B012221
:1020F0001A60274A536C012BFCD1274B03221A602C
:10210000234A936B012BFCD1013300930433234A00
:102110000121234800F054F805230093214A0121AE
:10212000214800F04DF8214B0093002202210420A9
:10213000FFF73CFF1E4D00952B00002201210520DA
:10214000FFF734FF104C00942300002200210720E9
:10215000FFF72CFF00942300002200210820FFF746
:1021600025FF0A4B00932300002200210920FFF7DE
:102170001DFF00952B00002200210620FFF716FF0F
:10218000ADE7C04608040020006CDC021BB700006D
:10219000008000403CB0004030B00040002F685943
:1021A00000800240008C864700C00240001BB70040
:1021B000405973078000014BC05870470804002045
:1021C000F0B5C64600B504000E0090461F000C2076
:1021D00000F082F94101091A8D01691AC900091834
:1021E0008901404600F078F93F04069B1A03174323
:1021F0002368002B22DB1A4BE21853425A41120388
:1022000080235B019C466244164B1A60164B1A6091
:10221000164DAB6811009943FBD12660A060231DC9
:10222000C02292011A43212313602368002BFCDA99
:10223000E7600823136080BCB846F0BD22683F23E6
:102240001340B342D7D1A3681B051B0D8342D2D1E3
:10225000E368EE22D2021340BB42CCD1EBE7C0468A
:102260000040FDBF00E0004000F0004000C0004022
:1022700080239B000343014AD362704700800540DE
:10228000064BAA2212011A602F22DA60044B054A7B
:102290001A60024A5368002BFCDA70470040024083
:1022A0000060024000B0FA0070B52F4B2F4A1A6050
:1022B0002F4B304A1A6030498B6814009C43FBD185
:1022C0002E4A2F4B9A420AD215001E00013EB61A22
:1022D000B60808CD984723000134B342F9D1FFF77F
:1022E000EBFE234B274A1A60234A9368DB43DB014A
:1022F000DD09002BF9D1244B40229A675A671A67EF
:10230000DA66224A224B9A4210D214001E0005E0DF
:102310002000FFF70AF90834B44207D22368002BE3
:10232000F6D12000FFF7F4F80834F5E7194CA1685E
:10233000194EC022300000F095FBA660FEF72CFE7F
:10234000FFF7BAF8FFF7C8FA144A154B9A420AD2B7
:1023500014001E00013EB61AB60808CC98472B00A0
:1023600001359E42F9D170BD00E00040BFCDFBFEBB
:1023700000F00040FE7F3C0000C00040A8020020AA
:10238000B8020020FFFFFF0100F00140A002002082
:10239000A802002000ED00E000000020B8020020AC
:1023A000BC02002000BEFDE710B5FFF7FBFF0000F8
:1023B0000FB400B583B0084800F03EFC049B002B2E
:1023C00007D005A90191180000F018F8034800F0A3
:1023D00033FC0120FFF7E6FF94310010A431001018
:1023E00010B50148FFF7E4FFA831001010B5002830
:1023F00000D110BD00F002FCFBE7000010B584B076
:102400000300084A1468002C08D0012200915242AF
:1024100003A90548A047012004B010BD00F00CFC42
:102420000020F9E784040020ED2300100148042176
:10243000014B1847800200205D24001010B50100F8
:102440001423188804331B88984710BD10B5010069
:102450001623188802331B88984710BDF8B50F1E45
:102460000FD00400002501262068FFF7E7FF01C414
:10247000431E9841404206400135AF42F4D130003E
:10248000F8BD0126FBE70000124A936F9B0815D2A6
:102490009066D166002905D0FFE7FFE7FFE7516F9F
:1024A000106F704704B580210906C21751400028FB
:1024B00000D0C84300F0BCFD002104BDF0B5146E8F
:1024C000556E576F166FFFF7E3FF14665566576733
:1024D0001667F0BD000000D0114A936F9B0813D21D
:1024E00010665166002905D0FFE7FFE7FFE7516F4F
:1024F000106F704704B5002801D00020C04300F0E1
:1025000097FD002104BDC046F0B5146E556E576F9F
:10251000166FFFF7E5FF1466556657671667F0BD3F
:10252000000000D094464A4A926F9208624601D257
:1025300028E0C046F0B5464E346E756E776F366F44
:1025400000F020F89446424A1466556657671667AD
:102550006246F0BD94463E4A926F9208624601D2AE
:1025600054E0C046F0B53A4E346E756E776F366FF4
:1025700000F04CF89446364A14665566576716675D
:102580006246F0BD002B24DB11D000293EDA00B5F5
:10259000C943404200D1013100F038F8C9434042FC
:1025A00000D10131DB43524200D1013300BD002A8A
:1025B000EBD1002801D1002905D00020C90FC9079F
:1025C00001D1C043410800B500F02AFD00220023DC
:1025D00000BD00B500290ADBDB43524200D10133C4
:1025E00000F014F8C943404200D1013100BDC94395
:1025F000404200D10131DB43524200D1013300F0AF
:1026000005F8DB43524200D1013300BD002923D13C
:10261000002B18D1002A0CD0BC460D4F38667A66C4
:1026200000210023FFE7FFE7FFE77A6F386F674677
:102630007047002801D00748010000B500F0F0FC09
:102640000022002300BD02000B0000200021704783
:10265000000000D0FFFFFFFF002B00D0BFE0130CF5
:1026600028D1002AE7D080B4114F39667A66FFE797
:10267000FFE730B4040C7B6F396F1B0423433B66C8
:102680007A66FFE7FFE7FFE7C04684B27B6F3D6FE6
:102690001B0423433B667A66FFE7FFE7C04600233F
:1026A0002C042D0C7A6F386F00196941B0BC70474B
:1026B000000000D0F0B594460025140E01D112029E
:1026C0000835140F01D112010435940F01D1920085
:1026D0000235D40F01D152000135D40B0134254FFE
:1026E0007C66254C3C660E0C93B2FFE7FFE7FFE7E4
:1026F0003C6F6643360C7703BE467343DF0B5B04C7
:10270000C01AB941130C7343DB18C91ACE086643CB
:10271000360CB64493B273431F0F1B01C01AB94164
:10272000130C73431F0B1B05C01AB941860D8F0292
:102730003E436643360C092D24DB520A7243801A4D
:102740007703460A6643360C16235B1BDE40DF40E8
:10275000BF1964466643821B704604350633010088
:10276000D940A840C01900D30131A24206D20023AB
:10277000F0BD0000000000D0FFFFFFFF121B013082
:10278000F3D3F1E709277F1BFE406446A2B27243F0
:10279000801A00D20139220C7243130C1204821ADF
:1027A00099410B007046043513370100F940A840E9
:1027B000801900D30131002B02D1A2420AD2F0BD10
:1027C000013000D30131121BFAD2013BF8D1A242F1
:1027D00000D2F0BD013000D30131121BF7E7F0B594
:1027E0001C0C00D080E00CB400251C0A04D11B0294
:1027F000160E3343120208351C0B04D11B01160FB1
:102800003343120104359C0B04D19B00960F3343D4
:1028100092000235DC0B02D192185B4101351C009D
:10282000971864410134464F7C66464C3C660E0C5A
:10283000FFE7FFE7FFE7C0463C6F6643360C7703D0
:10284000BE4697B27743C01B00D20139C01B00D2ED
:1028500001399FB27743C91BC91B170C77437E040C
:10286000FF0B801BB941CE086643360C0C2D33DBC1
:10287000B644120B1F053A431B0B97B27743C01B9C
:1028800000D201399FB27743C91B170C77433E042E
:102890003F0C801BB941860D8F023E4366432927BA
:1028A0007F1BFE400C3D7746AF40BF1930BCA2B243
:1028B000ABB272437343801A9941220C7243130CDA
:1028C0001204801A994102000B000137001BA94134
:1028D000F9D2781E0021F0BD0C277F1BFE40774601
:1028E0007F0BAF40FF19E0E700245D1C07D0144FB9
:1028F0007D663966FFE7FFE7FFE7FFE73C6F95B2CC
:102900009EB265436643401BB141150C1E0C6543E6
:10291000664336042F0C3E432D04401BB1419942BF
:1029200004D202000B0020000021F0BD01D1904232
:10293000F7D3801A994101349942F2D3F6E70000A7
:10294000000000D0FFFFFFFF10B513231C78012CFF
:1029500010D007DD0D48FFF779FD010080220C48FB
:1029600000F080F8022C0CDD0A48FFF767FD0A4BE7
:10297000186010BD064B19008031084A04C38B4211
:10298000FCD1034B054A9A64EEE7C046534400006D
:10299000A00400204C330000A0050020A129001055
:1029A00007B5604601880A0A0230DF2AFAD1C9B2A7
:1029B000820804D3028840880004104300E00068C5
:1029C000014A5050039007BDA004002010B5132306
:1029D0001C781048FFF73AFD0100012C0AD003DDF6
:1029E00080220D4800F03EF80C48FFF727FD0C4B05
:1029F000186010BD084C5422200000F033F823006A
:102A000054338034074A04C3A342FCD1024B1A62F8
:102A1000DA61E9E753460000A40500204C330000CA
:102A2000A0050020292A001007B5604601880A0A7F
:102A30000230DF2AFAD1C9B2820804D30288408862
:102A40000004104300E00068014A5050039007BDA5
:102A5000A405002001480421014B184790020020E2
:102A60005D240010014B5B681847000090020020B5
:102A700010B50300080011001B68984710BD000046
:102A8000F0B5CE4600B582B007000D001600437DBC
:102A9000002B06D000240020002A34DD4B1E99466E
:102AA0000FE003681100280098472CE03B7D10E000
:102AB000022117483B689847019801300134A6422B
:102AC00014D0002CF2DD4B461B5D0D3B5A425341A6
:102AD000DBB201942A5D0A2AF0D1002BEED1A0428C
:102AE000E6DA211A28183B689847E1E7A04203DAA2
:102AF000211A28183B689847AD19013D2B780D3BEA
:102B00005A4253413B7502B080BCB946F0BDC04645
:102B10006032001010B5FFF75BF8074A0023121867
:102B20004B41002B03DB054800F08AFA10BD01225F
:102B30005242034BF7E7C04640420F00A00200207C
:102B4000FFFFFF7F10B5024800F062FA10BDC046DB
:102B5000A0020020F0B5DE4657464E464546E0B599
:102B600083B080460D0091461C00FFF7D3FF8246DC
:102B70006B1C0AD0002C0DD11C4F1D4B1C68002C67
:102B800024D01C4E0A239B4609E0404600F0CEF9B3
:102B90000500EFE7184FF0E72469002C16D02368F2
:102BA000002BF9D03368002B01D0A342F4D12A00C6
:102BB00041462000B8474B46002BEDD06B465A46A5
:102BC000DA710122D91D2000B847E5E75346002BF2
:102BD00009D16B1E9D41E8B203B0F0BCBB46B246C2
:102BE000A946A046F0BDFFF7ADFFF2E7812A00102D
:102BF0007004002074040020712A001010B582B007
:102C000004006B46D81D0470002300220121FFF749
:102C1000A1FF200002B010BD10B5064B1C68002CAF
:102C200004D110BD98472469002CFAD06368002BAA
:102C3000F8D1F8E77004002070B5050000F076F9CF
:102C400004000023012201002800FFF783FFFFF7A3
:102C5000E3FF200070BD000030B5184B9C46604477
:102C6000434258418000164BC4580D790123AB40B4
:102C7000013B05228A56002A08DB100020214D1B4B
:102C8000AA4211DC93401C4211D130BD2020401BD0
:102C900010D41A0082401442F7D00138F5D31A003C
:102CA00082401442F9D1F0E701204042EDE70120D3
:102CB0004042EAE701204042E7E7C0460000D0AFCB
:102CC000DC030020F8B50523CB56002B01DB9A422C
:102CD0001ED11D4BC7187B425F41BC001B4BE35804
:102CE0009C460B7901249C40013C9440664626405A
:102CF000654625420CD1002B15D1BF00012199401A
:102D00000B00013B934062461343104ABB50F8BD91
:102D10000F48FFF74DFB931912339B001C500136EF
:102D20000B79B342E9D90B784D782D021D438C788D
:102D300024042543CB781B062B437400E45A630B11
:102D4000E9D1A418E7E7C0460000D0AFDC030020BB
:102D500064320010F8B505000E00FEF7EFF807002A
:102D600031002800FFF778FF041E09DB0200310064
:102D70002800FFF7A7FF3800FEF7ECF82000F8BDA9
:102D80000148FFF715FBC04664320010F0B5DE467F
:102D900057464E464546E0B583B00CAC26784C000D
:102DA0006518ED000190844665442F00DC373868D3
:102DB0008346CC35286882466418E400CC346444E9
:102DC000C025AD012C438025AD022560741EA641AF
:102DD00076421F243440A146052B18D9A020400577
:102DE00080464D006D18ED006544DC208446AC44FF
:102DF000174E2643D8351F275401404604436046EA
:102E000004602E60053B05323A40052BF4D89B0642
:102E1000520113434C006218D200019EB446624432
:102E20001500DC352B600A4B48460343D83213604B
:102E30005B462B606118C9007018CC3053460360A4
:102E400003B0F0BCBB46B246A946A046F0BDC046A2
:102E500080E0000070B5046801258D40AC4304603B
:102E6000002B33D04C006418E40004192500C83549
:102E70001E682E6004355E682E6004359E682E60E4
:102E8000DB68DC3423604C006318DB00D033C318EC
:102E900080256D012B4380252D061D601D60164B7E
:102EA0008B4083600B1D01252E009E4080239B01DB
:102EB00003431E600E000836B5401D601F231A40F4
:102EC0006118C9004018D830026070BD4B005B1813
:102ED000DB00C3181C00C83480256D022560043453
:102EE000F8256D0225600434C0252D032560DC33F0
:102EF00000241C60C7E7C04601010101931E10B504
:102F00000C00222B0DD80A2A04D0210000F03CF836
:102F1000200010BD0028F8DA2D2340420B7001314B
:102F2000F4E7002300200B70F3E7C04610B58307D9
:102F30000AD00300032102E001330B4205D01A78C6
:102F4000002AF9D1181A10BD030019680C4A0D4C5B
:102F50008A188A4322420FD15968094A04338A18D1
:102F60008A43224208D15968054A04338A188A43A1
:102F70002242F1D000E001331A78002AFBD1E1E7C8
:102F8000FFFEFEFE80808080F0B54746CE4680B5CD
:102F90008BB0E846170042461A4B05000C0043CBA5
:102FA00043C243CB43C243CB43C21B781370BB1E07
:102FB000222B22D8631E0026994628003900FFF7ED
:102FC0008BFA4246525C4946330001368A552A0044
:102FD00005009742F1D90022A255002B07D0A15C31
:102FE000E05CA054E1540132013B9A42F7DB20003F
:102FF0000BB0C0BCB946B046F0BD00230020237022
:10300000F6E7C04678320010F8B5C0460000000070
:1030100001B40248844601BC604700BFA9010020FA
:1030200001B40248844601BC604700BFD1010020C2
:1030300001B40248844601BC604700BFD1010020B2
:1030400001B40248844601BC604700BF75010020FE
:103050000A0D6873796E635F6F66667365743A20F4
:1030600000000000202D207673796E635F6F666626
:103070007365743A20000000202D207267625F6F34
:1030800066667365743A20000A0D48656C6C6F20A3
:1030900053594E43210000000A0D76676120736387
:1030A000616E206C696E6520737461727420616456
:1030B00072657373200000003A200000C4300010D5
:1030C00009FF0000A08027A0420000FF00FF00FFD2
:1030D00001FF01EC00C10000E030001009FF00001A
:1030E000A08047A0E3A0086322A0C123A0800867B6
:1030F00046000000FC3000100DFF0000A08027A05B
:10310000C02001C0420049E0C0208600C030C0207D
:103110005FE0C0388B0000000A0D48656C6C6F20C2
:1031200055415254210000000A0D616E696D6174B1
:10313000696F6E2069643A2000000000202D206332
:103140006F6C6F722062697473207368696674654E
:10315000642072696768742062793A200000000078
:103160000A0D48656C6C6F204750494F21000000E4
:10317000486172647761726520616C61726D2025AF
:103180006420616C726561647920636C61696D654E
:10319000640000000A2A2A2A2050414E4943202A6E
:1031A0002A2A0A000A0000004861726420617373D1
:1031B0006572740052656C6561736500626F6F744F
:1031C000325F7732357130383000000068747470C7
:1031D000733A2F2F6769746875622E636F6D2F7253
:1031E000617370626572727970692F7069636F2D97
:1031F0006578616D706C65732F747265652F4845D5
:1032000041442F7667615F70696F0000312E352E63
:10321000300000007069636F000000007667615F36
:1032200070696F00536570203233203230323300C2
:1032300006005250BBFF3CB614320010060052503C
:103240009A235618CC31001006005250E182887F34
:10325000BC31001006005250D3F07542B43100105A
:103260000D0A00004E6F2070726F6772616D2073DF
:103270007061636500000000303132333435363719
:1032800038396162636465666768696A6B6C6D6E24
:103290006F707172737475767778797A00000000B8
:1032A000AC020010A0020010940200103032001096
:1032B000880200103C3200104832001054320010D6
:1032C00003000068EFF3108C72B60268002AFCD08D
:1032D000BFF35F8F04229A56002A0BDB00290FD020
:1032E0000A6000201B68BFF35F8F00221A608CF316
:1032F00010887047D022120612681A710120F1E777
:103300000020EFE7F0B5D6464F464646C0B504006C
:1033100090461F00D0231B061B689A46002399463F
:103320002668EFF3108372B63568002DFCD0BFF32A
:103330005F8F25797F2D0ED82268BFF35F8F4946B6
:10334000116083F310884046390000F045F80028EA
:10335000E6D0002009E0524622712268BFF35F8F59
:103360000021116083F310880120E0BCBA46B14609
:10337000A846F0BD70B582B0060015001C0001A97A
:10338000FFF79EFF002807D1019B5BB2D0221206F7
:10339000127852B2934201D102B070BD2A002300CC
:1033A0003000FFF7AFFFF7E70268EFF3108172B666
:1033B0001368002BFCD0BFF35F8FFF2303710368FA
:1033C000BFF35F8F00221A6081F3108840BF7047FF
:1033D0007047C0460000000001B40248844601BCAA
:1033E000604700BF8D1A0010C03F0000C0360000CB
:1033F00040120000C03F000000002050BC0600202A
:1034000010000000000000000000010000000000AB
:1034100000000000000002000000000000000000AA
:103420000000030000000000000000000000FF009A
:103430000000000001B5486801318E460047704623
:1034400009380149884701BD1914001064020020A1
:1034500000000000C0020020300400200000000036
:1034600000000000400400200000000000000000F8
:10347000100000000000000000000000000000003C
:10348000503300004C33000054330000523300002E
:103490004D5300004D4300005334000043340000FE
:1034A0000000000000000000552A00102D2400102C
:0C34B00049290010CD290010E502001091
:04000005100001E9FD
:00000001FF
