:020000041000EA
:1000000000B5324B212058609868022188439860DF
:10001000D860186158612E4B002199600221596106
:100020000121F02299502B49196001219960352056
:1000300000F044F80222904214D00621196600F024
:1000400034F8196E01211966002018661A6600F04E
:100050002CF8196E196E196E052000F02FF8012189
:100060000842F9D1002199601B49196000215960AB
:100070001A491B48016001219960EB211966A021F2
:10008000196600F012F800219960164914480160C1
:100090000121996001BC002800D000471248134993
:1000A000086003C880F30888084703B5996A0420EC
:1000B0000142FBD001200142F8D103BD02B5186610
:1000C0001866FFF7F2FF186E186E02BD00000240BE
:1000D000000000180000070000035F00212200005C
:1000E000F4000018222000A00001001008ED00E03C
:1000F00000000000000000000000000074B24E7A12
:1001000000200420F7010010C3010010C5010010F9
:10011000C1010010C1010010C1010010C101001097
:10012000C1010010C1010010C1010010C701001081
:10013000C1010010C1010010C9010010CB01001065
:10014000CD010010CD010010CD010010CD01001037
:10015000CD010010CD010010CD010010CD01001027
:10016000CD010010CD010010CD010010CD01001017
:10017000CD010010CD010010CD010010CD01001007
:10018000CD010010CD010010CD010010CD010010F7
:10019000CD010010CD010010CD010010CD010010E7
:1001A000CD010010CD010010CD010010CD010010D7
:1001B000CD010010CD010010CD010010CD010010C7
:1001C00000BE00BE00BE00BE00BE00BEEFF3058054
:1001D000103800BEF2EB88715434001074340010F3
:1001E0003402001090A31AE700201F49086006C8D7
:1001F00081F3088810471D48006800282FD10DA4FE
:100200000ECC002902D000F012F8F9E71849194A7B
:10021000002000E001C19142FCD1174988471749ED
:1002200088471749884700BEFDE701C901C29A42C5
:10023000FBD3704774340010C00000204C02002033
:1002400000360010000004200000042000360010DA
:10025000001004200010042000000000704709482E
:1002600002F05EFD0047000008ED00E0000000D055
:10027000500200206C060020992B0010D50B0010B6
:100280008D2C00105756000006005250ABB360533F
:10029000F833001006005250861C03020834001088
:1002A000060052505422A29D1434001005005250F2
:1002B000DE65F46800360010F8B5C04610B5064C8F
:1002C0002378002B07D1054B002B02D0044800E017
:1002D00000BF0123237010BD800500200000000036
:1002E000E8320010044B10B5002B03D0034904483A
:1002F00000E000BF10BDC0460000000084050020E3
:10030000E83200100123074A074851688B40A421B6
:100310004350064B19681389054A4B401B041B0CBC
:100320001360704740060020000005400C000540A7
:100330000C10054000B585B001F0B6FD01F0B8FB2A
:10034000064BFA22029300230193054BD20000933F
:10035000002301F0A9FC012005B000BD50020020DF
:100360006D0B0010F0B55746DE464E464546E0B5EB
:1003700020279B4C8BB01022A3691A4200D069E25F
:100380001022A3691A42FBD12368DBB2612B00D192
:1003900038E1642BEFD1934A93499068103880B2CA
:1003A000031C884200D20B1C9BB293608F4B4722E8
:1003B00000269E5F0D2500238D490296002B00D05C
:1003C000C8E0964200D1CDE0A3691F42FCD1226073
:1003D0000B7801310D3B5A4253410A78DBB2002AB7
:1003E000ECD1844B05ADAA702B80A9462A0031269A
:1003F00000230D21002B00D0B9E0029B9E4200D1CA
:10040000BDE0A3691F42FCD12660137801320D3B89
:100410005E4273411678DBB2002EEBD1764B0A2692
:100420009B461A000D210023002B00D0ACE0029B5C
:100430009E4200D1B0E0A3691F42FCD12660137830
:1004400001320D3B5E4273411678DBB2002EEBD1D8
:100450006A4A44369446002332000D216646002B3A
:1004600000D09EE0029B9A4200D1A2E0A3691F4205
:10047000FCD12260337801360D3B5A425341327829
:10048000DBB2002AEBD15E4B060001934B46AA4635
:10049000A94603930A21300002F074FC4D46B04691
:1004A0006B1C06000A214046994602F06BFC019B3A
:1004B0009C46614423310B782B70002EEAD1B04664
:1004C000039A4B46914642462E001A7055465346B3
:1004D000564507D932781978013E71701A70013388
:1004E0009E42F7D82A7800230D21002A12D04D46CB
:1004F0000298002B62D1824267D0A3691F42FCD1CF
:1005000022602B7801350D3B5A4253412A78DBB2E9
:10051000002AEED100230A220D215D460298002B0D
:1005200011D1824256D0A3691F42FCD122602B78A0
:1005300001350D3B5A4253412A78DBB2002A00D1E3
:1005400019E7002BEDD0A3691F42EFD0A3691F422A
:10055000F9D1EBE7A3691F4200D138E7A3691F4235
:10056000F8D134E7A3691F42FCD125602CE7A369C9
:100570001F4200D148E7A3691F42F8D144E7A369AD
:100580001F42FCD121603CE7A3691F4200D155E71F
:10059000A3691F42F8D151E7A3691F42FCD1216032
:1005A00049E7A3691F4200D163E7A3691F42F8D15D
:1005B0005FE7A3691F42FCD1216057E7A3691F428F
:1005C0009ED0A3691F42F9D19AE7A3691F42FCD1CB
:1005D000216092E7A3691F42FCD12160A3E7C046D6
:1005E000004003404006002066060000640600202C
:1005F000E832001031390000F0320010F4320010FF
:10060000FC320010974B80229B689201180010303A
:1006100080B20193031C904200D9131C914A9BB2F3
:100620009360914B472200269E5F0D2500238F4942
:100630000296002B00D0C8E0964200D1CDE0A3691D
:100640001F42FCD122600B7801310D3B5A425341CD
:100650000A78DBB2002AECD1854B05ADAA702B805D
:10066000A9462A00312600230D21002B00D0B9E035
:10067000029B9E4200D1BDE0A3691F42FCD12660CF
:10068000137801320D3B5E4273411678DBB2002EC7
:10069000EBD1784B0A269B461A000D210023002B34
:1006A00000D0ACE0029B9E4200D1B0E0A3691F42A3
:1006B000FCD12660137801320D3B5E4273411678FF
:1006C000DBB2002EEBD16C4A443694460023320054
:1006D0000D216646002B00D09EE0029B9A4200D17D
:1006E000A2E0A3691F42FCD12260337801360D3BA2
:1006F0005A4253413278DBB2002AEBD15F4B0600FD
:1007000001935B46AA46AB4603930A21300002F0F0
:1007100039FB5546B0466B1C06000A2140469A46F6
:1007200002F030FB019B9C46614423310B782B7017
:10073000002EEAD1B046039A53462E005D469346FA
:1007400042461A702B00AE4207D932781978013E22
:1007500071701A7001339E42F7D82A7800230D2158
:10076000002A12D04D460298002B62D1824267D0F7
:10077000A3691F42FCD122602B7801350D3B5A4200
:1007800053412A78DBB2002AEED100230A220D2140
:100790005D460298002B11D1824256D0A3691F42B8
:1007A000FCD122602B7801350D3B5A4253412A7807
:1007B000DBB2002A00D1DEE5002BEDD0A3691F4299
:1007C000EFD0A3691F42F9D1EBE7A3691F4200D123
:1007D00038E7A3691F42F8D134E7A3691F42FCD16F
:1007E00025602CE7A3691F4200D148E7A3691F4297
:1007F000F8D144E7A3691F42FCD121603CE7A3691B
:100800001F4200D155E7A3691F42F8D151E7A36900
:100810001F42FCD1216049E7A3691F4200D163E771
:10082000A3691F42F8D15FE7A3691F42FCD1216091
:1008300057E7A3691F429ED0A3691F42F9D19AE7E7
:10084000A3691F42FCD1216092E7A3691F42FCD13A
:100850002160A3E70BB0F0BCBB46B246A946A04658
:10086000F0BDC0464006002064060020E8320010BB
:1008700031380000F0320010F4320010FC32001069
:10088000F0B54546DE4657464E460023E0B589B0F2
:1008900005000193122800D14BE113280AD1AB4A7D
:1008A000AB499368103B9BB201938B4200D24AE163
:1008B0009BB29360A74B472600229B5E002120221B
:1008C0000D209846A44CA54B002900D0E5E0B0458A
:1008D00000D1EAE099690A42FCD11E602178013416
:1008E0000D394E4271412678C9B2002EECD19C4B95
:1008F00003AFBB4699460A21280002F043FA5C4642
:100900002E00631C05000A2130009A469B4602F027
:1009100039FA494423310B782370002DEBD1002E96
:1009200005DA5146A31C2D2254469A460A7000232C
:100930005246137003AB9C4207D922781978013CC8
:1009400061701A7001339C42F7D802AB1D79002107
:1009500003A8002D15D020220D24804B002900D0A3
:10096000A8E0454500D1ADE099690A42FCD11D607F
:10097000017801300D394D4269410578C9B2002D29
:10098000ECD1784E0A243000002120220D25734B33
:10099000002900D09BE0444500D1A0E099690A42BB
:1009A000FCD11C60017801300D394C426141047862
:1009B000C9B2002CECD1002120220D256A48674BDA
:1009C0004434002900D08FE0444500D194E0996977
:1009D0000A42FCD11C60017801300D394C42614162
:1009E0000478C9B2002CECD103AB9B46019D0A21CF
:1009F000280002F0C7F95C46AA46631C05000A21DC
:100A000050469B4602F0BEF9494423310B782370CF
:100A1000002DECD15B461D7003AB9C4207D92278B8
:100A20001978013C61701A7001339C42F7D802AB0F
:100A300018790021002813D020220D24474B0029CB
:100A40005FD1404564D099690A42FCD11860397879
:100A500001370D39484241413878C9B20028EED1FA
:100A60000A20002120220D243C4B002955D140456D
:100A70005AD099690A42FCD11860317801360D3993
:100A8000484241413078C9B20028EED109B0F0BCEB
:100A9000BB46B246A946A046F0BD99690A4200D1BC
:100AA0001BE799690A42F8D117E799690A42FCD114
:100AB00018600FE799690A4200D158E799690A421C
:100AC000F8D154E799690A42FCD11C604CE7996956
:100AD0000A4200D165E799690A42F8D161E799694C
:100AE0000A42FCD11D6059E799690A4200D171E7B9
:100AF00099690A42F8D16DE799690A42FCD11D60F3
:100B000065E799690A42A1D099690A42F9D19DE73E
:100B100099690A42FCD11C6095E799690A42ABD0F9
:100B200099690A42F9D1A7E799690A42FCD11C6088
:100B30009FE78021054A8901936810339BB2019396
:100B40008B4200D8B4E60B1CB2E6C046400600203B
:100B50006606000064060020E832001000400340F2
:100B6000FC320010F0320010F432001010B5034BCC
:100B70001868FFF785FE012010BDC0464006002022
:100B800010B5040084B0042913D008290FD1FFF751
:100B900077FE0B4B1C6000F08BFF0A4B0A4A029356
:100BA00000230193094B0093002301F07DF804B06A
:100BB00010BD044801F078F9054801F075F9F6E731
:100BC0004006002068030020E09304003503001075
:100BD00050020020F8B5E121CE4647464F4C80B583
:100BE0004902200001F090FD0221002000F0DAF916
:100BF0000221012000F0D6F90421102000F0D2F9E2
:100C0000122000F081FA00220121122000F0E2F906
:100C1000132000F079FA00220121132000F0DAF904
:100C2000C022236B120213403D4A1420136060223D
:100C3000E36A3C4D5A406E2313403B4A80271360C1
:100C40001023E16A7F010B401360384900F0D8FAA5
:100C50000023374E98467360013399464A46A333C2
:100C6000EA50344B04201A60334900F0C9FA434675
:100C70002B60AB60EB60314B314A2B61314B0A206A
:100C80006B604B462B60304B30491B687B401B042C
:100C90001B0C13602E4BB76000255D5F00222023E4
:100CA0000D26002A2DD1854232D0A2691342FCD1F3
:100CB00020600A7801310D3A504242410878D2B2A0
:100CC0000028EED1C83001F097F9224B01220C2107
:100CD000122000F0C1F901220C21132000F092F93A
:100CE0000121142000F072FA50220C4B01219A636A
:100CF0005A6B38231340184A0420136000F066FA38
:100D0000FEE7A2691342D3D0A2691342F9D1CFE71B
:100D1000A2691342FCD12660C7E7C04600400340E9
:100D200030500340000005402C5003406503001084
:100D300040060020A820054005030010FFFF00002A
:100D40000C100540620200000C0005404433001006
:100D500064060020810B001034500340D0231B0692
:100D60001B68F0B59A00454690464146894ADE46E2
:100D70005258574693465A1E934130224E465B4284
:100D80001A401300844AE0B5944683B0634401934B
:100D9000824B08269A463500083DEA08130001995F
:100DA00008339B005C58002C23D05B46002B2AD0D4
:100DB00001230F27994639002140274213D04B4683
:100DC00052464046AB4012581A420CD10722080046
:100DD0002A40920090400200EB0871483C339B008F
:100DE0001A502800D84724090135002C01D0B542FB
:100DF000E1D30836282ECED103B0F0BCBB46B246B4
:100E0000A946A046F0BD0F2319002140234207D078
:100E100047460E3BAB406148C059184200D18DE0B7
:100E20002309F11F002BE4D00F22100018401A42B2
:100E30000FD0012345468B40584A52591A4208D1D7
:100E40000722CB08114089008840554A3C339B005B
:100E50009850230AB11F002BCBD00F22100018404E
:100E60001A420FD0012345468B404C4A52591A4230
:100E700008D10722CB08114089008840484A3C33FA
:100E80009B009850230B711F002BB2D00F22100033
:100E900018401A4241D1230C311F002BA9D00F2238
:100EA000100018401A4252D1230DF11E002BA0D081
:100EB0000F22100018401A425AD1230EB11E002BE7
:100EC00097D00F22100018401A420FD00123454638
:100ED0008B40324A52591A4208D10722CB0811409E
:100EE000890088402E4A3C339B009850240F721E84
:100EF000002C00D17DE7012351464046934009581C
:100F0000194200D075E70721D3080A4092009440A7
:100F10003C33234A9B009C506BE7012345468B40A2
:100F20001E4A52591A42B6D10722CB0811408900F5
:100F300088401B4A3C339B009850ACE707231D4078
:100F4000AD00A940164B3C329200D15068E7012316
:100F500045468B40114A52591A42A5D10722CB0867
:100F60001140890088400E4A3C339B0098509BE713
:100F7000012345468B40094A52591A429DD1072206
:100F8000CB08114089008840054A3C339B009850AB
:100F900093E7C046AC050020004101403806002020
:100FA00000400140094A830094464022634410B542
:100FB0001C68C0006240C0241440802252011343C8
:100FC0001C60034B9C466044416010BD04C001405E
:100FD000004001400A4B80009C46042360440029E5
:100FE00001D00C230821002A00D10B0002685340D5
:100FF0000C221A4080235B01184302607047C046F0
:1010000004C00140D0231B061B6830B50500581EE4
:1010100083410F485C428446072030232840234008
:101020008000EC08814020000A4D3C306344800081
:10103000A40041511B19002A04D0802292011343BD
:10104000196030BDC022920113431960F9E7C04610
:101050000041014000400140F8B51E00D0231B06AE
:101060001C680700631E9C41302364421C40224BD5
:1010700015009C46C30807201A00384080008140B4
:101080003C321E48644492009B001150E418002D2D
:1010900011D080239B011C43D02321601B061C68B8
:1010A000174FA4003B59002B11D0002E1ED03E51EB
:1010B000002D16D1F8BDC0239B011C43D023216015
:1010C0001B061C680E4FA4003B59002BEDD1002ECF
:1010D000EED000220D200B493E5100F0BBF8002D50
:1010E000E8D001210D2000F071F8E3E70D2005495B
:1010F00000F0A4F9DBE7C046004101400040014098
:10110000AC0500205D0D00100123D02283401206A3
:1011100093629361094A83009446402263441968AC
:10112000C0004A40C021114080225201134319607F
:10113000034B9C46052360444360704704C0014054
:1011400000400140024B18688007C00F7047C0463E
:1011500000C0064070B5EFF3108C72B60D4D2B68D1
:10116000002BFCD0BFF35F8F0724CB08C618C05CF0
:1011700001230C40A3401C000440034207D1034359
:101180003370BFF35F8F2C608CF3108870BD10003C
:1011900001F080FD2C0100D00021044B044ABFF374
:1011A0005F8F02C39342FAD17047C046000100D05E
:1011B000800100D0044A1078431CDBB2172B00D901
:1011C000102313707047C04698010020012383400C
:1011D000002904D0034A1360034A13607047034A8E
:1011E0001360FBE780E200E000E100E080E100E066
:1011F000024B10309B688000C058704700ED00E043
:1012000070B50D00EFF3108672B60F4A1368002B0D
:10121000FCD0BFF35F8F0D4B10309B6884001B59CF
:101220000B4A934203D09D4201D001F04BFD074B86
:101230009B681D51BFF35F8FBFF35F8F0022024B8E
:101240001A6086F3108870BD240100D000ED00E024
:10125000CD010010F0B557464E46DE464546E0B596
:1012600085B0060002911700EFF3108B72B6674A43
:101270001368002BFCD0BFF35F8F0025644B5D57D4
:101280009A46002D00DAA4E06B00624C03935B19D0
:101290009B009846A146C1444B4652469B79103666
:1012A00013705D4BB2009B68019299580B1B2F2B5A
:1012B00034D95A4B994200D0A4E0039B584A9C462B
:1012C000584B6544AD006353434602336519E41837
:1012D000554B0121043B1B1B1B055B0D13436B800E
:1012E000524BEF71AB80FF23AB71029BAB604B465F
:1012F0000B431900484B019A9B689950BFF35F8FCD
:10130000BFF35F8F0022414B1A608BF3108805B04A
:10131000F0BCBB46B246A946A046F0BD01200A007B
:101320008243D379BB422FD845464E4613004049ED
:101330001B1B5B415943090D3A4B63533A4B023532
:101340006519043B5B1B1B05354D5B0D2B437380FF
:101350000426B446E0444444131F1B1B4C46A171B1
:1013600002991B05A16049465B0D2B43A380314BBD
:10137000E77101431360BDE75800C01880002018D2
:10138000C679BE422BD902000623D356002BF3DACE
:10139000101D82462848804604267642B446E14421
:1013A00050464E46361A3005400D824656461C4879
:1013B000957106439680039A944665441D4AAD0094
:1013C000641922604246A371029BA280E771A36068
:1013D00090E701F077FC002553465D5754E7101D58
:1013E000824690884005001584464046D4446646AF
:1013F00004302018301AE0260005400D3602304334
:101400008046C9E701F05EFC57E7C046240100D0E2
:10141000690600209C01002000ED00E0CD010010D5
:1014200000E0FFFF00A1FFFFCC01002001BDFFFF96
:10143000AAAA00000148804701BD0000F0B5DE46C1
:1014400057464E464546E0B50C0083B0EFF3108991
:1014500072B6584A1368002BFCD0BFF35F8F564B0F
:101460009A68030010339F00D559544A904695421C
:1014700032D0A54243D0524EAA1B2F2A2CD801228B
:101480008240924651464F4A12681140019151469E
:101490004D4A1160BFF35F8FEFF305829346002A38
:1014A00033D101232A009A4393689C4208D177E004
:1014B0004B005B189B00F3189968A1422AD01A00D0
:1014C000062151560029F3DA019B002B19D0524610
:1014D0003E4B1A603B4B1A60374B9B68DD51BFF3A4
:1014E0005F8FBFF35F8F0022324B1A6089F3108841
:1014F00003B0F0BCBB46B246A946A046F0BD1500FD
:10150000EAE75246304B1A60E6E79342C9D001F051
:10151000D9FBC6E706215956002921DB4A0050189D
:10152000800034188046A0689860E079D871062061
:1015300020569871002824DBA488F01A640524152D
:1015400044440019E0240005400D24022043988003
:1015500052181F4B9200B6181A781970B271B3E77F
:10156000594600290FD1FF3191711A4991801849CC
:101570000A789A71184A9B1B5B415A43120D0A70F4
:10158000A2E71648E3E7164A1649D21A083A50026B
:10159000400D01439980144952080A43DA8093E7C9
:1015A0000621515613000029B8DA5A46002AEAD11A
:1015B0004546DCE7240100D000ED00E0CD0100103D
:1015C0009C01002000E100E080E100E080E200E01A
:1015D0006906002001BDFFFFAAAA000001BD0000AE
:1015E000D601002000F0FFFF00F8FFFF70B5EFF319
:1015F000058101240443EFF3108C72B6214A13686D
:10160000002BFCD0BFF35F8F1F4B05001F4AED1A64
:101610006D416A43120D1E4D8900AE6852B2765874
:10162000A6421CD00621595691421CD0122159566F
:10163000914222D01E215956914220D02A2159563A
:101640000324914210D0134B19781A708171BFF3A3
:101650005F8F00220B4B1A608CF3108870BDAB6853
:101660000D4C5C50EFE700246100091989005B18FC
:10167000FF21997109499980E5E70124F4E70224E3
:10168000F2E7C046240100D09C010020AAAA000075
:1016900000ED00E069060020CD01001001BDFFFF54
:1016A000054B064A1360064A136053609360D3608B
:1016B00013615361936170478080808000E400E093
:1016C00004E400E0024B9C466144890001607047DD
:1016D0004000003410B50400FFF76CFD010020004D
:1016E000FFF7F0FFFF232371BFF35F8F10BDC046EC
:1016F00010B50400FFF75EFD01002000FFF7E2FFD8
:10170000FF23A380BFF35F8F10BDC04683680B48E3
:1017100010B5844661446244090112019A185918AF
:1017200054684B6801209C4201D802D00020C0B20E
:1017300010BD12680B689A42F9D8F7E7FFFFFF0F58
:1017400010B508000B690C009847002802D02068EB
:10175000616810BDE06000210020FAE70A4B1968BB
:10176000EFF3108072B60A68002AFCD0BFF35F8FD7
:101770001B68BFF35F8F00221A6080F3108840BFA0
:10178000002000217047C04650060020F8B557469B
:101790004E464546DE46E0B599460CAB1C780DAB8F
:1017A0001B78060090469A460768002C11D1BC7B36
:1017B000002C42D065003B682D19033D59194B7828
:1017C000BB73002B00D1FB7300238B704B700B702D
:1017D00004E065003B682D19033D5919B2682A4B96
:1017E00094464246E3181B0163441A604A465A6015
:1017F0000A9A9A600B9ADA6000238B704B700B7018
:101800007B7B9B46002B2BD022005946B8687B6817
:1018100098473A68002816D05B4658465B005B4400
:101820005519033BA870D118D35C002B00D06B7006
:101830005B460C707B73A34513D0F0BCBB46B2462D
:10184000A946A046F8BD5B465B005B44033BD3184A
:101850009C705119525D002A00D05A705B460B7083
:101860007C7342464B46307D00F0E6FC051E06D0F8
:101870005346002B03D12100306800F007FF0E9B78
:10188000002BDAD01D70D8E7FFFFFF0FF0B5DE4662
:1018900057464E4645460023E0B58BB00893664B4D
:1018A0008200D45800239B46099000F065FC6268D2
:1018B00006000F00EFF3108572B61368002BFCD002
:1018C000BFF35F8F23689C465B7B9946002B68D0F3
:1018D000A2685A4B90464B441B01984443461A68F1
:1018E0005B6810001900801BB941002963DD09986D
:1018F00000F0A2FC002300229846002306920793E2
:1019000000239A466368BFF35F8F5A461A6085F3D7
:1019100010885346002B08D10028C6D10BB0F0BC6C
:10192000BB46B246A946A046F0BD089B41461802F8
:101930004B461843D047626806000F00EFF310854E
:1019400072B61368002BFCD0BFF35F8F002F4FDB04
:1019500033003B4302D02369002B60D12368D97B3D
:10196000002907D04A00521819688C46494662443B
:10197000033A51709A7B002A01D14A469A734A462B
:10198000DA734B46E168013BCA5C0132CA545B46DC
:1019900023616368BFF35F8F5A461A6085F310882E
:1019A00083E7002300229846002306920793002332
:1019B00000209A46A6E7002901D1002897D10021EE
:1019C000604600F0E1FD43461A685B6806920793A3
:1019D00043469B689A464346DB689846E3684B4417
:1019E000013B1B7808931B0203432361002089E716
:1019F0002369002BB2D0069A079B921BBB41002B98
:101A000015DB594604910121039149460291414653
:101A10000191514620000091FFF7B8FEB7E700F0B2
:101A2000ABFB32003B0012184B41002BE9DA0122DC
:101A3000034B5242E5E7C04628060020FFFFFF0F98
:101A4000FFFFFF7F10B5144C6368002B04D00A2100
:101A50001248FFF737FE10BD2300114A10212068FD
:101A600000F0ACFC032000F07BFB032000F054FCF2
:101A700003200C4900F09AFBFFF79CFB0A4B9C46A5
:101A800003232375D0231B061B6860446375074B33
:101A900080006060DC60DAE7E4010020500600208E
:101AA0000D1700108D18001040000034280600208B
:101AB00000487047E4010020F0B557464E464546C1
:101AC000DE46E0B585B0019310AB1B7806000393AA
:101AD00000239A46984600927268EFF3108972B616
:101AE0001368002BFCD0BFF35F8F3568AC7B002CF4
:101AF00049D067002B683F19033FDB195A78AA7356
:101B0000002A00D1EA73B168484A8C4600980199CE
:101B1000A21812016244106051600E9991600F99F1
:101B2000D16042469A705A701A706B7B9B46002BAC
:101B300045D022001900A8686B6898472A680028D9
:101B400030D05B4658465B005B44D719033BB87006
:101B5000D118D35C002B00D07B705B460C706B738C
:101B60005C452DD0F3681B19013B18787368BFF3EF
:101B70005F8F42461A6089F310885346002B2CD1A0
:101B80000002204307E07368BFF35F8F1C6089F396
:101B900010880120404205B0F0BCBB46B246A946C1
:101BA000A046F0BD5B465B005B44033BD3189C70D2
:101BB000D119D25D002A00D05A705B460B706C734D
:101BC000307D009A019B00F037FB82460028C9D087
:101BD0002100306800F05AFDC4E7039B002B23D09E
:101BE0000E9B00200F999847030004000D000B4343
:101BF0001AD000290ADA009A019B121BAB4100920D
:101C00000193002B0ADB039B9A4665E700F0B4FAC8
:101C100024184D4100940195002DF4DA0123044C61
:101C20005B4200930194EEE70020B4E7FFFFFF0F53
:101C3000FFFFFF7F70B542680400EFF3108572B6B6
:101C40001368002BFCD0BFF35F8F2068CEB2437BBC
:101C5000B3420AD0FF230B405A00D31802689446BF
:101C60006344033B9B78002B13D0E268FF23944628
:101C70000B406344013B0A0A1978D2B291420ED05C
:101C800000206368BFF35F8F00221A6085F310881D
:101C900070BD22698A42F3D100202361F1E731004F
:101CA00000F0F4FCEDE7C046F0B54E464546DE4692
:101CB0005746E0B585B010990500894611001943D3
:101CC00000D1D8E0D81704005440260004005C403E
:101CD00001002700361A8F4149460E980A600F9A74
:101CE0008D6008614B604A6100F046FA80197941C5
:101CF00000900191002900DAC7E00023A8469B4626
:101D00001F0043465A68EFF3108A72B61368002B1F
:101D1000FCD0BFF35F8F43461E68B47B002C00D11C
:101D200085E063001B19033B1A0094460393336854
:101D300063445A78B273002A00D1F273414689682D
:101D4000564A8C4600980199A2181201624410600C
:101D50005160534991604946D1605A469A705A7011
:101D60001A70757B002D00D176E022002900B06842
:101D7000736898473268002863D003996B005B1939
:101D80005118033B8D70D018D35C002B00D07AE043
:101D9000047075733E00AC425FD043464246DB6838
:101DA00052681B19013B1B78BFF35F8F59461160C6
:101DB0008AF31088002E0CD101261B021C434B46CF
:101DC0003000DC6005B0F0BCBB46B246A946A04678
:101DD000F0BD4846036998470700031E01D100245F
:101DE000EDE74A461468556822002A4353D0002D77
:101DF0000EDA009A019B121BAB4100920193002B5B
:101E000000DB7EE70123274C5B420093019478E7D7
:101E100000F0B2F924184D4100940195002D00DB2B
:101E20006FE701231F4C5B420093019469E75B68F5
:101E3000BFF35F8F1C608AF3108801240026644280
:101E4000BDE76B005B19033B0398D3189C70111816
:101E5000125C002A14D10D7074734346187D009AE9
:101E6000019B00F0E9F9061E97D04346210018684F
:101E700000F00CFC91E701260027012200232BE74C
:101E80005A700D70E8E74B7082E70123054C5B4206
:101E90000093019431E71E00002490E7FFFFFF0F3D
:101EA00041170010FFFFFF7FF0B5C646C36804006E
:101EB00000B50020002B02D180BCB846F0BDA5685B
:101EC0006968EFF3108672B60A68002AFCD0BFF387
:101ED0005F8F2868D9B2427B8A4224D0FF221A4001
:101EE0005700B84607689044BC4647466744033FDE
:101EF000BF78002F12D0EF681B0ABC466244013A3B
:101F00001278DBB29A4211D000206A68BFF35F8F6B
:101F10000023136086F31088E360CDE72A699342BB
:101F2000F2D12F61F0E7FF221A40E4E700F0AEFBA8
:101F3000EBE7C046F0B504000D0006267642F71721
:101F4000C64636196F4100B584B08F4214D811D0FF
:101F500000F012F932003B00121A8B41002B15DC05
:101F6000002B3ED02000290000F010F904B080BC06
:101F7000B846F0BD8642EBD90026002700F0FCF8F9
:101F800032003B00121A8B41002BE9DD0023029343
:101F90000193154B3200009314483B00FFF78CFD72
:101FA0000028DFDB00239846BC46114A114F7B6AAC
:101FB0009C4504D8B96A8E42D4D99C45D2D11168C7
:101FC000EFF3108072B60B68002BFCD0BFF35F8F6D
:101FD0001368BFF35F8F4146196080F3108820BFFC
:101FE000E5E7002ABED0D1E75D170010E40100202C
:101FF000500600200040054070B5060000F0BCF817
:10200000FA2204000D00002330000021920000F0AD
:1020100067FF00196941002902DBFFF78BFF70BDE4
:10202000012001494042F8E7FFFFFF7F70B5EFF361
:10203000058305000C0084B0002B0AD0164A00204E
:10204000536A9C4203D8926A0130AA421FD304B05B
:1020500070BD124E02930193114B020000933000A9
:102060000B00FFF729FD011EE8DD20BF3000FFF760
:10207000E1FD094B0020596A8C42E8D89B6A013087
:10208000AB42E4D2641A631E9C41E0B2DFE7E41A7B
:10209000631E9C41E0B2DAE700400540E401002005
:1020A0005D170010F0B5EFF30582D6464F46464661
:1020B0001000C0B51038EFF3108872B6214C2368B9
:1020C000002BFCD0BFF35F8F0123190081401E4D10
:1020D0001F006963AA461D4D29601D4D2E78AC4630
:1020E0003500C5402F402B4209D1BFF35F8F2760D9
:1020F00088F31088E0BCBA46B146A846F0BD534606
:10210000144D5F6A83005D59AF420ED3124A8E436D
:102110009B5862461670BFF35F8F0022226088F3DF
:102120001088002BE6D09847E4E70C4B92009C46C1
:10213000624413681360BFF35F8F0023236088F34A
:102140001088D7E7280100D0004005403C700540CA
:102150006A060020540600209C050020D03F054060
:1021600010B50100024A0348FEF7F4FF10BDC04657
:102170005833001068060020034B596A0A00986A19
:10218000596A8A42FAD1704700400540064A536AAC
:102190009942FCD807D1044B02E05A6A914202D11D
:1021A0009A6A8242F9D370470040054070B5040036
:1021B0000D00EFF3108672B61A4A1368002BFCD09C
:1021C000BFF35F8F002D1BD02000FFF711F81649D9
:1021D00081420AD02000FFF713F801212000FEF70A
:1021E000F5FF0123A340114A1360114BA400E550F1
:1021F000BFF35F8F00220B4B1A6086F3108870BD0F
:102200000B4BA200D5500122A2400A4920000B78B6
:1022100093430B700449FFF711F900212000FEF7EA
:10222000D5FFE5E7280100D0A52000103860054063
:102230009C0500206A060020F0B54F46D64646466B
:10224000C0B507002F4C616A0D00A66A616AA942F9
:10225000FAD18B4208D805D00120E0BCBA46B1467D
:10226000A846F0BDB242F7D9EFF3108A72B62648FD
:1022700001680029FCD0BFF35F8F0125BD402349D1
:10228000204C8846097889462943C9B28C46414684
:1022900060460870391D1E48890065630A51B900FF
:1022A0000B50216A0020294219D0616A0800A66AF1
:1022B000616A8142FAD18B4219D801D1B24216D853
:1022C000CC451DD00F4B1F201D625D6301230740CD
:1022D000BB40104A1E38136043464A461A70BFF38B
:1022E0005F8F0022084B1A608AF31088B5E7002040
:1022F000BFF35F8F0022044B1A608AF31088ACE7AB
:102300000120ECE700400540280100D06A060020CB
:102310005406002080E200E0EFF3108C72B60A4908
:102320000B68002BFCD0BFF35F8F01238340074A6B
:102330000748136202789A430270BFF35F8F00234D
:102340000B608CF310887047280100D000400540D6
:102350006A06002070B5050014001600002915D08B
:102360000C00002A12D080686B6898472968002802
:102370000ED073009B196200033B1219CB18033A6D
:102380009C7088188A5C002A15D10670200070BDE8
:1023900063001B197200033B9219CB18033A9E701D
:1023A00088188A5C002A02D104703400EEE75A7063
:1023B00004703400EAE75A700670E7E730B58360CE
:1023C0000023CCB243730133047342608373C4733C
:1023D0000D000068012C06D9421C0133DBB21370DA
:1023E00003329C42F9D1FF2129404B0059180023A8
:1023F00040180338437030BDF8B5CE464746060056
:102400000C0080B5002907D04D0003686D18033D0E
:102410005A195778002F04D12000C0BCB946B046E5
:10242000F8BD7900C919033988464344597889466B
:1024300000215970517073683A00210080689847F4
:102440003368002814D042469A18947059195B5D7D
:10245000002B00D053700F70270049463000FFF763
:10246000CBFF390002003000FFF774FF0400D3E710
:10247000424641465D19AF709A185B5C002B00D054
:102480006B701470E9E7C046F0B557464546DE4626
:102490004E46E0B50D006B0001685B19DF1E0400BD
:1024A000C85D83B00192CA19002850D043001B18A0
:1024B000033BCB185E78B446002E1AD1019E002E45
:1024C00042D0E67B002E04D073009B19CB18033B4F
:1024D0005D70A37B002B00D1A573E57300282FD17D
:1024E0000023537003B0F0BCBB46B246A946A046D9
:1024F000F0BD72006244033A89184A78904600227F
:102500004A7091465A70010032002000FFF722FF06
:1025100043468246002B07D05B0021684344033BBF
:10252000CB185A78002A16D1424651462000FFF7B0
:1025300011FF2168019BCA19002BC2D10028CFD0FE
:1025400043001B18033BCB1800219970C8E7019B7F
:10255000002BB6D1C4E7500080180338091848781A
:10256000834648464870587041462000FFF7F2FE07
:10257000594680462000FFF73FFF414602002000F9
:10258000FFF7E8FE8046CFE7F0B557464546DE4602
:102590004E46E0B583B00191457B04006B000068B6
:1025A0005B19DF1EC15DC219002952D04B005B18B8
:1025B000033BC3185E78B446002E1CD1019E002E4A
:1025C00044D0E67B002E04D073009B19C318033B54
:1025D0005D70A37B002B00D1A573E573002931D179
:1025E000002328005370617303B0F0BCBB46B246B1
:1025F000A946A046F0BD72006244033A80184278B2
:1026000090460022427091465A7020003200FFF737
:10261000A1FE43468246002B07D05B00216843445D
:10262000033BCB185A78002A17D142465146200066
:10263000FFF790FE019B01002068C219002BC0D15A
:102640000029CDD04B005B18033BC31800209870C5
:10265000C6E7019B002BB4D1C2E7500080180338B5
:10266000091848788346484648705870414620000B
:10267000FFF770FE594680462000FFF7BDFE414639
:1026800002002000FFF766FE8046CEE770B504002A
:1026900000292CD0437B8B422ED00568480040187F
:1026A000033828188278002A21D053009B18033B56
:1026B000EA5CEE188A4202D11BE0002A08D05300DF
:1026C0009B18033BEB185A788A42F6D142785A702D
:1026D00000230122837043702000FFF7D5FE617B49
:1026E00002002000FFF736FE6073012000E00020AA
:1026F00070BD43783370EBE701221900FFF7C4FE89
:1027000060730120F4E7C046F8B5040006200D0010
:1027100000F0C8F9002844D02A4B2B49E218534254
:102720005A418023DB039C469205284B62441A6081
:10273000274B1A6010008B689843FBD1214B8021F6
:10274000E3185A425341234A5B004900995206203C
:1027500000F0A8F92900C00000F03CFBC30921D11A
:1027600040270121260080256162A36200232C36C8
:10277000AD0135432B60062000F094F9390080004C
:1027800000F028FB6023E26A53406E221A40802347
:102790005B0133431A60104B236310232B600D3B06
:1027A000A364F8BD0D4A934203D900230C4F0D4991
:1027B000D8E77F221040013040089F0119003F18E0
:1027C0000300CFE70080FCBF00C0004000E00040F5
:1027D00000F000406406002001030000FEFF00003E
:1027E000C0FF3F00FFFF000030B50C2083B000F0B9
:1027F000B7F9FEF7A7FC00280ED0944B944A1A6054
:102800005A609A60DA601A615A619A61DA611A62F2
:10281000904A5A6203B030BD8F4CA06700F0A8F90F
:1028200001228E4B1A60636C012BFCD103228C4B6E
:102830001A60894A936B012BFCD101330121894A2B
:1028400089480093043300F033F90523874A009345
:102850000121874800F02CF9864B5A68FF2A02D8DC
:10286000802252005A608022784C7D4B21691201EF
:10287000804D1A60002905D0606900F0ABFA013084
:102880000138FDD1E0217B4B02201A6811408022E3
:1028900052012A4311601968484003210140116028
:1028A00004219A681142FCD08022802192012A439F
:1028B00009011160802252005A606F4B23616F4BF7
:1028C0005968FF2900D85A600321644A6B4B116094
:1028D00002399A681142FCD0E0201A681040802228
:1028E00052011A4310601868484003210140022039
:1028F000116062498A681042FCD080229201134321
:10290000802212011A6080225D4B52004A6063618E
:102910005C4B5968FF2900D85A6080225A4BE16904
:102920001201584D1A60002905D0606900F052FA72
:1029300001300138FDD1E02252490B681A40802352
:102940005B012B431A60802380229B012B431201E1
:102950001A6080223E4B52004A60E3614B4B59683B
:10296000FF2900D85A608022494B216A1201474D45
:102970001A60002905D0606900F02CFA0130013896
:10298000FDD1E02241490B681A4080235B012B43B3
:102990001A60802380229B012B4312011A6080233E
:1029A00080225B004B602A4BD2022362394B59686C
:1029B000914200D25A608022374B616A1201354D34
:1029C0001A60002905D0606900F004FA013001386E
:1029D000FDD1E0222F490B681A4080235B012B4375
:1029E0001A60802380229B012B4312011A608023EE
:1029F000DB024B60174B6362284B5A68FF2A02D8F0
:102A0000802252005A608022254BA1691201234D79
:102A10001A60002905D0606900F0DCF90130013846
:102A2000FDD1E0221D490B681A4080235B012B4336
:102A30001A60802380229B012B4312011A6080239D
:102A40005B004B600E4BA361E4E6C046B40500207A
:102A5000006CDC021BB70000008000403CB000406E
:102A600030B00040002F685900800240008C86473B
:102A700000C0024030800040001BB7003C80004096
:102A8000405973075480004054B0004060800040BB
:102A900060B000406C8000406CB000404880004056
:102AA00048B00040014B8000C0587047B40500207A
:102AB000F0B5C646040000B50C2090461F000E007D
:102AC00000F088F94101091A8D01691AC900091835
:102AD0008901404600F07EF9069B3F041A032368F3
:102AE0001743002B22DB1A4B1A4DE21853425A416E
:102AF00080235B019C461203174B62441A60174BFC
:102B00001A601100AB689943FBD1C022231D9201CA
:102B10001A4321232660A06013602368002BFCDA8F
:102B20000823E760136080BCB846F0BD3F232268ED
:102B30001340B342D7D1A3681B051B0D8342D2D1EA
:102B4000EE22E368D2021340BB42CCD1EBE7C04691
:102B50000040FDBF00C0004000E0004000F0004029
:102B60008023024A9B000343D362704700800540E4
:102B7000AA23064A1B0113602F230549D360054B86
:102B800019605368002BFCDA7047C04600400240D1
:102B900000B0FA00006002402C4B2D4A70B51A605C
:102BA0002C4A2D4B2D491A6014008B689C43FBD195
:102BB0002B4D2C4EB54208D2013E761BB60808CDEF
:102BC000984723000134B342F9D1FFF70DFE264A9E
:102BD000214B1A60214A9368DB43DB01DD09002B9E
:102BE000F9D14022214B224C224E9A675A671A672C
:102BF000DA66B44208D223682000002B20D00834C3
:102C0000FEF776FDB442F6D31B4E1C4CC022A168E1
:102C1000300000F0CFF9A660FEF7BEFAFEF740FDE7
:102C2000FEF710FF164C174EB44208D2013E361B79
:102C3000B60808CC98472B0001359E42F9D170BDEB
:102C40000834FEF747FDB442D5D3DDE700E000408D
:102C5000BFCDFBFEFE7F3C0000F0004000C0004006
:102C60003802002048020020FFFFFF0100F0014071
:102C700030020020380200200000002000ED00E0BB
:102C8000480200204C02002000BEFDE710B5FFF70F
:102C9000FBFFC0460FB400B5084883B000F0BCFA93
:102CA000049B002B07D005A91800019100F018F82B
:102CB000034800F0B1FA0120FFF7E6FF7C33001073
:102CC0008C33001010B50148FFF7E4FF903300107B
:102CD00010B5002800D110BD00F052FAFBE7C04645
:102CE00010B5094A0300146884B0002C08D00122F2
:102CF00000910648524203A9A047012004B010BD2C
:102D000000F08AFA0020F9E724060020D12C0010F8
:102D100001480421014B184710020020412D0010EA
:102D2000142310B50100188804331B88984710BD80
:102D3000162310B50100188802331B88984710BD70
:102D4000F8B54746CE4680B50F1E19D014239946D4
:102D5000043304000025012698464B461888434654
:102D600021681B88984701C4431E984101354042A1
:102D70000640AF42F1D13000C0BCB946B046F8BD04
:102D80000126F8E7124A936F9B0815D29066D16628
:102D9000002905D0FFE7FFE7FFE7516F106F70478D
:102DA00004B580210906C2175140002800D0C8434D
:102DB00000F08AFA002104BDF0B5146E556E576F0D
:102DC000166FFFF7E3FF1466556657671667F0BD89
:102DD000000000D0114A936F9B0813D21066516611
:102DE000002905D0FFE7FFE7FFE7516F106F70473D
:102DF00004B5002801D00020C04300F065FA00218E
:102E000004BDC046F0B5146E556E576F166FFFF7D0
:102E1000E5FF1466556657671667F0BD000000D0E1
:102E2000132370B51D78012D15D010DD1C48FFF758
:102E30007FFF1C4C01008022200000F0BBF8022D17
:102E400006D01948FFF76CFF184B186070BD154C81
:102E5000174BA364F5E7164B124C23606360A36025
:102E6000E36023616361A361E36123626362A36240
:102E7000E36223636363A363E36323646364A36420
:102E8000E36423656365A365E36523666366A36600
:102E9000E36623676367A367E367A364D1E7C0467C
:102EA00053440000800300204C3300004C060020F7
:102EB000B52E001007B5604601880A0A0230DF2AE5
:102EC000FAD1C9B2820804D30288408800041043B2
:102ED00000E00068014A5050039007BD80030020C5
:102EE00051434343C9188C46110C83B24B4310B471
:102EF000040C614392B280B2504362431C041B0C29
:102F0000001910BC59411304120CC01851416144FE
:102F100070470000132310B512481C78FFF708FF14
:102F20000100012C0AD003DD80220F4800F042F896
:102F30000E48FFF7F5FE0E4B186010BD0A4C5422E8
:102F4000200000F037F80B4B6365A365E36523664B
:102F50006366A366E36623676367A367E367236229
:102F6000E361E5E753460000800400204C33000095
:102F70004C060020792F001007B5604601880A0A28
:102F80000230DF2AFAD1C9B2820804D3028840880D
:102F90000004104300E00068014A5050039007BD50
:102FA0008004002001480421014B18472002002022
:102FB000412D0010014B5B681847000020020020E3
:102FC000030010B5080011001B68984710BDC046EB
:102FD000F0B546464F46D646C0B5437D80460E0006
:102FE0001700002B46D0002A3FDD4B1E9946244B8C
:102FF0000125002400209A460DE04B461B5D0D3B49
:103000005A425341325DDBB20A2A0BD02B00013405
:1030100001359F421ADD002CEFD14346325D1B7D06
:103020000A2AF3D1002BF1D1A04204DA4346211A37
:103030001B6830189847434650461B680221984742
:10304000013428002B0001359F42E4DC874204DD77
:103050004346391A1B6830189847F619013E3378F1
:103060000D3B5A42534142461375E0BCBA46B14645
:10307000A846F0BD0368110030009847F5E7C04648
:1030800050340010F0B5DE4657464E464546E0B592
:1030900085B017001C0006000D00FFF76DF8002337
:1030A000304A12184B41002B58DB2F4908008A4642
:1030B00000F012F901906B1C03D1300000F0CAF847
:1030C0000500002C25D1294B9846294B1C68002C63
:1030D00015D0002F20D1274F02E02469002C0ED0FC
:1030E0002368002BF9D03B68002B01D0A342F4D118
:1030F00020002A003100C0472469002CF0D1019B38
:10310000002B27D105B0F0BCBB46B246A946A0466D
:10311000F0BD194B9846D8E7164B994602ABDF1D18
:103120000A239B4602E02469002CE8D02368002B88
:10313000F9D04B461B68002B01D0A342F3D12A00E3
:1031400031002000C0475B460122390020003B705F
:10315000C047E8E7504600F0AFF8D3E70122074B3D
:103160005242A2E740420F0030020020D12F00104F
:103170001C06002020060020C12F0010FFFFFF7F4B
:10318000F0B5CE46474680B583B06B460600DD1DE0
:103190002870FEF7F1FF00231A4A12184B41002B4A
:1031A0002BDB19490800884600F096F8174B81463A
:1031B0001C68002C14D0164F02E02469002C0FD09C
:1031C0002368002BF9D03B68002B01D0A342F4D137
:1031D000200001222900FFF7FBFE2469002CEFD11B
:1031E0004B46002B05D1300003B0C0BCB946B046F9
:1031F000F0BD404600F060F8F5E70122054B524271
:10320000CFE7C04640420F00300200201C060020DD
:1032100020060020FFFFFF7F70B5040000F01AF8C1
:1032200000230100050001222000FFF72BFF084BBF
:103230001C68002C06D06368002B05D098472469D1
:10324000002CF8D1280070BD2469002CF3D1F9E7D7
:103250001C06002010B583070AD00300032102E0FA
:1032600001330B4205D01A78002AF9D1181A10BD83
:10327000030019680C4A0D4C8A188A4322420FD168
:103280005968094A04338A188A43224208D1596886
:10329000054A04338A188A432242F1D000E0013300
:1032A0001A78002AFBD1E1E7FFFEFEFE80808080D5
:1032B000F8B5C0460000000001B40248844601BCD5
:1032C000604700BF5D01002001B40248844601BC94
:1032D000604700BF8501002001B40248844601BC5C
:0832E000604700BFC10000209F
:1032E8004750494F3A2000000A0D000044433A2055
:1032F800000000007A797877767574737271706F50
:103308006E6D6C6B6A69686766656463626139389B
:103318003736353433323130313233343536373865
:10332800396162636465666768696A6B6C6D6E6F44
:10333800707172737475767778797A000A0D4865BA
:103348006C6C6F2C20536572766F210A0D0000009B
:10335800486172647761726520616C61726D2025C5
:103368006420616C726561647920636C61696D6564
:10337800640000000A2A2A2A2050414E4943202A84
:103388002A2A0A000A0000004861726420617373E7
:103398006572740052656C6561736500626F6F7465
:1033A800325F7732357130383000000068747470DD
:1033B800733A2F2F6769746875622E636F6D2F7269
:1033C800617370626572727970692F7069636F2DAD
:1033D8006578616D706C65732F747265652F4845EB
:1033E80041442F736572766F5F70776D000000003F
:1033F800312E352E300000007069636F0000000028
:10340800736572766F5F70776D0000004D6179208B
:10341800313120323032330006005250BBFF3CB607
:1034280000340010060052509A235618B433001086
:1034380006005250E182887FA433001006005250E3
:0C344800D3F075429C3300100D0A000008
:10345400AC020010A00200109402001020340010EE
:10346400880200102C34001038340010443400104A
:10347400F0B5C646150000B504001E000268EFF35F
:10348400108172B61368002BFCD0BFF35F8F042346
:10349400E356002B2DDB2268BFF35F8F0020106002
:1034A40081F31088D0221206127852B290469A42C2
:1034B40003D1002080BCB846F0BD00270BE0236890
:1034C400BFF35F8F1F6081F310882800310000F084
:1034D40033F80028EDD12268EFF3108172B6136837
:1034E400002BFCD0BFF35F8F23797F2BE7D94346B2
:1034F40002E0D0231B061B6823712368BFF35F8F90
:1035040000221A6081F310880120D3E70268EFF3E8
:10351400108172B61368002BFCD0BFF35F8FFF23BA
:1035240003710368BFF35F8F00221A6081F3108870
:1035340040BF70477047C04601B40248844601BC8E
:10354400604700BF2D2000101000000000000000A4
:103554000000010000000000000000000000020064
:103564000000000000000000000003000000000054
:10357400000000000000FF000000000001B54868E2
:1035840001318E460047704609380149884701BD1C
:10359400ED150010FC01002000000000680200206E
:1035A400DC0500200000000000000000EC05002005
:1035B40000000000000000001000000000000000F7
:1035C400503300004C3300005433000052330000E9
:1035D4004D5300004D4300005334000043340000B9
:1035E4000000000000000000A52F0010112D0010A5
:0C35F400212E0010152F0010E502001021
:04000005100001E9FD
:00000001FF
